{
	"Practice_1/1_Greeter.sol": {
		"Greeter": {
			"abi": [
				{
					"inputs": [],
					"stateMutability": "nonpayable",
					"type": "constructor"
				},
				{
					"inputs": [],
					"name": "greet",
					"outputs": [
						{
							"internalType": "string",
							"name": "",
							"type": "string"
						}
					],
					"stateMutability": "view",
					"type": "function"
				},
				{
					"inputs": [],
					"name": "greeting",
					"outputs": [
						{
							"internalType": "string",
							"name": "",
							"type": "string"
						}
					],
					"stateMutability": "view",
					"type": "function"
				},
				{
					"inputs": [],
					"name": "greetingHistory",
					"outputs": [
						{
							"components": [
								{
									"internalType": "address",
									"name": "sender",
									"type": "address"
								},
								{
									"internalType": "string",
									"name": "message",
									"type": "string"
								}
							],
							"internalType": "struct Greeter.Greeting[]",
							"name": "",
							"type": "tuple[]"
						}
					],
					"stateMutability": "view",
					"type": "function"
				},
				{
					"inputs": [
						{
							"internalType": "uint256",
							"name": "",
							"type": "uint256"
						}
					],
					"name": "greetings",
					"outputs": [
						{
							"internalType": "address",
							"name": "sender",
							"type": "address"
						},
						{
							"internalType": "string",
							"name": "message",
							"type": "string"
						}
					],
					"stateMutability": "view",
					"type": "function"
				},
				{
					"inputs": [
						{
							"internalType": "string",
							"name": "_greeting",
							"type": "string"
						}
					],
					"name": "setGreeting",
					"outputs": [],
					"stateMutability": "nonpayable",
					"type": "function"
				}
			],
			"devdoc": {
				"kind": "dev",
				"methods": {},
				"version": 1
			},
			"evm": {
				"assembly": "    /* \"Practice_1/1_Greeter.sol\":67:1106  contract Greeter {... */\n  mstore(0x40, 0x80)\n    /* \"Practice_1/1_Greeter.sol\":299:478  constructor() {... */\n  callvalue\n  dup1\n  iszero\n  tag_1\n  jumpi\n  0x00\n  dup1\n  revert\ntag_1:\n  pop\n    /* \"Practice_1/1_Greeter.sol\":324:349  greeting = \"Hello World!\" */\n  mload(0x40)\n  dup1\n  0x40\n  add\n  0x40\n  mstore\n  dup1\n  0x0c\n  dup2\n  mstore\n  0x20\n  add\n  0x48656c6c6f20576f726c64210000000000000000000000000000000000000000\n  dup2\n  mstore\n  pop\n    /* \"Practice_1/1_Greeter.sol\":324:332  greeting */\n  0x00\n    /* \"Practice_1/1_Greeter.sol\":324:349  greeting = \"Hello World!\" */\n  swap1\n  dup2\n  tag_4\n  swap2\n  swap1\n  tag_5\n  jump\t// in\ntag_4:\n  pop\n    /* \"Practice_1/1_Greeter.sol\":362:371  greetings */\n  0x01\n    /* \"Practice_1/1_Greeter.sol\":377:469  Greeting({... */\n  mload(0x40)\n  dup1\n  0x40\n  add\n  0x40\n  mstore\n  dup1\n    /* \"Practice_1/1_Greeter.sol\":409:419  msg.sender */\n  caller\n    /* \"Practice_1/1_Greeter.sol\":377:469  Greeting({... */\n  0xffffffffffffffffffffffffffffffffffffffff\n  and\n  dup2\n  mstore\n  0x20\n  add\n  mload(0x40)\n  dup1\n  0x40\n  add\n  0x40\n  mstore\n  dup1\n  0x0c\n  dup2\n  mstore\n  0x20\n  add\n  0x48656c6c6f20576f726c64210000000000000000000000000000000000000000\n  dup2\n  mstore\n  pop\n  dup2\n  mstore\n  pop\n    /* \"Practice_1/1_Greeter.sol\":362:470  greetings.push(Greeting({... */\n  swap1\n  dup1\n  0x01\n  dup2\n  sload\n  add\n  dup1\n  dup3\n  sstore\n  dup1\n  swap2\n  pop\n  pop\n  0x01\n  swap1\n  sub\n  swap1\n  0x00\n  mstore\n  keccak256(0x00, 0x20)\n  swap1\n  0x02\n  mul\n  add\n  0x00\n  swap1\n  swap2\n  swap1\n  swap2\n  swap1\n  swap2\n  pop\n  0x00\n  dup3\n  add\n  mload\n  dup2\n  0x00\n  add\n  exp(0x0100, 0x00)\n  dup2\n  sload\n  dup2\n  0xffffffffffffffffffffffffffffffffffffffff\n  mul\n  not\n  and\n  swap1\n  dup4\n  0xffffffffffffffffffffffffffffffffffffffff\n  and\n  mul\n  or\n  swap1\n  sstore\n  pop\n  0x20\n  dup3\n  add\n  mload\n  dup2\n  0x01\n  add\n  swap1\n  dup2\n  tag_7\n  swap2\n  swap1\n  tag_5\n  jump\t// in\ntag_7:\n  pop\n  pop\n  pop\n    /* \"Practice_1/1_Greeter.sol\":67:1106  contract Greeter {... */\n  jump(tag_8)\n    /* \"#utility.yul\":7:106   */\ntag_9:\n    /* \"#utility.yul\":59:65   */\n  0x00\n    /* \"#utility.yul\":93:98   */\n  dup2\n    /* \"#utility.yul\":87:99   */\n  mload\n    /* \"#utility.yul\":77:99   */\n  swap1\n  pop\n    /* \"#utility.yul\":7:106   */\n  swap2\n  swap1\n  pop\n  jump\t// out\n    /* \"#utility.yul\":112:292   */\ntag_10:\n    /* \"#utility.yul\":160:237   */\n  0x4e487b7100000000000000000000000000000000000000000000000000000000\n    /* \"#utility.yul\":157:158   */\n  0x00\n    /* \"#utility.yul\":150:238   */\n  mstore\n    /* \"#utility.yul\":257:261   */\n  0x41\n    /* \"#utility.yul\":254:255   */\n  0x04\n    /* \"#utility.yul\":247:262   */\n  mstore\n    /* \"#utility.yul\":281:285   */\n  0x24\n    /* \"#utility.yul\":278:279   */\n  0x00\n    /* \"#utility.yul\":271:286   */\n  revert\n    /* \"#utility.yul\":298:478   */\ntag_11:\n    /* \"#utility.yul\":346:423   */\n  0x4e487b7100000000000000000000000000000000000000000000000000000000\n    /* \"#utility.yul\":343:344   */\n  0x00\n    /* \"#utility.yul\":336:424   */\n  mstore\n    /* \"#utility.yul\":443:447   */\n  0x22\n    /* \"#utility.yul\":440:441   */\n  0x04\n    /* \"#utility.yul\":433:448   */\n  mstore\n    /* \"#utility.yul\":467:471   */\n  0x24\n    /* \"#utility.yul\":464:465   */\n  0x00\n    /* \"#utility.yul\":457:472   */\n  revert\n    /* \"#utility.yul\":484:804   */\ntag_12:\n    /* \"#utility.yul\":528:534   */\n  0x00\n    /* \"#utility.yul\":565:566   */\n  0x02\n    /* \"#utility.yul\":559:563   */\n  dup3\n    /* \"#utility.yul\":555:567   */\n  div\n    /* \"#utility.yul\":545:567   */\n  swap1\n  pop\n    /* \"#utility.yul\":612:613   */\n  0x01\n    /* \"#utility.yul\":606:610   */\n  dup3\n    /* \"#utility.yul\":602:614   */\n  and\n    /* \"#utility.yul\":633:651   */\n  dup1\n    /* \"#utility.yul\":623:704   */\n  tag_34\n  jumpi\n    /* \"#utility.yul\":689:693   */\n  0x7f\n    /* \"#utility.yul\":681:687   */\n  dup3\n    /* \"#utility.yul\":677:694   */\n  and\n    /* \"#utility.yul\":667:694   */\n  swap2\n  pop\n    /* \"#utility.yul\":623:704   */\ntag_34:\n    /* \"#utility.yul\":751:753   */\n  0x20\n    /* \"#utility.yul\":743:749   */\n  dup3\n    /* \"#utility.yul\":740:754   */\n  lt\n    /* \"#utility.yul\":720:738   */\n  dup2\n    /* \"#utility.yul\":717:755   */\n  sub\n    /* \"#utility.yul\":714:798   */\n  tag_35\n  jumpi\n    /* \"#utility.yul\":770:788   */\n  tag_36\n  tag_11\n  jump\t// in\ntag_36:\n    /* \"#utility.yul\":714:798   */\ntag_35:\n    /* \"#utility.yul\":535:804   */\n  pop\n    /* \"#utility.yul\":484:804   */\n  swap2\n  swap1\n  pop\n  jump\t// out\n    /* \"#utility.yul\":810:951   */\ntag_13:\n    /* \"#utility.yul\":859:863   */\n  0x00\n    /* \"#utility.yul\":882:885   */\n  dup2\n    /* \"#utility.yul\":874:885   */\n  swap1\n  pop\n    /* \"#utility.yul\":905:908   */\n  dup2\n    /* \"#utility.yul\":902:903   */\n  0x00\n    /* \"#utility.yul\":895:909   */\n  mstore\n    /* \"#utility.yul\":939:943   */\n  0x20\n    /* \"#utility.yul\":936:937   */\n  0x00\n    /* \"#utility.yul\":926:944   */\n  keccak256\n    /* \"#utility.yul\":918:944   */\n  swap1\n  pop\n    /* \"#utility.yul\":810:951   */\n  swap2\n  swap1\n  pop\n  jump\t// out\n    /* \"#utility.yul\":957:1050   */\ntag_14:\n    /* \"#utility.yul\":994:1000   */\n  0x00\n    /* \"#utility.yul\":1041:1043   */\n  0x20\n    /* \"#utility.yul\":1036:1038   */\n  0x1f\n    /* \"#utility.yul\":1029:1034   */\n  dup4\n    /* \"#utility.yul\":1025:1039   */\n  add\n    /* \"#utility.yul\":1021:1044   */\n  div\n    /* \"#utility.yul\":1011:1044   */\n  swap1\n  pop\n    /* \"#utility.yul\":957:1050   */\n  swap2\n  swap1\n  pop\n  jump\t// out\n    /* \"#utility.yul\":1056:1163   */\ntag_15:\n    /* \"#utility.yul\":1100:1108   */\n  0x00\n    /* \"#utility.yul\":1150:1155   */\n  dup3\n    /* \"#utility.yul\":1144:1148   */\n  dup3\n    /* \"#utility.yul\":1140:1156   */\n  shl\n    /* \"#utility.yul\":1119:1156   */\n  swap1\n  pop\n    /* \"#utility.yul\":1056:1163   */\n  swap3\n  swap2\n  pop\n  pop\n  jump\t// out\n    /* \"#utility.yul\":1169:1562   */\ntag_16:\n    /* \"#utility.yul\":1238:1244   */\n  0x00\n    /* \"#utility.yul\":1288:1289   */\n  0x08\n    /* \"#utility.yul\":1276:1286   */\n  dup4\n    /* \"#utility.yul\":1272:1290   */\n  mul\n    /* \"#utility.yul\":1311:1408   */\n  tag_41\n    /* \"#utility.yul\":1341:1407   */\n  0xffffffffffffffffffffffffffffffffffffffffffffffffffffffffffffffff\n    /* \"#utility.yul\":1330:1339   */\n  dup3\n    /* \"#utility.yul\":1311:1408   */\n  tag_15\n  jump\t// in\ntag_41:\n    /* \"#utility.yul\":1429:1468   */\n  tag_42\n    /* \"#utility.yul\":1459:1467   */\n  dup7\n    /* \"#utility.yul\":1448:1457   */\n  dup4\n    /* \"#utility.yul\":1429:1468   */\n  tag_15\n  jump\t// in\ntag_42:\n    /* \"#utility.yul\":1417:1468   */\n  swap6\n  pop\n    /* \"#utility.yul\":1501:1505   */\n  dup1\n    /* \"#utility.yul\":1497:1506   */\n  not\n    /* \"#utility.yul\":1490:1495   */\n  dup5\n    /* \"#utility.yul\":1486:1507   */\n  and\n    /* \"#utility.yul\":1477:1507   */\n  swap4\n  pop\n    /* \"#utility.yul\":1550:1554   */\n  dup1\n    /* \"#utility.yul\":1540:1548   */\n  dup7\n    /* \"#utility.yul\":1536:1555   */\n  and\n    /* \"#utility.yul\":1529:1534   */\n  dup5\n    /* \"#utility.yul\":1526:1556   */\n  or\n    /* \"#utility.yul\":1516:1556   */\n  swap3\n  pop\n    /* \"#utility.yul\":1245:1562   */\n  pop\n  pop\n    /* \"#utility.yul\":1169:1562   */\n  swap4\n  swap3\n  pop\n  pop\n  pop\n  jump\t// out\n    /* \"#utility.yul\":1568:1645   */\ntag_17:\n    /* \"#utility.yul\":1605:1612   */\n  0x00\n    /* \"#utility.yul\":1634:1639   */\n  dup2\n    /* \"#utility.yul\":1623:1639   */\n  swap1\n  pop\n    /* \"#utility.yul\":1568:1645   */\n  swap2\n  swap1\n  pop\n  jump\t// out\n    /* \"#utility.yul\":1651:1711   */\ntag_18:\n    /* \"#utility.yul\":1679:1682   */\n  0x00\n    /* \"#utility.yul\":1700:1705   */\n  dup2\n    /* \"#utility.yul\":1693:1705   */\n  swap1\n  pop\n    /* \"#utility.yul\":1651:1711   */\n  swap2\n  swap1\n  pop\n  jump\t// out\n    /* \"#utility.yul\":1717:1859   */\ntag_19:\n    /* \"#utility.yul\":1767:1776   */\n  0x00\n    /* \"#utility.yul\":1800:1853   */\n  tag_46\n    /* \"#utility.yul\":1818:1852   */\n  tag_47\n    /* \"#utility.yul\":1827:1851   */\n  tag_48\n    /* \"#utility.yul\":1845:1850   */\n  dup5\n    /* \"#utility.yul\":1827:1851   */\n  tag_17\n  jump\t// in\ntag_48:\n    /* \"#utility.yul\":1818:1852   */\n  tag_18\n  jump\t// in\ntag_47:\n    /* \"#utility.yul\":1800:1853   */\n  tag_17\n  jump\t// in\ntag_46:\n    /* \"#utility.yul\":1787:1853   */\n  swap1\n  pop\n    /* \"#utility.yul\":1717:1859   */\n  swap2\n  swap1\n  pop\n  jump\t// out\n    /* \"#utility.yul\":1865:1940   */\ntag_20:\n    /* \"#utility.yul\":1908:1911   */\n  0x00\n    /* \"#utility.yul\":1929:1934   */\n  dup2\n    /* \"#utility.yul\":1922:1934   */\n  swap1\n  pop\n    /* \"#utility.yul\":1865:1940   */\n  swap2\n  swap1\n  pop\n  jump\t// out\n    /* \"#utility.yul\":1946:2215   */\ntag_21:\n    /* \"#utility.yul\":2056:2095   */\n  tag_51\n    /* \"#utility.yul\":2087:2094   */\n  dup4\n    /* \"#utility.yul\":2056:2095   */\n  tag_19\n  jump\t// in\ntag_51:\n    /* \"#utility.yul\":2117:2208   */\n  tag_52\n    /* \"#utility.yul\":2166:2207   */\n  tag_53\n    /* \"#utility.yul\":2190:2206   */\n  dup3\n    /* \"#utility.yul\":2166:2207   */\n  tag_20\n  jump\t// in\ntag_53:\n    /* \"#utility.yul\":2158:2164   */\n  dup5\n    /* \"#utility.yul\":2151:2155   */\n  dup5\n    /* \"#utility.yul\":2145:2156   */\n  sload\n    /* \"#utility.yul\":2117:2208   */\n  tag_16\n  jump\t// in\ntag_52:\n    /* \"#utility.yul\":2111:2115   */\n  dup3\n    /* \"#utility.yul\":2104:2209   */\n  sstore\n    /* \"#utility.yul\":2022:2215   */\n  pop\n    /* \"#utility.yul\":1946:2215   */\n  pop\n  pop\n  pop\n  jump\t// out\n    /* \"#utility.yul\":2221:2294   */\ntag_22:\n    /* \"#utility.yul\":2266:2269   */\n  0x00\n    /* \"#utility.yul\":2221:2294   */\n  swap1\n  jump\t// out\n    /* \"#utility.yul\":2300:2489   */\ntag_23:\n    /* \"#utility.yul\":2377:2409   */\n  tag_56\n  tag_22\n  jump\t// in\ntag_56:\n    /* \"#utility.yul\":2418:2483   */\n  tag_57\n    /* \"#utility.yul\":2476:2482   */\n  dup2\n    /* \"#utility.yul\":2468:2474   */\n  dup5\n    /* \"#utility.yul\":2462:2466   */\n  dup5\n    /* \"#utility.yul\":2418:2483   */\n  tag_21\n  jump\t// in\ntag_57:\n    /* \"#utility.yul\":2353:2489   */\n  pop\n    /* \"#utility.yul\":2300:2489   */\n  pop\n  pop\n  jump\t// out\n    /* \"#utility.yul\":2495:2681   */\ntag_24:\n    /* \"#utility.yul\":2555:2675   */\ntag_59:\n    /* \"#utility.yul\":2572:2575   */\n  dup2\n    /* \"#utility.yul\":2565:2570   */\n  dup2\n    /* \"#utility.yul\":2562:2576   */\n  lt\n    /* \"#utility.yul\":2555:2675   */\n  iszero\n  tag_61\n  jumpi\n    /* \"#utility.yul\":2626:2665   */\n  tag_62\n    /* \"#utility.yul\":2663:2664   */\n  0x00\n    /* \"#utility.yul\":2656:2661   */\n  dup3\n    /* \"#utility.yul\":2626:2665   */\n  tag_23\n  jump\t// in\ntag_62:\n    /* \"#utility.yul\":2599:2600   */\n  0x01\n    /* \"#utility.yul\":2592:2597   */\n  dup2\n    /* \"#utility.yul\":2588:2601   */\n  add\n    /* \"#utility.yul\":2579:2601   */\n  swap1\n  pop\n    /* \"#utility.yul\":2555:2675   */\n  jump(tag_59)\ntag_61:\n    /* \"#utility.yul\":2495:2681   */\n  pop\n  pop\n  jump\t// out\n    /* \"#utility.yul\":2687:3230   */\ntag_25:\n    /* \"#utility.yul\":2788:2790   */\n  0x1f\n    /* \"#utility.yul\":2783:2786   */\n  dup3\n    /* \"#utility.yul\":2780:2791   */\n  gt\n    /* \"#utility.yul\":2777:3223   */\n  iszero\n  tag_64\n  jumpi\n    /* \"#utility.yul\":2822:2860   */\n  tag_65\n    /* \"#utility.yul\":2854:2859   */\n  dup2\n    /* \"#utility.yul\":2822:2860   */\n  tag_13\n  jump\t// in\ntag_65:\n    /* \"#utility.yul\":2906:2935   */\n  tag_66\n    /* \"#utility.yul\":2924:2934   */\n  dup5\n    /* \"#utility.yul\":2906:2935   */\n  tag_14\n  jump\t// in\ntag_66:\n    /* \"#utility.yul\":2896:2904   */\n  dup2\n    /* \"#utility.yul\":2892:2936   */\n  add\n    /* \"#utility.yul\":3089:3091   */\n  0x20\n    /* \"#utility.yul\":3077:3087   */\n  dup6\n    /* \"#utility.yul\":3074:3092   */\n  lt\n    /* \"#utility.yul\":3071:3120   */\n  iszero\n  tag_67\n  jumpi\n    /* \"#utility.yul\":3110:3118   */\n  dup2\n    /* \"#utility.yul\":3095:3118   */\n  swap1\n  pop\n    /* \"#utility.yul\":3071:3120   */\ntag_67:\n    /* \"#utility.yul\":3133:3213   */\n  tag_68\n    /* \"#utility.yul\":3189:3211   */\n  tag_69\n    /* \"#utility.yul\":3207:3210   */\n  dup6\n    /* \"#utility.yul\":3189:3211   */\n  tag_14\n  jump\t// in\ntag_69:\n    /* \"#utility.yul\":3179:3187   */\n  dup4\n    /* \"#utility.yul\":3175:3212   */\n  add\n    /* \"#utility.yul\":3162:3173   */\n  dup3\n    /* \"#utility.yul\":3133:3213   */\n  tag_24\n  jump\t// in\ntag_68:\n    /* \"#utility.yul\":2792:3223   */\n  pop\n  pop\n    /* \"#utility.yul\":2777:3223   */\ntag_64:\n    /* \"#utility.yul\":2687:3230   */\n  pop\n  pop\n  pop\n  jump\t// out\n    /* \"#utility.yul\":3236:3353   */\ntag_26:\n    /* \"#utility.yul\":3290:3298   */\n  0x00\n    /* \"#utility.yul\":3340:3345   */\n  dup3\n    /* \"#utility.yul\":3334:3338   */\n  dup3\n    /* \"#utility.yul\":3330:3346   */\n  shr\n    /* \"#utility.yul\":3309:3346   */\n  swap1\n  pop\n    /* \"#utility.yul\":3236:3353   */\n  swap3\n  swap2\n  pop\n  pop\n  jump\t// out\n    /* \"#utility.yul\":3359:3528   */\ntag_27:\n    /* \"#utility.yul\":3403:3409   */\n  0x00\n    /* \"#utility.yul\":3436:3487   */\n  tag_72\n    /* \"#utility.yul\":3484:3485   */\n  0x00\n    /* \"#utility.yul\":3480:3486   */\n  not\n    /* \"#utility.yul\":3472:3477   */\n  dup5\n    /* \"#utility.yul\":3469:3470   */\n  0x08\n    /* \"#utility.yul\":3465:3478   */\n  mul\n    /* \"#utility.yul\":3436:3487   */\n  tag_26\n  jump\t// in\ntag_72:\n    /* \"#utility.yul\":3432:3488   */\n  not\n    /* \"#utility.yul\":3517:3521   */\n  dup1\n    /* \"#utility.yul\":3511:3515   */\n  dup4\n    /* \"#utility.yul\":3507:3522   */\n  and\n    /* \"#utility.yul\":3497:3522   */\n  swap2\n  pop\n    /* \"#utility.yul\":3410:3528   */\n  pop\n    /* \"#utility.yul\":3359:3528   */\n  swap3\n  swap2\n  pop\n  pop\n  jump\t// out\n    /* \"#utility.yul\":3533:3828   */\ntag_28:\n    /* \"#utility.yul\":3609:3613   */\n  0x00\n    /* \"#utility.yul\":3755:3784   */\n  tag_74\n    /* \"#utility.yul\":3780:3783   */\n  dup4\n    /* \"#utility.yul\":3774:3778   */\n  dup4\n    /* \"#utility.yul\":3755:3784   */\n  tag_27\n  jump\t// in\ntag_74:\n    /* \"#utility.yul\":3747:3784   */\n  swap2\n  pop\n    /* \"#utility.yul\":3817:3820   */\n  dup3\n    /* \"#utility.yul\":3814:3815   */\n  0x02\n    /* \"#utility.yul\":3810:3821   */\n  mul\n    /* \"#utility.yul\":3804:3808   */\n  dup3\n    /* \"#utility.yul\":3801:3822   */\n  or\n    /* \"#utility.yul\":3793:3822   */\n  swap1\n  pop\n    /* \"#utility.yul\":3533:3828   */\n  swap3\n  swap2\n  pop\n  pop\n  jump\t// out\n    /* \"#utility.yul\":3833:5228   */\ntag_5:\n    /* \"#utility.yul\":3950:3987   */\n  tag_76\n    /* \"#utility.yul\":3983:3986   */\n  dup3\n    /* \"#utility.yul\":3950:3987   */\n  tag_9\n  jump\t// in\ntag_76:\n    /* \"#utility.yul\":4052:4070   */\n  0xffffffffffffffff\n    /* \"#utility.yul\":4044:4050   */\n  dup2\n    /* \"#utility.yul\":4041:4071   */\n  gt\n    /* \"#utility.yul\":4038:4094   */\n  iszero\n  tag_77\n  jumpi\n    /* \"#utility.yul\":4074:4092   */\n  tag_78\n  tag_10\n  jump\t// in\ntag_78:\n    /* \"#utility.yul\":4038:4094   */\ntag_77:\n    /* \"#utility.yul\":4118:4156   */\n  tag_79\n    /* \"#utility.yul\":4150:4154   */\n  dup3\n    /* \"#utility.yul\":4144:4155   */\n  sload\n    /* \"#utility.yul\":4118:4156   */\n  tag_12\n  jump\t// in\ntag_79:\n    /* \"#utility.yul\":4203:4270   */\n  tag_80\n    /* \"#utility.yul\":4263:4269   */\n  dup3\n    /* \"#utility.yul\":4255:4261   */\n  dup3\n    /* \"#utility.yul\":4249:4253   */\n  dup6\n    /* \"#utility.yul\":4203:4270   */\n  tag_25\n  jump\t// in\ntag_80:\n    /* \"#utility.yul\":4297:4298   */\n  0x00\n    /* \"#utility.yul\":4321:4325   */\n  0x20\n    /* \"#utility.yul\":4308:4325   */\n  swap1\n  pop\n    /* \"#utility.yul\":4353:4355   */\n  0x1f\n    /* \"#utility.yul\":4345:4351   */\n  dup4\n    /* \"#utility.yul\":4342:4356   */\n  gt\n    /* \"#utility.yul\":4370:4371   */\n  0x01\n    /* \"#utility.yul\":4365:4983   */\n  dup2\n  eq\n  tag_82\n  jumpi\n    /* \"#utility.yul\":5027:5028   */\n  0x00\n    /* \"#utility.yul\":5044:5050   */\n  dup5\n    /* \"#utility.yul\":5041:5118   */\n  iszero\n  tag_83\n  jumpi\n    /* \"#utility.yul\":5093:5102   */\n  dup3\n    /* \"#utility.yul\":5088:5091   */\n  dup8\n    /* \"#utility.yul\":5084:5103   */\n  add\n    /* \"#utility.yul\":5078:5104   */\n  mload\n    /* \"#utility.yul\":5069:5104   */\n  swap1\n  pop\n    /* \"#utility.yul\":5041:5118   */\ntag_83:\n    /* \"#utility.yul\":5144:5211   */\n  tag_84\n    /* \"#utility.yul\":5204:5210   */\n  dup6\n    /* \"#utility.yul\":5197:5202   */\n  dup3\n    /* \"#utility.yul\":5144:5211   */\n  tag_28\n  jump\t// in\ntag_84:\n    /* \"#utility.yul\":5138:5142   */\n  dup7\n    /* \"#utility.yul\":5131:5212   */\n  sstore\n    /* \"#utility.yul\":5000:5222   */\n  pop\n    /* \"#utility.yul\":4335:5222   */\n  jump(tag_81)\n    /* \"#utility.yul\":4365:4983   */\ntag_82:\n    /* \"#utility.yul\":4417:4421   */\n  0x1f\n    /* \"#utility.yul\":4413:4422   */\n  not\n    /* \"#utility.yul\":4405:4411   */\n  dup5\n    /* \"#utility.yul\":4401:4423   */\n  and\n    /* \"#utility.yul\":4451:4488   */\n  tag_85\n    /* \"#utility.yul\":4483:4487   */\n  dup7\n    /* \"#utility.yul\":4451:4488   */\n  tag_13\n  jump\t// in\ntag_85:\n    /* \"#utility.yul\":4510:4511   */\n  0x00\n    /* \"#utility.yul\":4524:4732   */\ntag_86:\n    /* \"#utility.yul\":4538:4545   */\n  dup3\n    /* \"#utility.yul\":4535:4536   */\n  dup2\n    /* \"#utility.yul\":4532:4546   */\n  lt\n    /* \"#utility.yul\":4524:4732   */\n  iszero\n  tag_88\n  jumpi\n    /* \"#utility.yul\":4617:4626   */\n  dup5\n    /* \"#utility.yul\":4612:4615   */\n  dup10\n    /* \"#utility.yul\":4608:4627   */\n  add\n    /* \"#utility.yul\":4602:4628   */\n  mload\n    /* \"#utility.yul\":4594:4600   */\n  dup3\n    /* \"#utility.yul\":4587:4629   */\n  sstore\n    /* \"#utility.yul\":4668:4669   */\n  0x01\n    /* \"#utility.yul\":4660:4666   */\n  dup3\n    /* \"#utility.yul\":4656:4670   */\n  add\n    /* \"#utility.yul\":4646:4670   */\n  swap2\n  pop\n    /* \"#utility.yul\":4715:4717   */\n  0x20\n    /* \"#utility.yul\":4704:4713   */\n  dup6\n    /* \"#utility.yul\":4700:4718   */\n  add\n    /* \"#utility.yul\":4687:4718   */\n  swap5\n  pop\n    /* \"#utility.yul\":4561:4565   */\n  0x20\n    /* \"#utility.yul\":4558:4559   */\n  dup2\n    /* \"#utility.yul\":4554:4566   */\n  add\n    /* \"#utility.yul\":4549:4566   */\n  swap1\n  pop\n    /* \"#utility.yul\":4524:4732   */\n  jump(tag_86)\ntag_88:\n    /* \"#utility.yul\":4760:4766   */\n  dup7\n    /* \"#utility.yul\":4751:4758   */\n  dup4\n    /* \"#utility.yul\":4748:4767   */\n  lt\n    /* \"#utility.yul\":4745:4924   */\n  iszero\n  tag_89\n  jumpi\n    /* \"#utility.yul\":4818:4827   */\n  dup5\n    /* \"#utility.yul\":4813:4816   */\n  dup10\n    /* \"#utility.yul\":4809:4828   */\n  add\n    /* \"#utility.yul\":4803:4829   */\n  mload\n    /* \"#utility.yul\":4861:4909   */\n  tag_90\n    /* \"#utility.yul\":4903:4907   */\n  0x1f\n    /* \"#utility.yul\":4895:4901   */\n  dup10\n    /* \"#utility.yul\":4891:4908   */\n  and\n    /* \"#utility.yul\":4880:4889   */\n  dup3\n    /* \"#utility.yul\":4861:4909   */\n  tag_27\n  jump\t// in\ntag_90:\n    /* \"#utility.yul\":4853:4859   */\n  dup4\n    /* \"#utility.yul\":4846:4910   */\n  sstore\n    /* \"#utility.yul\":4768:4924   */\n  pop\n    /* \"#utility.yul\":4745:4924   */\ntag_89:\n    /* \"#utility.yul\":4970:4971   */\n  0x01\n    /* \"#utility.yul\":4966:4967   */\n  0x02\n    /* \"#utility.yul\":4958:4964   */\n  dup9\n    /* \"#utility.yul\":4954:4968   */\n  mul\n    /* \"#utility.yul\":4950:4972   */\n  add\n    /* \"#utility.yul\":4944:4948   */\n  dup9\n    /* \"#utility.yul\":4937:4973   */\n  sstore\n    /* \"#utility.yul\":4372:4983   */\n  pop\n  pop\n  pop\n    /* \"#utility.yul\":4335:5222   */\ntag_81:\n  pop\n    /* \"#utility.yul\":3925:5228   */\n  pop\n  pop\n  pop\n    /* \"#utility.yul\":3833:5228   */\n  pop\n  pop\n  jump\t// out\n    /* \"Practice_1/1_Greeter.sol\":67:1106  contract Greeter {... */\ntag_8:\n  dataSize(sub_0)\n  dup1\n  dataOffset(sub_0)\n  0x00\n  codecopy\n  0x00\n  return\nstop\n\nsub_0: assembly {\n        /* \"Practice_1/1_Greeter.sol\":67:1106  contract Greeter {... */\n      mstore(0x40, 0x80)\n      callvalue\n      dup1\n      iszero\n      tag_1\n      jumpi\n      0x00\n      dup1\n      revert\n    tag_1:\n      pop\n      jumpi(tag_2, lt(calldatasize, 0x04))\n      shr(0xe0, calldataload(0x00))\n      dup1\n      0x09fbd994\n      eq\n      tag_3\n      jumpi\n      dup1\n      0xa4136862\n      eq\n      tag_4\n      jumpi\n      dup1\n      0xcfae3217\n      eq\n      tag_5\n      jumpi\n      dup1\n      0xef690cc0\n      eq\n      tag_6\n      jumpi\n      dup1\n      0xf87c9ea9\n      eq\n      tag_7\n      jumpi\n    tag_2:\n      0x00\n      dup1\n      revert\n        /* \"Practice_1/1_Greeter.sol\":1005:1103  function greetingHistory() view public returns (Greeting[] memory) {... */\n    tag_3:\n      tag_8\n      tag_9\n      jump\t// in\n    tag_8:\n      mload(0x40)\n      tag_10\n      swap2\n      swap1\n      tag_11\n      jump\t// in\n    tag_10:\n      mload(0x40)\n      dup1\n      swap2\n      sub\n      swap1\n      return\n        /* \"Practice_1/1_Greeter.sol\":617:853  function setGreeting(string memory _greeting) public {... */\n    tag_4:\n      tag_12\n      0x04\n      dup1\n      calldatasize\n      sub\n      dup2\n      add\n      swap1\n      tag_13\n      swap2\n      swap1\n      tag_14\n      jump\t// in\n    tag_13:\n      tag_15\n      jump\t// in\n    tag_12:\n      stop\n        /* \"Practice_1/1_Greeter.sol\":901:995  function greet() view public returns (string memory) {... */\n    tag_5:\n      tag_16\n      tag_17\n      jump\t// in\n    tag_16:\n      mload(0x40)\n      tag_18\n      swap2\n      swap1\n      tag_19\n      jump\t// in\n    tag_18:\n      mload(0x40)\n      dup1\n      swap2\n      sub\n      swap1\n      return\n        /* \"Practice_1/1_Greeter.sol\":93:115  string public greeting */\n    tag_6:\n      tag_20\n      tag_21\n      jump\t// in\n    tag_20:\n      mload(0x40)\n      tag_22\n      swap2\n      swap1\n      tag_19\n      jump\t// in\n    tag_22:\n      mload(0x40)\n      dup1\n      swap2\n      sub\n      swap1\n      return\n        /* \"Practice_1/1_Greeter.sol\":204:231  Greeting[] public greetings */\n    tag_7:\n      tag_23\n      0x04\n      dup1\n      calldatasize\n      sub\n      dup2\n      add\n      swap1\n      tag_24\n      swap2\n      swap1\n      tag_25\n      jump\t// in\n    tag_24:\n      tag_26\n      jump\t// in\n    tag_23:\n      mload(0x40)\n      tag_27\n      swap3\n      swap2\n      swap1\n      tag_28\n      jump\t// in\n    tag_27:\n      mload(0x40)\n      dup1\n      swap2\n      sub\n      swap1\n      return\n        /* \"Practice_1/1_Greeter.sol\":1005:1103  function greetingHistory() view public returns (Greeting[] memory) {... */\n    tag_9:\n        /* \"Practice_1/1_Greeter.sol\":1053:1070  Greeting[] memory */\n      0x60\n        /* \"Practice_1/1_Greeter.sol\":1086:1095  greetings */\n      0x01\n        /* \"Practice_1/1_Greeter.sol\":1079:1095  return greetings */\n      dup1\n      sload\n      dup1\n      0x20\n      mul\n      0x20\n      add\n      mload(0x40)\n      swap1\n      dup2\n      add\n      0x40\n      mstore\n      dup1\n      swap3\n      swap2\n      swap1\n      dup2\n      dup2\n      mstore\n      0x20\n      add\n      0x00\n      swap1\n    tag_30:\n      dup3\n      dup3\n      lt\n      iszero\n      tag_31\n      jumpi\n      dup4\n      dup3\n      swap1\n      0x00\n      mstore\n      keccak256(0x00, 0x20)\n      swap1\n      0x02\n      mul\n      add\n      mload(0x40)\n      dup1\n      0x40\n      add\n      0x40\n      mstore\n      swap1\n      dup2\n      0x00\n      dup3\n      add\n      0x00\n      swap1\n      sload\n      swap1\n      0x0100\n      exp\n      swap1\n      div\n      0xffffffffffffffffffffffffffffffffffffffff\n      and\n      0xffffffffffffffffffffffffffffffffffffffff\n      and\n      0xffffffffffffffffffffffffffffffffffffffff\n      and\n      dup2\n      mstore\n      0x20\n      add\n      0x01\n      dup3\n      add\n      dup1\n      sload\n      tag_33\n      swap1\n      tag_34\n      jump\t// in\n    tag_33:\n      dup1\n      0x1f\n      add\n      0x20\n      dup1\n      swap2\n      div\n      mul\n      0x20\n      add\n      mload(0x40)\n      swap1\n      dup2\n      add\n      0x40\n      mstore\n      dup1\n      swap3\n      swap2\n      swap1\n      dup2\n      dup2\n      mstore\n      0x20\n      add\n      dup3\n      dup1\n      sload\n      tag_35\n      swap1\n      tag_34\n      jump\t// in\n    tag_35:\n      dup1\n      iszero\n      tag_36\n      jumpi\n      dup1\n      0x1f\n      lt\n      tag_37\n      jumpi\n      0x0100\n      dup1\n      dup4\n      sload\n      div\n      mul\n      dup4\n      mstore\n      swap2\n      0x20\n      add\n      swap2\n      jump(tag_36)\n    tag_37:\n      dup3\n      add\n      swap2\n      swap1\n      0x00\n      mstore\n      keccak256(0x00, 0x20)\n      swap1\n    tag_38:\n      dup2\n      sload\n      dup2\n      mstore\n      swap1\n      0x01\n      add\n      swap1\n      0x20\n      add\n      dup1\n      dup4\n      gt\n      tag_38\n      jumpi\n      dup3\n      swap1\n      sub\n      0x1f\n      and\n      dup3\n      add\n      swap2\n    tag_36:\n      pop\n      pop\n      pop\n      pop\n      pop\n      dup2\n      mstore\n      pop\n      pop\n      dup2\n      mstore\n      0x20\n      add\n      swap1\n      0x01\n      add\n      swap1\n      jump(tag_30)\n    tag_31:\n      pop\n      pop\n      pop\n      pop\n      swap1\n      pop\n        /* \"Practice_1/1_Greeter.sol\":1005:1103  function greetingHistory() view public returns (Greeting[] memory) {... */\n      swap1\n      jump\t// out\n        /* \"Practice_1/1_Greeter.sol\":617:853  function setGreeting(string memory _greeting) public {... */\n    tag_15:\n        /* \"Practice_1/1_Greeter.sol\":734:743  _greeting */\n      dup1\n        /* \"Practice_1/1_Greeter.sol\":723:731  greeting */\n      0x00\n        /* \"Practice_1/1_Greeter.sol\":723:743  greeting = _greeting */\n      swap1\n      dup2\n      tag_40\n      swap2\n      swap1\n      tag_41\n      jump\t// in\n    tag_40:\n      pop\n        /* \"Practice_1/1_Greeter.sol\":754:763  greetings */\n      0x01\n        /* \"Practice_1/1_Greeter.sol\":769:844  Greeting({... */\n      mload(0x40)\n      dup1\n      0x40\n      add\n      0x40\n      mstore\n      dup1\n        /* \"Practice_1/1_Greeter.sol\":797:807  msg.sender */\n      caller\n        /* \"Practice_1/1_Greeter.sol\":769:844  Greeting({... */\n      0xffffffffffffffffffffffffffffffffffffffff\n      and\n      dup2\n      mstore\n      0x20\n      add\n        /* \"Practice_1/1_Greeter.sol\":827:836  _greeting */\n      dup4\n        /* \"Practice_1/1_Greeter.sol\":769:844  Greeting({... */\n      dup2\n      mstore\n      pop\n        /* \"Practice_1/1_Greeter.sol\":754:845  greetings.push(Greeting({... */\n      swap1\n      dup1\n      0x01\n      dup2\n      sload\n      add\n      dup1\n      dup3\n      sstore\n      dup1\n      swap2\n      pop\n      pop\n      0x01\n      swap1\n      sub\n      swap1\n      0x00\n      mstore\n      keccak256(0x00, 0x20)\n      swap1\n      0x02\n      mul\n      add\n      0x00\n      swap1\n      swap2\n      swap1\n      swap2\n      swap1\n      swap2\n      pop\n      0x00\n      dup3\n      add\n      mload\n      dup2\n      0x00\n      add\n      exp(0x0100, 0x00)\n      dup2\n      sload\n      dup2\n      0xffffffffffffffffffffffffffffffffffffffff\n      mul\n      not\n      and\n      swap1\n      dup4\n      0xffffffffffffffffffffffffffffffffffffffff\n      and\n      mul\n      or\n      swap1\n      sstore\n      pop\n      0x20\n      dup3\n      add\n      mload\n      dup2\n      0x01\n      add\n      swap1\n      dup2\n      tag_43\n      swap2\n      swap1\n      tag_41\n      jump\t// in\n    tag_43:\n      pop\n      pop\n      pop\n        /* \"Practice_1/1_Greeter.sol\":617:853  function setGreeting(string memory _greeting) public {... */\n      pop\n      jump\t// out\n        /* \"Practice_1/1_Greeter.sol\":901:995  function greet() view public returns (string memory) {... */\n    tag_17:\n        /* \"Practice_1/1_Greeter.sol\":939:952  string memory */\n      0x60\n        /* \"Practice_1/1_Greeter.sol\":977:985  greeting */\n      0x00\n        /* \"Practice_1/1_Greeter.sol\":970:985  return greeting */\n      dup1\n      sload\n      tag_45\n      swap1\n      tag_34\n      jump\t// in\n    tag_45:\n      dup1\n      0x1f\n      add\n      0x20\n      dup1\n      swap2\n      div\n      mul\n      0x20\n      add\n      mload(0x40)\n      swap1\n      dup2\n      add\n      0x40\n      mstore\n      dup1\n      swap3\n      swap2\n      swap1\n      dup2\n      dup2\n      mstore\n      0x20\n      add\n      dup3\n      dup1\n      sload\n      tag_46\n      swap1\n      tag_34\n      jump\t// in\n    tag_46:\n      dup1\n      iszero\n      tag_47\n      jumpi\n      dup1\n      0x1f\n      lt\n      tag_48\n      jumpi\n      0x0100\n      dup1\n      dup4\n      sload\n      div\n      mul\n      dup4\n      mstore\n      swap2\n      0x20\n      add\n      swap2\n      jump(tag_47)\n    tag_48:\n      dup3\n      add\n      swap2\n      swap1\n      0x00\n      mstore\n      keccak256(0x00, 0x20)\n      swap1\n    tag_49:\n      dup2\n      sload\n      dup2\n      mstore\n      swap1\n      0x01\n      add\n      swap1\n      0x20\n      add\n      dup1\n      dup4\n      gt\n      tag_49\n      jumpi\n      dup3\n      swap1\n      sub\n      0x1f\n      and\n      dup3\n      add\n      swap2\n    tag_47:\n      pop\n      pop\n      pop\n      pop\n      pop\n      swap1\n      pop\n        /* \"Practice_1/1_Greeter.sol\":901:995  function greet() view public returns (string memory) {... */\n      swap1\n      jump\t// out\n        /* \"Practice_1/1_Greeter.sol\":93:115  string public greeting */\n    tag_21:\n      0x00\n      dup1\n      sload\n      tag_50\n      swap1\n      tag_34\n      jump\t// in\n    tag_50:\n      dup1\n      0x1f\n      add\n      0x20\n      dup1\n      swap2\n      div\n      mul\n      0x20\n      add\n      mload(0x40)\n      swap1\n      dup2\n      add\n      0x40\n      mstore\n      dup1\n      swap3\n      swap2\n      swap1\n      dup2\n      dup2\n      mstore\n      0x20\n      add\n      dup3\n      dup1\n      sload\n      tag_51\n      swap1\n      tag_34\n      jump\t// in\n    tag_51:\n      dup1\n      iszero\n      tag_52\n      jumpi\n      dup1\n      0x1f\n      lt\n      tag_53\n      jumpi\n      0x0100\n      dup1\n      dup4\n      sload\n      div\n      mul\n      dup4\n      mstore\n      swap2\n      0x20\n      add\n      swap2\n      jump(tag_52)\n    tag_53:\n      dup3\n      add\n      swap2\n      swap1\n      0x00\n      mstore\n      keccak256(0x00, 0x20)\n      swap1\n    tag_54:\n      dup2\n      sload\n      dup2\n      mstore\n      swap1\n      0x01\n      add\n      swap1\n      0x20\n      add\n      dup1\n      dup4\n      gt\n      tag_54\n      jumpi\n      dup3\n      swap1\n      sub\n      0x1f\n      and\n      dup3\n      add\n      swap2\n    tag_52:\n      pop\n      pop\n      pop\n      pop\n      pop\n      dup2\n      jump\t// out\n        /* \"Practice_1/1_Greeter.sol\":204:231  Greeting[] public greetings */\n    tag_26:\n      0x01\n      dup2\n      dup2\n      sload\n      dup2\n      lt\n      tag_55\n      jumpi\n      0x00\n      dup1\n      revert\n    tag_55:\n      swap1\n      0x00\n      mstore\n      keccak256(0x00, 0x20)\n      swap1\n      0x02\n      mul\n      add\n      0x00\n      swap2\n      pop\n      swap1\n      pop\n      dup1\n      0x00\n      add\n      0x00\n      swap1\n      sload\n      swap1\n      0x0100\n      exp\n      swap1\n      div\n      0xffffffffffffffffffffffffffffffffffffffff\n      and\n      swap1\n      dup1\n      0x01\n      add\n      dup1\n      sload\n      tag_57\n      swap1\n      tag_34\n      jump\t// in\n    tag_57:\n      dup1\n      0x1f\n      add\n      0x20\n      dup1\n      swap2\n      div\n      mul\n      0x20\n      add\n      mload(0x40)\n      swap1\n      dup2\n      add\n      0x40\n      mstore\n      dup1\n      swap3\n      swap2\n      swap1\n      dup2\n      dup2\n      mstore\n      0x20\n      add\n      dup3\n      dup1\n      sload\n      tag_58\n      swap1\n      tag_34\n      jump\t// in\n    tag_58:\n      dup1\n      iszero\n      tag_59\n      jumpi\n      dup1\n      0x1f\n      lt\n      tag_60\n      jumpi\n      0x0100\n      dup1\n      dup4\n      sload\n      div\n      mul\n      dup4\n      mstore\n      swap2\n      0x20\n      add\n      swap2\n      jump(tag_59)\n    tag_60:\n      dup3\n      add\n      swap2\n      swap1\n      0x00\n      mstore\n      keccak256(0x00, 0x20)\n      swap1\n    tag_61:\n      dup2\n      sload\n      dup2\n      mstore\n      swap1\n      0x01\n      add\n      swap1\n      0x20\n      add\n      dup1\n      dup4\n      gt\n      tag_61\n      jumpi\n      dup3\n      swap1\n      sub\n      0x1f\n      and\n      dup3\n      add\n      swap2\n    tag_59:\n      pop\n      pop\n      pop\n      pop\n      pop\n      swap1\n      pop\n      dup3\n      jump\t// out\n        /* \"#utility.yul\":7:144   */\n    tag_62:\n        /* \"#utility.yul\":97:103   */\n      0x00\n        /* \"#utility.yul\":131:136   */\n      dup2\n        /* \"#utility.yul\":125:137   */\n      mload\n        /* \"#utility.yul\":115:137   */\n      swap1\n      pop\n        /* \"#utility.yul\":7:144   */\n      swap2\n      swap1\n      pop\n      jump\t// out\n        /* \"#utility.yul\":150:357   */\n    tag_63:\n        /* \"#utility.yul\":272:283   */\n      0x00\n        /* \"#utility.yul\":306:312   */\n      dup3\n        /* \"#utility.yul\":301:304   */\n      dup3\n        /* \"#utility.yul\":294:313   */\n      mstore\n        /* \"#utility.yul\":346:350   */\n      0x20\n        /* \"#utility.yul\":341:344   */\n      dup3\n        /* \"#utility.yul\":337:351   */\n      add\n        /* \"#utility.yul\":322:351   */\n      swap1\n      pop\n        /* \"#utility.yul\":150:357   */\n      swap3\n      swap2\n      pop\n      pop\n      jump\t// out\n        /* \"#utility.yul\":363:518   */\n    tag_64:\n        /* \"#utility.yul\":453:457   */\n      0x00\n        /* \"#utility.yul\":476:479   */\n      dup2\n        /* \"#utility.yul\":468:479   */\n      swap1\n      pop\n        /* \"#utility.yul\":506:510   */\n      0x20\n        /* \"#utility.yul\":501:504   */\n      dup3\n        /* \"#utility.yul\":497:511   */\n      add\n        /* \"#utility.yul\":489:511   */\n      swap1\n      pop\n        /* \"#utility.yul\":363:518   */\n      swap2\n      swap1\n      pop\n      jump\t// out\n        /* \"#utility.yul\":524:650   */\n    tag_65:\n        /* \"#utility.yul\":561:568   */\n      0x00\n        /* \"#utility.yul\":601:643   */\n      0xffffffffffffffffffffffffffffffffffffffff\n        /* \"#utility.yul\":594:599   */\n      dup3\n        /* \"#utility.yul\":590:644   */\n      and\n        /* \"#utility.yul\":579:644   */\n      swap1\n      pop\n        /* \"#utility.yul\":524:650   */\n      swap2\n      swap1\n      pop\n      jump\t// out\n        /* \"#utility.yul\":656:752   */\n    tag_66:\n        /* \"#utility.yul\":693:700   */\n      0x00\n        /* \"#utility.yul\":722:746   */\n      tag_117\n        /* \"#utility.yul\":740:745   */\n      dup3\n        /* \"#utility.yul\":722:746   */\n      tag_65\n      jump\t// in\n    tag_117:\n        /* \"#utility.yul\":711:746   */\n      swap1\n      pop\n        /* \"#utility.yul\":656:752   */\n      swap2\n      swap1\n      pop\n      jump\t// out\n        /* \"#utility.yul\":758:866   */\n    tag_67:\n        /* \"#utility.yul\":835:859   */\n      tag_119\n        /* \"#utility.yul\":853:858   */\n      dup2\n        /* \"#utility.yul\":835:859   */\n      tag_66\n      jump\t// in\n    tag_119:\n        /* \"#utility.yul\":830:833   */\n      dup3\n        /* \"#utility.yul\":823:860   */\n      mstore\n        /* \"#utility.yul\":758:866   */\n      pop\n      pop\n      jump\t// out\n        /* \"#utility.yul\":872:971   */\n    tag_68:\n        /* \"#utility.yul\":924:930   */\n      0x00\n        /* \"#utility.yul\":958:963   */\n      dup2\n        /* \"#utility.yul\":952:964   */\n      mload\n        /* \"#utility.yul\":942:964   */\n      swap1\n      pop\n        /* \"#utility.yul\":872:971   */\n      swap2\n      swap1\n      pop\n      jump\t// out\n        /* \"#utility.yul\":977:1136   */\n    tag_69:\n        /* \"#utility.yul\":1051:1062   */\n      0x00\n        /* \"#utility.yul\":1085:1091   */\n      dup3\n        /* \"#utility.yul\":1080:1083   */\n      dup3\n        /* \"#utility.yul\":1073:1092   */\n      mstore\n        /* \"#utility.yul\":1125:1129   */\n      0x20\n        /* \"#utility.yul\":1120:1123   */\n      dup3\n        /* \"#utility.yul\":1116:1130   */\n      add\n        /* \"#utility.yul\":1101:1130   */\n      swap1\n      pop\n        /* \"#utility.yul\":977:1136   */\n      swap3\n      swap2\n      pop\n      pop\n      jump\t// out\n        /* \"#utility.yul\":1142:1388   */\n    tag_70:\n        /* \"#utility.yul\":1223:1224   */\n      0x00\n        /* \"#utility.yul\":1233:1346   */\n    tag_123:\n        /* \"#utility.yul\":1247:1253   */\n      dup4\n        /* \"#utility.yul\":1244:1245   */\n      dup2\n        /* \"#utility.yul\":1241:1254   */\n      lt\n        /* \"#utility.yul\":1233:1346   */\n      iszero\n      tag_125\n      jumpi\n        /* \"#utility.yul\":1332:1333   */\n      dup1\n        /* \"#utility.yul\":1327:1330   */\n      dup3\n        /* \"#utility.yul\":1323:1334   */\n      add\n        /* \"#utility.yul\":1317:1335   */\n      mload\n        /* \"#utility.yul\":1313:1314   */\n      dup2\n        /* \"#utility.yul\":1308:1311   */\n      dup5\n        /* \"#utility.yul\":1304:1315   */\n      add\n        /* \"#utility.yul\":1297:1336   */\n      mstore\n        /* \"#utility.yul\":1269:1271   */\n      0x20\n        /* \"#utility.yul\":1266:1267   */\n      dup2\n        /* \"#utility.yul\":1262:1272   */\n      add\n        /* \"#utility.yul\":1257:1272   */\n      swap1\n      pop\n        /* \"#utility.yul\":1233:1346   */\n      jump(tag_123)\n    tag_125:\n        /* \"#utility.yul\":1380:1381   */\n      0x00\n        /* \"#utility.yul\":1371:1377   */\n      dup5\n        /* \"#utility.yul\":1366:1369   */\n      dup5\n        /* \"#utility.yul\":1362:1378   */\n      add\n        /* \"#utility.yul\":1355:1382   */\n      mstore\n        /* \"#utility.yul\":1204:1388   */\n      pop\n        /* \"#utility.yul\":1142:1388   */\n      pop\n      pop\n      pop\n      jump\t// out\n        /* \"#utility.yul\":1394:1496   */\n    tag_71:\n        /* \"#utility.yul\":1435:1441   */\n      0x00\n        /* \"#utility.yul\":1486:1488   */\n      0x1f\n        /* \"#utility.yul\":1482:1489   */\n      not\n        /* \"#utility.yul\":1477:1479   */\n      0x1f\n        /* \"#utility.yul\":1470:1475   */\n      dup4\n        /* \"#utility.yul\":1466:1480   */\n      add\n        /* \"#utility.yul\":1462:1490   */\n      and\n        /* \"#utility.yul\":1452:1490   */\n      swap1\n      pop\n        /* \"#utility.yul\":1394:1496   */\n      swap2\n      swap1\n      pop\n      jump\t// out\n        /* \"#utility.yul\":1502:1859   */\n    tag_72:\n        /* \"#utility.yul\":1580:1583   */\n      0x00\n        /* \"#utility.yul\":1608:1647   */\n      tag_128\n        /* \"#utility.yul\":1641:1646   */\n      dup3\n        /* \"#utility.yul\":1608:1647   */\n      tag_68\n      jump\t// in\n    tag_128:\n        /* \"#utility.yul\":1663:1724   */\n      tag_129\n        /* \"#utility.yul\":1717:1723   */\n      dup2\n        /* \"#utility.yul\":1712:1715   */\n      dup6\n        /* \"#utility.yul\":1663:1724   */\n      tag_69\n      jump\t// in\n    tag_129:\n        /* \"#utility.yul\":1656:1724   */\n      swap4\n      pop\n        /* \"#utility.yul\":1733:1798   */\n      tag_130\n        /* \"#utility.yul\":1791:1797   */\n      dup2\n        /* \"#utility.yul\":1786:1789   */\n      dup6\n        /* \"#utility.yul\":1779:1783   */\n      0x20\n        /* \"#utility.yul\":1772:1777   */\n      dup7\n        /* \"#utility.yul\":1768:1784   */\n      add\n        /* \"#utility.yul\":1733:1798   */\n      tag_70\n      jump\t// in\n    tag_130:\n        /* \"#utility.yul\":1823:1852   */\n      tag_131\n        /* \"#utility.yul\":1845:1851   */\n      dup2\n        /* \"#utility.yul\":1823:1852   */\n      tag_71\n      jump\t// in\n    tag_131:\n        /* \"#utility.yul\":1818:1821   */\n      dup5\n        /* \"#utility.yul\":1814:1853   */\n      add\n        /* \"#utility.yul\":1807:1853   */\n      swap2\n      pop\n        /* \"#utility.yul\":1584:1859   */\n      pop\n        /* \"#utility.yul\":1502:1859   */\n      swap3\n      swap2\n      pop\n      pop\n      jump\t// out\n        /* \"#utility.yul\":1923:2520   */\n    tag_73:\n        /* \"#utility.yul\":2028:2031   */\n      0x00\n        /* \"#utility.yul\":2064:2068   */\n      0x40\n        /* \"#utility.yul\":2059:2062   */\n      dup4\n        /* \"#utility.yul\":2055:2069   */\n      add\n        /* \"#utility.yul\":2153:2157   */\n      0x00\n        /* \"#utility.yul\":2146:2151   */\n      dup4\n        /* \"#utility.yul\":2142:2158   */\n      add\n        /* \"#utility.yul\":2136:2159   */\n      mload\n        /* \"#utility.yul\":2172:2235   */\n      tag_133\n        /* \"#utility.yul\":2229:2233   */\n      0x00\n        /* \"#utility.yul\":2224:2227   */\n      dup7\n        /* \"#utility.yul\":2220:2234   */\n      add\n        /* \"#utility.yul\":2206:2218   */\n      dup3\n        /* \"#utility.yul\":2172:2235   */\n      tag_67\n      jump\t// in\n    tag_133:\n        /* \"#utility.yul\":2079:2245   */\n      pop\n        /* \"#utility.yul\":2330:2334   */\n      0x20\n        /* \"#utility.yul\":2323:2328   */\n      dup4\n        /* \"#utility.yul\":2319:2335   */\n      add\n        /* \"#utility.yul\":2313:2336   */\n      mload\n        /* \"#utility.yul\":2383:2386   */\n      dup5\n        /* \"#utility.yul\":2377:2381   */\n      dup3\n        /* \"#utility.yul\":2373:2387   */\n      sub\n        /* \"#utility.yul\":2366:2370   */\n      0x20\n        /* \"#utility.yul\":2361:2364   */\n      dup7\n        /* \"#utility.yul\":2357:2371   */\n      add\n        /* \"#utility.yul\":2350:2388   */\n      mstore\n        /* \"#utility.yul\":2409:2482   */\n      tag_134\n        /* \"#utility.yul\":2477:2481   */\n      dup3\n        /* \"#utility.yul\":2463:2475   */\n      dup3\n        /* \"#utility.yul\":2409:2482   */\n      tag_72\n      jump\t// in\n    tag_134:\n        /* \"#utility.yul\":2401:2482   */\n      swap2\n      pop\n        /* \"#utility.yul\":2255:2493   */\n      pop\n        /* \"#utility.yul\":2510:2514   */\n      dup1\n        /* \"#utility.yul\":2503:2514   */\n      swap2\n      pop\n        /* \"#utility.yul\":2033:2520   */\n      pop\n        /* \"#utility.yul\":1923:2520   */\n      swap3\n      swap2\n      pop\n      pop\n      jump\t// out\n        /* \"#utility.yul\":2526:2774   */\n    tag_74:\n        /* \"#utility.yul\":2641:2651   */\n      0x00\n        /* \"#utility.yul\":2676:2768   */\n      tag_136\n        /* \"#utility.yul\":2764:2767   */\n      dup4\n        /* \"#utility.yul\":2756:2762   */\n      dup4\n        /* \"#utility.yul\":2676:2768   */\n      tag_73\n      jump\t// in\n    tag_136:\n        /* \"#utility.yul\":2662:2768   */\n      swap1\n      pop\n        /* \"#utility.yul\":2526:2774   */\n      swap3\n      swap2\n      pop\n      pop\n      jump\t// out\n        /* \"#utility.yul\":2780:2916   */\n    tag_75:\n        /* \"#utility.yul\":2873:2877   */\n      0x00\n        /* \"#utility.yul\":2905:2909   */\n      0x20\n        /* \"#utility.yul\":2900:2903   */\n      dup3\n        /* \"#utility.yul\":2896:2910   */\n      add\n        /* \"#utility.yul\":2888:2910   */\n      swap1\n      pop\n        /* \"#utility.yul\":2780:2916   */\n      swap2\n      swap1\n      pop\n      jump\t// out\n        /* \"#utility.yul\":2984:4079   */\n    tag_76:\n        /* \"#utility.yul\":3149:3152   */\n      0x00\n        /* \"#utility.yul\":3178:3255   */\n      tag_139\n        /* \"#utility.yul\":3249:3254   */\n      dup3\n        /* \"#utility.yul\":3178:3255   */\n      tag_62\n      jump\t// in\n    tag_139:\n        /* \"#utility.yul\":3271:3380   */\n      tag_140\n        /* \"#utility.yul\":3373:3379   */\n      dup2\n        /* \"#utility.yul\":3368:3371   */\n      dup6\n        /* \"#utility.yul\":3271:3380   */\n      tag_63\n      jump\t// in\n    tag_140:\n        /* \"#utility.yul\":3264:3380   */\n      swap4\n      pop\n        /* \"#utility.yul\":3406:3409   */\n      dup4\n        /* \"#utility.yul\":3451:3455   */\n      0x20\n        /* \"#utility.yul\":3443:3449   */\n      dup3\n        /* \"#utility.yul\":3439:3456   */\n      mul\n        /* \"#utility.yul\":3434:3437   */\n      dup6\n        /* \"#utility.yul\":3430:3457   */\n      add\n        /* \"#utility.yul\":3481:3560   */\n      tag_141\n        /* \"#utility.yul\":3554:3559   */\n      dup6\n        /* \"#utility.yul\":3481:3560   */\n      tag_64\n      jump\t// in\n    tag_141:\n        /* \"#utility.yul\":3583:3590   */\n      dup1\n        /* \"#utility.yul\":3614:3615   */\n      0x00\n        /* \"#utility.yul\":3599:4034   */\n    tag_142:\n        /* \"#utility.yul\":3624:3630   */\n      dup6\n        /* \"#utility.yul\":3621:3622   */\n      dup2\n        /* \"#utility.yul\":3618:3631   */\n      lt\n        /* \"#utility.yul\":3599:4034   */\n      iszero\n      tag_144\n      jumpi\n        /* \"#utility.yul\":3695:3704   */\n      dup5\n        /* \"#utility.yul\":3689:3693   */\n      dup5\n        /* \"#utility.yul\":3685:3705   */\n      sub\n        /* \"#utility.yul\":3680:3683   */\n      dup10\n        /* \"#utility.yul\":3673:3706   */\n      mstore\n        /* \"#utility.yul\":3746:3752   */\n      dup2\n        /* \"#utility.yul\":3740:3753   */\n      mload\n        /* \"#utility.yul\":3774:3884   */\n      tag_145\n        /* \"#utility.yul\":3879:3883   */\n      dup6\n        /* \"#utility.yul\":3864:3877   */\n      dup3\n        /* \"#utility.yul\":3774:3884   */\n      tag_74\n      jump\t// in\n    tag_145:\n        /* \"#utility.yul\":3766:3884   */\n      swap5\n      pop\n        /* \"#utility.yul\":3907:3990   */\n      tag_146\n        /* \"#utility.yul\":3983:3989   */\n      dup4\n        /* \"#utility.yul\":3907:3990   */\n      tag_75\n      jump\t// in\n    tag_146:\n        /* \"#utility.yul\":3897:3990   */\n      swap3\n      pop\n        /* \"#utility.yul\":4019:4023   */\n      0x20\n        /* \"#utility.yul\":4014:4017   */\n      dup11\n        /* \"#utility.yul\":4010:4024   */\n      add\n        /* \"#utility.yul\":4003:4024   */\n      swap10\n      pop\n        /* \"#utility.yul\":3659:4034   */\n      pop\n        /* \"#utility.yul\":3646:3647   */\n      0x01\n        /* \"#utility.yul\":3643:3644   */\n      dup2\n        /* \"#utility.yul\":3639:3648   */\n      add\n        /* \"#utility.yul\":3634:3648   */\n      swap1\n      pop\n        /* \"#utility.yul\":3599:4034   */\n      jump(tag_142)\n    tag_144:\n        /* \"#utility.yul\":3603:3617   */\n      pop\n        /* \"#utility.yul\":4050:4054   */\n      dup3\n        /* \"#utility.yul\":4043:4054   */\n      swap8\n      pop\n        /* \"#utility.yul\":4070:4073   */\n      dup8\n        /* \"#utility.yul\":4063:4073   */\n      swap6\n      pop\n        /* \"#utility.yul\":3154:4079   */\n      pop\n      pop\n      pop\n      pop\n      pop\n        /* \"#utility.yul\":2984:4079   */\n      swap3\n      swap2\n      pop\n      pop\n      jump\t// out\n        /* \"#utility.yul\":4085:4550   */\n    tag_11:\n        /* \"#utility.yul\":4274:4278   */\n      0x00\n        /* \"#utility.yul\":4312:4314   */\n      0x20\n        /* \"#utility.yul\":4301:4310   */\n      dup3\n        /* \"#utility.yul\":4297:4315   */\n      add\n        /* \"#utility.yul\":4289:4315   */\n      swap1\n      pop\n        /* \"#utility.yul\":4361:4370   */\n      dup2\n        /* \"#utility.yul\":4355:4359   */\n      dup2\n        /* \"#utility.yul\":4351:4371   */\n      sub\n        /* \"#utility.yul\":4347:4348   */\n      0x00\n        /* \"#utility.yul\":4336:4345   */\n      dup4\n        /* \"#utility.yul\":4332:4349   */\n      add\n        /* \"#utility.yul\":4325:4372   */\n      mstore\n        /* \"#utility.yul\":4389:4543   */\n      tag_148\n        /* \"#utility.yul\":4538:4542   */\n      dup2\n        /* \"#utility.yul\":4529:4535   */\n      dup5\n        /* \"#utility.yul\":4389:4543   */\n      tag_76\n      jump\t// in\n    tag_148:\n        /* \"#utility.yul\":4381:4543   */\n      swap1\n      pop\n        /* \"#utility.yul\":4085:4550   */\n      swap3\n      swap2\n      pop\n      pop\n      jump\t// out\n        /* \"#utility.yul\":4556:4631   */\n    tag_77:\n        /* \"#utility.yul\":4589:4595   */\n      0x00\n        /* \"#utility.yul\":4622:4624   */\n      0x40\n        /* \"#utility.yul\":4616:4625   */\n      mload\n        /* \"#utility.yul\":4606:4625   */\n      swap1\n      pop\n        /* \"#utility.yul\":4556:4631   */\n      swap1\n      jump\t// out\n        /* \"#utility.yul\":4637:4754   */\n    tag_78:\n        /* \"#utility.yul\":4746:4747   */\n      0x00\n        /* \"#utility.yul\":4743:4744   */\n      dup1\n        /* \"#utility.yul\":4736:4748   */\n      revert\n        /* \"#utility.yul\":4760:4877   */\n    tag_79:\n        /* \"#utility.yul\":4869:4870   */\n      0x00\n        /* \"#utility.yul\":4866:4867   */\n      dup1\n        /* \"#utility.yul\":4859:4871   */\n      revert\n        /* \"#utility.yul\":4883:5000   */\n    tag_80:\n        /* \"#utility.yul\":4992:4993   */\n      0x00\n        /* \"#utility.yul\":4989:4990   */\n      dup1\n        /* \"#utility.yul\":4982:4994   */\n      revert\n        /* \"#utility.yul\":5006:5123   */\n    tag_81:\n        /* \"#utility.yul\":5115:5116   */\n      0x00\n        /* \"#utility.yul\":5112:5113   */\n      dup1\n        /* \"#utility.yul\":5105:5117   */\n      revert\n        /* \"#utility.yul\":5129:5309   */\n    tag_82:\n        /* \"#utility.yul\":5177:5254   */\n      0x4e487b7100000000000000000000000000000000000000000000000000000000\n        /* \"#utility.yul\":5174:5175   */\n      0x00\n        /* \"#utility.yul\":5167:5255   */\n      mstore\n        /* \"#utility.yul\":5274:5278   */\n      0x41\n        /* \"#utility.yul\":5271:5272   */\n      0x04\n        /* \"#utility.yul\":5264:5279   */\n      mstore\n        /* \"#utility.yul\":5298:5302   */\n      0x24\n        /* \"#utility.yul\":5295:5296   */\n      0x00\n        /* \"#utility.yul\":5288:5303   */\n      revert\n        /* \"#utility.yul\":5315:5596   */\n    tag_83:\n        /* \"#utility.yul\":5398:5425   */\n      tag_156\n        /* \"#utility.yul\":5420:5424   */\n      dup3\n        /* \"#utility.yul\":5398:5425   */\n      tag_71\n      jump\t// in\n    tag_156:\n        /* \"#utility.yul\":5390:5396   */\n      dup2\n        /* \"#utility.yul\":5386:5426   */\n      add\n        /* \"#utility.yul\":5528:5534   */\n      dup2\n        /* \"#utility.yul\":5516:5526   */\n      dup2\n        /* \"#utility.yul\":5513:5535   */\n      lt\n        /* \"#utility.yul\":5492:5510   */\n      0xffffffffffffffff\n        /* \"#utility.yul\":5480:5490   */\n      dup3\n        /* \"#utility.yul\":5477:5511   */\n      gt\n        /* \"#utility.yul\":5474:5536   */\n      or\n        /* \"#utility.yul\":5471:5559   */\n      iszero\n      tag_157\n      jumpi\n        /* \"#utility.yul\":5539:5557   */\n      tag_158\n      tag_82\n      jump\t// in\n    tag_158:\n        /* \"#utility.yul\":5471:5559   */\n    tag_157:\n        /* \"#utility.yul\":5579:5589   */\n      dup1\n        /* \"#utility.yul\":5575:5577   */\n      0x40\n        /* \"#utility.yul\":5568:5590   */\n      mstore\n        /* \"#utility.yul\":5358:5596   */\n      pop\n        /* \"#utility.yul\":5315:5596   */\n      pop\n      pop\n      jump\t// out\n        /* \"#utility.yul\":5602:5731   */\n    tag_84:\n        /* \"#utility.yul\":5636:5642   */\n      0x00\n        /* \"#utility.yul\":5663:5683   */\n      tag_160\n      tag_77\n      jump\t// in\n    tag_160:\n        /* \"#utility.yul\":5653:5683   */\n      swap1\n      pop\n        /* \"#utility.yul\":5692:5725   */\n      tag_161\n        /* \"#utility.yul\":5720:5724   */\n      dup3\n        /* \"#utility.yul\":5712:5718   */\n      dup3\n        /* \"#utility.yul\":5692:5725   */\n      tag_83\n      jump\t// in\n    tag_161:\n        /* \"#utility.yul\":5602:5731   */\n      swap2\n      swap1\n      pop\n      jump\t// out\n        /* \"#utility.yul\":5737:6045   */\n    tag_85:\n        /* \"#utility.yul\":5799:5803   */\n      0x00\n        /* \"#utility.yul\":5889:5907   */\n      0xffffffffffffffff\n        /* \"#utility.yul\":5881:5887   */\n      dup3\n        /* \"#utility.yul\":5878:5908   */\n      gt\n        /* \"#utility.yul\":5875:5931   */\n      iszero\n      tag_163\n      jumpi\n        /* \"#utility.yul\":5911:5929   */\n      tag_164\n      tag_82\n      jump\t// in\n    tag_164:\n        /* \"#utility.yul\":5875:5931   */\n    tag_163:\n        /* \"#utility.yul\":5949:5978   */\n      tag_165\n        /* \"#utility.yul\":5971:5977   */\n      dup3\n        /* \"#utility.yul\":5949:5978   */\n      tag_71\n      jump\t// in\n    tag_165:\n        /* \"#utility.yul\":5941:5978   */\n      swap1\n      pop\n        /* \"#utility.yul\":6033:6037   */\n      0x20\n        /* \"#utility.yul\":6027:6031   */\n      dup2\n        /* \"#utility.yul\":6023:6038   */\n      add\n        /* \"#utility.yul\":6015:6038   */\n      swap1\n      pop\n        /* \"#utility.yul\":5737:6045   */\n      swap2\n      swap1\n      pop\n      jump\t// out\n        /* \"#utility.yul\":6051:6197   */\n    tag_86:\n        /* \"#utility.yul\":6148:6154   */\n      dup3\n        /* \"#utility.yul\":6143:6146   */\n      dup2\n        /* \"#utility.yul\":6138:6141   */\n      dup4\n        /* \"#utility.yul\":6125:6155   */\n      calldatacopy\n        /* \"#utility.yul\":6189:6190   */\n      0x00\n        /* \"#utility.yul\":6180:6186   */\n      dup4\n        /* \"#utility.yul\":6175:6178   */\n      dup4\n        /* \"#utility.yul\":6171:6187   */\n      add\n        /* \"#utility.yul\":6164:6191   */\n      mstore\n        /* \"#utility.yul\":6051:6197   */\n      pop\n      pop\n      pop\n      jump\t// out\n        /* \"#utility.yul\":6203:6628   */\n    tag_87:\n        /* \"#utility.yul\":6281:6286   */\n      0x00\n        /* \"#utility.yul\":6306:6372   */\n      tag_168\n        /* \"#utility.yul\":6322:6371   */\n      tag_169\n        /* \"#utility.yul\":6364:6370   */\n      dup5\n        /* \"#utility.yul\":6322:6371   */\n      tag_85\n      jump\t// in\n    tag_169:\n        /* \"#utility.yul\":6306:6372   */\n      tag_84\n      jump\t// in\n    tag_168:\n        /* \"#utility.yul\":6297:6372   */\n      swap1\n      pop\n        /* \"#utility.yul\":6395:6401   */\n      dup3\n        /* \"#utility.yul\":6388:6393   */\n      dup2\n        /* \"#utility.yul\":6381:6402   */\n      mstore\n        /* \"#utility.yul\":6433:6437   */\n      0x20\n        /* \"#utility.yul\":6426:6431   */\n      dup2\n        /* \"#utility.yul\":6422:6438   */\n      add\n        /* \"#utility.yul\":6471:6474   */\n      dup5\n        /* \"#utility.yul\":6462:6468   */\n      dup5\n        /* \"#utility.yul\":6457:6460   */\n      dup5\n        /* \"#utility.yul\":6453:6469   */\n      add\n        /* \"#utility.yul\":6450:6475   */\n      gt\n        /* \"#utility.yul\":6447:6559   */\n      iszero\n      tag_170\n      jumpi\n        /* \"#utility.yul\":6478:6557   */\n      tag_171\n      tag_81\n      jump\t// in\n    tag_171:\n        /* \"#utility.yul\":6447:6559   */\n    tag_170:\n        /* \"#utility.yul\":6568:6622   */\n      tag_172\n        /* \"#utility.yul\":6615:6621   */\n      dup5\n        /* \"#utility.yul\":6610:6613   */\n      dup3\n        /* \"#utility.yul\":6605:6608   */\n      dup6\n        /* \"#utility.yul\":6568:6622   */\n      tag_86\n      jump\t// in\n    tag_172:\n        /* \"#utility.yul\":6287:6628   */\n      pop\n        /* \"#utility.yul\":6203:6628   */\n      swap4\n      swap3\n      pop\n      pop\n      pop\n      jump\t// out\n        /* \"#utility.yul\":6648:6988   */\n    tag_88:\n        /* \"#utility.yul\":6704:6709   */\n      0x00\n        /* \"#utility.yul\":6753:6756   */\n      dup3\n        /* \"#utility.yul\":6746:6750   */\n      0x1f\n        /* \"#utility.yul\":6738:6744   */\n      dup4\n        /* \"#utility.yul\":6734:6751   */\n      add\n        /* \"#utility.yul\":6730:6757   */\n      slt\n        /* \"#utility.yul\":6720:6842   */\n      tag_174\n      jumpi\n        /* \"#utility.yul\":6761:6840   */\n      tag_175\n      tag_80\n      jump\t// in\n    tag_175:\n        /* \"#utility.yul\":6720:6842   */\n    tag_174:\n        /* \"#utility.yul\":6878:6884   */\n      dup2\n        /* \"#utility.yul\":6865:6885   */\n      calldataload\n        /* \"#utility.yul\":6903:6982   */\n      tag_176\n        /* \"#utility.yul\":6978:6981   */\n      dup5\n        /* \"#utility.yul\":6970:6976   */\n      dup3\n        /* \"#utility.yul\":6963:6967   */\n      0x20\n        /* \"#utility.yul\":6955:6961   */\n      dup7\n        /* \"#utility.yul\":6951:6968   */\n      add\n        /* \"#utility.yul\":6903:6982   */\n      tag_87\n      jump\t// in\n    tag_176:\n        /* \"#utility.yul\":6894:6982   */\n      swap2\n      pop\n        /* \"#utility.yul\":6710:6988   */\n      pop\n        /* \"#utility.yul\":6648:6988   */\n      swap3\n      swap2\n      pop\n      pop\n      jump\t// out\n        /* \"#utility.yul\":6994:7503   */\n    tag_14:\n        /* \"#utility.yul\":7063:7069   */\n      0x00\n        /* \"#utility.yul\":7112:7114   */\n      0x20\n        /* \"#utility.yul\":7100:7109   */\n      dup3\n        /* \"#utility.yul\":7091:7098   */\n      dup5\n        /* \"#utility.yul\":7087:7110   */\n      sub\n        /* \"#utility.yul\":7083:7115   */\n      slt\n        /* \"#utility.yul\":7080:7199   */\n      iszero\n      tag_178\n      jumpi\n        /* \"#utility.yul\":7118:7197   */\n      tag_179\n      tag_78\n      jump\t// in\n    tag_179:\n        /* \"#utility.yul\":7080:7199   */\n    tag_178:\n        /* \"#utility.yul\":7266:7267   */\n      0x00\n        /* \"#utility.yul\":7255:7264   */\n      dup3\n        /* \"#utility.yul\":7251:7268   */\n      add\n        /* \"#utility.yul\":7238:7269   */\n      calldataload\n        /* \"#utility.yul\":7296:7314   */\n      0xffffffffffffffff\n        /* \"#utility.yul\":7288:7294   */\n      dup2\n        /* \"#utility.yul\":7285:7315   */\n      gt\n        /* \"#utility.yul\":7282:7399   */\n      iszero\n      tag_180\n      jumpi\n        /* \"#utility.yul\":7318:7397   */\n      tag_181\n      tag_79\n      jump\t// in\n    tag_181:\n        /* \"#utility.yul\":7282:7399   */\n    tag_180:\n        /* \"#utility.yul\":7423:7486   */\n      tag_182\n        /* \"#utility.yul\":7478:7485   */\n      dup5\n        /* \"#utility.yul\":7469:7475   */\n      dup3\n        /* \"#utility.yul\":7458:7467   */\n      dup6\n        /* \"#utility.yul\":7454:7476   */\n      add\n        /* \"#utility.yul\":7423:7486   */\n      tag_88\n      jump\t// in\n    tag_182:\n        /* \"#utility.yul\":7413:7486   */\n      swap2\n      pop\n        /* \"#utility.yul\":7209:7496   */\n      pop\n        /* \"#utility.yul\":6994:7503   */\n      swap3\n      swap2\n      pop\n      pop\n      jump\t// out\n        /* \"#utility.yul\":7509:7678   */\n    tag_89:\n        /* \"#utility.yul\":7593:7604   */\n      0x00\n        /* \"#utility.yul\":7627:7633   */\n      dup3\n        /* \"#utility.yul\":7622:7625   */\n      dup3\n        /* \"#utility.yul\":7615:7634   */\n      mstore\n        /* \"#utility.yul\":7667:7671   */\n      0x20\n        /* \"#utility.yul\":7662:7665   */\n      dup3\n        /* \"#utility.yul\":7658:7672   */\n      add\n        /* \"#utility.yul\":7643:7672   */\n      swap1\n      pop\n        /* \"#utility.yul\":7509:7678   */\n      swap3\n      swap2\n      pop\n      pop\n      jump\t// out\n        /* \"#utility.yul\":7684:8061   */\n    tag_90:\n        /* \"#utility.yul\":7772:7775   */\n      0x00\n        /* \"#utility.yul\":7800:7839   */\n      tag_185\n        /* \"#utility.yul\":7833:7838   */\n      dup3\n        /* \"#utility.yul\":7800:7839   */\n      tag_68\n      jump\t// in\n    tag_185:\n        /* \"#utility.yul\":7855:7926   */\n      tag_186\n        /* \"#utility.yul\":7919:7925   */\n      dup2\n        /* \"#utility.yul\":7914:7917   */\n      dup6\n        /* \"#utility.yul\":7855:7926   */\n      tag_89\n      jump\t// in\n    tag_186:\n        /* \"#utility.yul\":7848:7926   */\n      swap4\n      pop\n        /* \"#utility.yul\":7935:8000   */\n      tag_187\n        /* \"#utility.yul\":7993:7999   */\n      dup2\n        /* \"#utility.yul\":7988:7991   */\n      dup6\n        /* \"#utility.yul\":7981:7985   */\n      0x20\n        /* \"#utility.yul\":7974:7979   */\n      dup7\n        /* \"#utility.yul\":7970:7986   */\n      add\n        /* \"#utility.yul\":7935:8000   */\n      tag_70\n      jump\t// in\n    tag_187:\n        /* \"#utility.yul\":8025:8054   */\n      tag_188\n        /* \"#utility.yul\":8047:8053   */\n      dup2\n        /* \"#utility.yul\":8025:8054   */\n      tag_71\n      jump\t// in\n    tag_188:\n        /* \"#utility.yul\":8020:8023   */\n      dup5\n        /* \"#utility.yul\":8016:8055   */\n      add\n        /* \"#utility.yul\":8009:8055   */\n      swap2\n      pop\n        /* \"#utility.yul\":7776:8061   */\n      pop\n        /* \"#utility.yul\":7684:8061   */\n      swap3\n      swap2\n      pop\n      pop\n      jump\t// out\n        /* \"#utility.yul\":8067:8380   */\n    tag_19:\n        /* \"#utility.yul\":8180:8184   */\n      0x00\n        /* \"#utility.yul\":8218:8220   */\n      0x20\n        /* \"#utility.yul\":8207:8216   */\n      dup3\n        /* \"#utility.yul\":8203:8221   */\n      add\n        /* \"#utility.yul\":8195:8221   */\n      swap1\n      pop\n        /* \"#utility.yul\":8267:8276   */\n      dup2\n        /* \"#utility.yul\":8261:8265   */\n      dup2\n        /* \"#utility.yul\":8257:8277   */\n      sub\n        /* \"#utility.yul\":8253:8254   */\n      0x00\n        /* \"#utility.yul\":8242:8251   */\n      dup4\n        /* \"#utility.yul\":8238:8255   */\n      add\n        /* \"#utility.yul\":8231:8278   */\n      mstore\n        /* \"#utility.yul\":8295:8373   */\n      tag_190\n        /* \"#utility.yul\":8368:8372   */\n      dup2\n        /* \"#utility.yul\":8359:8365   */\n      dup5\n        /* \"#utility.yul\":8295:8373   */\n      tag_90\n      jump\t// in\n    tag_190:\n        /* \"#utility.yul\":8287:8373   */\n      swap1\n      pop\n        /* \"#utility.yul\":8067:8380   */\n      swap3\n      swap2\n      pop\n      pop\n      jump\t// out\n        /* \"#utility.yul\":8386:8463   */\n    tag_91:\n        /* \"#utility.yul\":8423:8430   */\n      0x00\n        /* \"#utility.yul\":8452:8457   */\n      dup2\n        /* \"#utility.yul\":8441:8457   */\n      swap1\n      pop\n        /* \"#utility.yul\":8386:8463   */\n      swap2\n      swap1\n      pop\n      jump\t// out\n        /* \"#utility.yul\":8469:8591   */\n    tag_92:\n        /* \"#utility.yul\":8542:8566   */\n      tag_193\n        /* \"#utility.yul\":8560:8565   */\n      dup2\n        /* \"#utility.yul\":8542:8566   */\n      tag_91\n      jump\t// in\n    tag_193:\n        /* \"#utility.yul\":8535:8540   */\n      dup2\n        /* \"#utility.yul\":8532:8567   */\n      eq\n        /* \"#utility.yul\":8522:8585   */\n      tag_194\n      jumpi\n        /* \"#utility.yul\":8581:8582   */\n      0x00\n        /* \"#utility.yul\":8578:8579   */\n      dup1\n        /* \"#utility.yul\":8571:8583   */\n      revert\n        /* \"#utility.yul\":8522:8585   */\n    tag_194:\n        /* \"#utility.yul\":8469:8591   */\n      pop\n      jump\t// out\n        /* \"#utility.yul\":8597:8736   */\n    tag_93:\n        /* \"#utility.yul\":8643:8648   */\n      0x00\n        /* \"#utility.yul\":8681:8687   */\n      dup2\n        /* \"#utility.yul\":8668:8688   */\n      calldataload\n        /* \"#utility.yul\":8659:8688   */\n      swap1\n      pop\n        /* \"#utility.yul\":8697:8730   */\n      tag_196\n        /* \"#utility.yul\":8724:8729   */\n      dup2\n        /* \"#utility.yul\":8697:8730   */\n      tag_92\n      jump\t// in\n    tag_196:\n        /* \"#utility.yul\":8597:8736   */\n      swap3\n      swap2\n      pop\n      pop\n      jump\t// out\n        /* \"#utility.yul\":8742:9071   */\n    tag_25:\n        /* \"#utility.yul\":8801:8807   */\n      0x00\n        /* \"#utility.yul\":8850:8852   */\n      0x20\n        /* \"#utility.yul\":8838:8847   */\n      dup3\n        /* \"#utility.yul\":8829:8836   */\n      dup5\n        /* \"#utility.yul\":8825:8848   */\n      sub\n        /* \"#utility.yul\":8821:8853   */\n      slt\n        /* \"#utility.yul\":8818:8937   */\n      iszero\n      tag_198\n      jumpi\n        /* \"#utility.yul\":8856:8935   */\n      tag_199\n      tag_78\n      jump\t// in\n    tag_199:\n        /* \"#utility.yul\":8818:8937   */\n    tag_198:\n        /* \"#utility.yul\":8976:8977   */\n      0x00\n        /* \"#utility.yul\":9001:9054   */\n      tag_200\n        /* \"#utility.yul\":9046:9053   */\n      dup5\n        /* \"#utility.yul\":9037:9043   */\n      dup3\n        /* \"#utility.yul\":9026:9035   */\n      dup6\n        /* \"#utility.yul\":9022:9044   */\n      add\n        /* \"#utility.yul\":9001:9054   */\n      tag_93\n      jump\t// in\n    tag_200:\n        /* \"#utility.yul\":8991:9054   */\n      swap2\n      pop\n        /* \"#utility.yul\":8947:9064   */\n      pop\n        /* \"#utility.yul\":8742:9071   */\n      swap3\n      swap2\n      pop\n      pop\n      jump\t// out\n        /* \"#utility.yul\":9077:9195   */\n    tag_94:\n        /* \"#utility.yul\":9164:9188   */\n      tag_202\n        /* \"#utility.yul\":9182:9187   */\n      dup2\n        /* \"#utility.yul\":9164:9188   */\n      tag_66\n      jump\t// in\n    tag_202:\n        /* \"#utility.yul\":9159:9162   */\n      dup3\n        /* \"#utility.yul\":9152:9189   */\n      mstore\n        /* \"#utility.yul\":9077:9195   */\n      pop\n      pop\n      jump\t// out\n        /* \"#utility.yul\":9201:9624   */\n    tag_28:\n        /* \"#utility.yul\":9342:9346   */\n      0x00\n        /* \"#utility.yul\":9380:9382   */\n      0x40\n        /* \"#utility.yul\":9369:9378   */\n      dup3\n        /* \"#utility.yul\":9365:9383   */\n      add\n        /* \"#utility.yul\":9357:9383   */\n      swap1\n      pop\n        /* \"#utility.yul\":9393:9464   */\n      tag_204\n        /* \"#utility.yul\":9461:9462   */\n      0x00\n        /* \"#utility.yul\":9450:9459   */\n      dup4\n        /* \"#utility.yul\":9446:9463   */\n      add\n        /* \"#utility.yul\":9437:9443   */\n      dup6\n        /* \"#utility.yul\":9393:9464   */\n      tag_94\n      jump\t// in\n    tag_204:\n        /* \"#utility.yul\":9511:9520   */\n      dup2\n        /* \"#utility.yul\":9505:9509   */\n      dup2\n        /* \"#utility.yul\":9501:9521   */\n      sub\n        /* \"#utility.yul\":9496:9498   */\n      0x20\n        /* \"#utility.yul\":9485:9494   */\n      dup4\n        /* \"#utility.yul\":9481:9499   */\n      add\n        /* \"#utility.yul\":9474:9522   */\n      mstore\n        /* \"#utility.yul\":9539:9617   */\n      tag_205\n        /* \"#utility.yul\":9612:9616   */\n      dup2\n        /* \"#utility.yul\":9603:9609   */\n      dup5\n        /* \"#utility.yul\":9539:9617   */\n      tag_90\n      jump\t// in\n    tag_205:\n        /* \"#utility.yul\":9531:9617   */\n      swap1\n      pop\n        /* \"#utility.yul\":9201:9624   */\n      swap4\n      swap3\n      pop\n      pop\n      pop\n      jump\t// out\n        /* \"#utility.yul\":9630:9810   */\n    tag_95:\n        /* \"#utility.yul\":9678:9755   */\n      0x4e487b7100000000000000000000000000000000000000000000000000000000\n        /* \"#utility.yul\":9675:9676   */\n      0x00\n        /* \"#utility.yul\":9668:9756   */\n      mstore\n        /* \"#utility.yul\":9775:9779   */\n      0x22\n        /* \"#utility.yul\":9772:9773   */\n      0x04\n        /* \"#utility.yul\":9765:9780   */\n      mstore\n        /* \"#utility.yul\":9799:9803   */\n      0x24\n        /* \"#utility.yul\":9796:9797   */\n      0x00\n        /* \"#utility.yul\":9789:9804   */\n      revert\n        /* \"#utility.yul\":9816:10136   */\n    tag_34:\n        /* \"#utility.yul\":9860:9866   */\n      0x00\n        /* \"#utility.yul\":9897:9898   */\n      0x02\n        /* \"#utility.yul\":9891:9895   */\n      dup3\n        /* \"#utility.yul\":9887:9899   */\n      div\n        /* \"#utility.yul\":9877:9899   */\n      swap1\n      pop\n        /* \"#utility.yul\":9944:9945   */\n      0x01\n        /* \"#utility.yul\":9938:9942   */\n      dup3\n        /* \"#utility.yul\":9934:9946   */\n      and\n        /* \"#utility.yul\":9965:9983   */\n      dup1\n        /* \"#utility.yul\":9955:10036   */\n      tag_208\n      jumpi\n        /* \"#utility.yul\":10021:10025   */\n      0x7f\n        /* \"#utility.yul\":10013:10019   */\n      dup3\n        /* \"#utility.yul\":10009:10026   */\n      and\n        /* \"#utility.yul\":9999:10026   */\n      swap2\n      pop\n        /* \"#utility.yul\":9955:10036   */\n    tag_208:\n        /* \"#utility.yul\":10083:10085   */\n      0x20\n        /* \"#utility.yul\":10075:10081   */\n      dup3\n        /* \"#utility.yul\":10072:10086   */\n      lt\n        /* \"#utility.yul\":10052:10070   */\n      dup2\n        /* \"#utility.yul\":10049:10087   */\n      sub\n        /* \"#utility.yul\":10046:10130   */\n      tag_209\n      jumpi\n        /* \"#utility.yul\":10102:10120   */\n      tag_210\n      tag_95\n      jump\t// in\n    tag_210:\n        /* \"#utility.yul\":10046:10130   */\n    tag_209:\n        /* \"#utility.yul\":9867:10136   */\n      pop\n        /* \"#utility.yul\":9816:10136   */\n      swap2\n      swap1\n      pop\n      jump\t// out\n        /* \"#utility.yul\":10142:10283   */\n    tag_96:\n        /* \"#utility.yul\":10191:10195   */\n      0x00\n        /* \"#utility.yul\":10214:10217   */\n      dup2\n        /* \"#utility.yul\":10206:10217   */\n      swap1\n      pop\n        /* \"#utility.yul\":10237:10240   */\n      dup2\n        /* \"#utility.yul\":10234:10235   */\n      0x00\n        /* \"#utility.yul\":10227:10241   */\n      mstore\n        /* \"#utility.yul\":10271:10275   */\n      0x20\n        /* \"#utility.yul\":10268:10269   */\n      0x00\n        /* \"#utility.yul\":10258:10276   */\n      keccak256\n        /* \"#utility.yul\":10250:10276   */\n      swap1\n      pop\n        /* \"#utility.yul\":10142:10283   */\n      swap2\n      swap1\n      pop\n      jump\t// out\n        /* \"#utility.yul\":10289:10382   */\n    tag_97:\n        /* \"#utility.yul\":10326:10332   */\n      0x00\n        /* \"#utility.yul\":10373:10375   */\n      0x20\n        /* \"#utility.yul\":10368:10370   */\n      0x1f\n        /* \"#utility.yul\":10361:10366   */\n      dup4\n        /* \"#utility.yul\":10357:10371   */\n      add\n        /* \"#utility.yul\":10353:10376   */\n      div\n        /* \"#utility.yul\":10343:10376   */\n      swap1\n      pop\n        /* \"#utility.yul\":10289:10382   */\n      swap2\n      swap1\n      pop\n      jump\t// out\n        /* \"#utility.yul\":10388:10495   */\n    tag_98:\n        /* \"#utility.yul\":10432:10440   */\n      0x00\n        /* \"#utility.yul\":10482:10487   */\n      dup3\n        /* \"#utility.yul\":10476:10480   */\n      dup3\n        /* \"#utility.yul\":10472:10488   */\n      shl\n        /* \"#utility.yul\":10451:10488   */\n      swap1\n      pop\n        /* \"#utility.yul\":10388:10495   */\n      swap3\n      swap2\n      pop\n      pop\n      jump\t// out\n        /* \"#utility.yul\":10501:10894   */\n    tag_99:\n        /* \"#utility.yul\":10570:10576   */\n      0x00\n        /* \"#utility.yul\":10620:10621   */\n      0x08\n        /* \"#utility.yul\":10608:10618   */\n      dup4\n        /* \"#utility.yul\":10604:10622   */\n      mul\n        /* \"#utility.yul\":10643:10740   */\n      tag_215\n        /* \"#utility.yul\":10673:10739   */\n      0xffffffffffffffffffffffffffffffffffffffffffffffffffffffffffffffff\n        /* \"#utility.yul\":10662:10671   */\n      dup3\n        /* \"#utility.yul\":10643:10740   */\n      tag_98\n      jump\t// in\n    tag_215:\n        /* \"#utility.yul\":10761:10800   */\n      tag_216\n        /* \"#utility.yul\":10791:10799   */\n      dup7\n        /* \"#utility.yul\":10780:10789   */\n      dup4\n        /* \"#utility.yul\":10761:10800   */\n      tag_98\n      jump\t// in\n    tag_216:\n        /* \"#utility.yul\":10749:10800   */\n      swap6\n      pop\n        /* \"#utility.yul\":10833:10837   */\n      dup1\n        /* \"#utility.yul\":10829:10838   */\n      not\n        /* \"#utility.yul\":10822:10827   */\n      dup5\n        /* \"#utility.yul\":10818:10839   */\n      and\n        /* \"#utility.yul\":10809:10839   */\n      swap4\n      pop\n        /* \"#utility.yul\":10882:10886   */\n      dup1\n        /* \"#utility.yul\":10872:10880   */\n      dup7\n        /* \"#utility.yul\":10868:10887   */\n      and\n        /* \"#utility.yul\":10861:10866   */\n      dup5\n        /* \"#utility.yul\":10858:10888   */\n      or\n        /* \"#utility.yul\":10848:10888   */\n      swap3\n      pop\n        /* \"#utility.yul\":10577:10894   */\n      pop\n      pop\n        /* \"#utility.yul\":10501:10894   */\n      swap4\n      swap3\n      pop\n      pop\n      pop\n      jump\t// out\n        /* \"#utility.yul\":10900:10960   */\n    tag_100:\n        /* \"#utility.yul\":10928:10931   */\n      0x00\n        /* \"#utility.yul\":10949:10954   */\n      dup2\n        /* \"#utility.yul\":10942:10954   */\n      swap1\n      pop\n        /* \"#utility.yul\":10900:10960   */\n      swap2\n      swap1\n      pop\n      jump\t// out\n        /* \"#utility.yul\":10966:11108   */\n    tag_101:\n        /* \"#utility.yul\":11016:11025   */\n      0x00\n        /* \"#utility.yul\":11049:11102   */\n      tag_219\n        /* \"#utility.yul\":11067:11101   */\n      tag_220\n        /* \"#utility.yul\":11076:11100   */\n      tag_221\n        /* \"#utility.yul\":11094:11099   */\n      dup5\n        /* \"#utility.yul\":11076:11100   */\n      tag_91\n      jump\t// in\n    tag_221:\n        /* \"#utility.yul\":11067:11101   */\n      tag_100\n      jump\t// in\n    tag_220:\n        /* \"#utility.yul\":11049:11102   */\n      tag_91\n      jump\t// in\n    tag_219:\n        /* \"#utility.yul\":11036:11102   */\n      swap1\n      pop\n        /* \"#utility.yul\":10966:11108   */\n      swap2\n      swap1\n      pop\n      jump\t// out\n        /* \"#utility.yul\":11114:11189   */\n    tag_102:\n        /* \"#utility.yul\":11157:11160   */\n      0x00\n        /* \"#utility.yul\":11178:11183   */\n      dup2\n        /* \"#utility.yul\":11171:11183   */\n      swap1\n      pop\n        /* \"#utility.yul\":11114:11189   */\n      swap2\n      swap1\n      pop\n      jump\t// out\n        /* \"#utility.yul\":11195:11464   */\n    tag_103:\n        /* \"#utility.yul\":11305:11344   */\n      tag_224\n        /* \"#utility.yul\":11336:11343   */\n      dup4\n        /* \"#utility.yul\":11305:11344   */\n      tag_101\n      jump\t// in\n    tag_224:\n        /* \"#utility.yul\":11366:11457   */\n      tag_225\n        /* \"#utility.yul\":11415:11456   */\n      tag_226\n        /* \"#utility.yul\":11439:11455   */\n      dup3\n        /* \"#utility.yul\":11415:11456   */\n      tag_102\n      jump\t// in\n    tag_226:\n        /* \"#utility.yul\":11407:11413   */\n      dup5\n        /* \"#utility.yul\":11400:11404   */\n      dup5\n        /* \"#utility.yul\":11394:11405   */\n      sload\n        /* \"#utility.yul\":11366:11457   */\n      tag_99\n      jump\t// in\n    tag_225:\n        /* \"#utility.yul\":11360:11364   */\n      dup3\n        /* \"#utility.yul\":11353:11458   */\n      sstore\n        /* \"#utility.yul\":11271:11464   */\n      pop\n        /* \"#utility.yul\":11195:11464   */\n      pop\n      pop\n      pop\n      jump\t// out\n        /* \"#utility.yul\":11470:11543   */\n    tag_104:\n        /* \"#utility.yul\":11515:11518   */\n      0x00\n        /* \"#utility.yul\":11470:11543   */\n      swap1\n      jump\t// out\n        /* \"#utility.yul\":11549:11738   */\n    tag_105:\n        /* \"#utility.yul\":11626:11658   */\n      tag_229\n      tag_104\n      jump\t// in\n    tag_229:\n        /* \"#utility.yul\":11667:11732   */\n      tag_230\n        /* \"#utility.yul\":11725:11731   */\n      dup2\n        /* \"#utility.yul\":11717:11723   */\n      dup5\n        /* \"#utility.yul\":11711:11715   */\n      dup5\n        /* \"#utility.yul\":11667:11732   */\n      tag_103\n      jump\t// in\n    tag_230:\n        /* \"#utility.yul\":11602:11738   */\n      pop\n        /* \"#utility.yul\":11549:11738   */\n      pop\n      pop\n      jump\t// out\n        /* \"#utility.yul\":11744:11930   */\n    tag_106:\n        /* \"#utility.yul\":11804:11924   */\n    tag_232:\n        /* \"#utility.yul\":11821:11824   */\n      dup2\n        /* \"#utility.yul\":11814:11819   */\n      dup2\n        /* \"#utility.yul\":11811:11825   */\n      lt\n        /* \"#utility.yul\":11804:11924   */\n      iszero\n      tag_234\n      jumpi\n        /* \"#utility.yul\":11875:11914   */\n      tag_235\n        /* \"#utility.yul\":11912:11913   */\n      0x00\n        /* \"#utility.yul\":11905:11910   */\n      dup3\n        /* \"#utility.yul\":11875:11914   */\n      tag_105\n      jump\t// in\n    tag_235:\n        /* \"#utility.yul\":11848:11849   */\n      0x01\n        /* \"#utility.yul\":11841:11846   */\n      dup2\n        /* \"#utility.yul\":11837:11850   */\n      add\n        /* \"#utility.yul\":11828:11850   */\n      swap1\n      pop\n        /* \"#utility.yul\":11804:11924   */\n      jump(tag_232)\n    tag_234:\n        /* \"#utility.yul\":11744:11930   */\n      pop\n      pop\n      jump\t// out\n        /* \"#utility.yul\":11936:12479   */\n    tag_107:\n        /* \"#utility.yul\":12037:12039   */\n      0x1f\n        /* \"#utility.yul\":12032:12035   */\n      dup3\n        /* \"#utility.yul\":12029:12040   */\n      gt\n        /* \"#utility.yul\":12026:12472   */\n      iszero\n      tag_237\n      jumpi\n        /* \"#utility.yul\":12071:12109   */\n      tag_238\n        /* \"#utility.yul\":12103:12108   */\n      dup2\n        /* \"#utility.yul\":12071:12109   */\n      tag_96\n      jump\t// in\n    tag_238:\n        /* \"#utility.yul\":12155:12184   */\n      tag_239\n        /* \"#utility.yul\":12173:12183   */\n      dup5\n        /* \"#utility.yul\":12155:12184   */\n      tag_97\n      jump\t// in\n    tag_239:\n        /* \"#utility.yul\":12145:12153   */\n      dup2\n        /* \"#utility.yul\":12141:12185   */\n      add\n        /* \"#utility.yul\":12338:12340   */\n      0x20\n        /* \"#utility.yul\":12326:12336   */\n      dup6\n        /* \"#utility.yul\":12323:12341   */\n      lt\n        /* \"#utility.yul\":12320:12369   */\n      iszero\n      tag_240\n      jumpi\n        /* \"#utility.yul\":12359:12367   */\n      dup2\n        /* \"#utility.yul\":12344:12367   */\n      swap1\n      pop\n        /* \"#utility.yul\":12320:12369   */\n    tag_240:\n        /* \"#utility.yul\":12382:12462   */\n      tag_241\n        /* \"#utility.yul\":12438:12460   */\n      tag_242\n        /* \"#utility.yul\":12456:12459   */\n      dup6\n        /* \"#utility.yul\":12438:12460   */\n      tag_97\n      jump\t// in\n    tag_242:\n        /* \"#utility.yul\":12428:12436   */\n      dup4\n        /* \"#utility.yul\":12424:12461   */\n      add\n        /* \"#utility.yul\":12411:12422   */\n      dup3\n        /* \"#utility.yul\":12382:12462   */\n      tag_106\n      jump\t// in\n    tag_241:\n        /* \"#utility.yul\":12041:12472   */\n      pop\n      pop\n        /* \"#utility.yul\":12026:12472   */\n    tag_237:\n        /* \"#utility.yul\":11936:12479   */\n      pop\n      pop\n      pop\n      jump\t// out\n        /* \"#utility.yul\":12485:12602   */\n    tag_108:\n        /* \"#utility.yul\":12539:12547   */\n      0x00\n        /* \"#utility.yul\":12589:12594   */\n      dup3\n        /* \"#utility.yul\":12583:12587   */\n      dup3\n        /* \"#utility.yul\":12579:12595   */\n      shr\n        /* \"#utility.yul\":12558:12595   */\n      swap1\n      pop\n        /* \"#utility.yul\":12485:12602   */\n      swap3\n      swap2\n      pop\n      pop\n      jump\t// out\n        /* \"#utility.yul\":12608:12777   */\n    tag_109:\n        /* \"#utility.yul\":12652:12658   */\n      0x00\n        /* \"#utility.yul\":12685:12736   */\n      tag_245\n        /* \"#utility.yul\":12733:12734   */\n      0x00\n        /* \"#utility.yul\":12729:12735   */\n      not\n        /* \"#utility.yul\":12721:12726   */\n      dup5\n        /* \"#utility.yul\":12718:12719   */\n      0x08\n        /* \"#utility.yul\":12714:12727   */\n      mul\n        /* \"#utility.yul\":12685:12736   */\n      tag_108\n      jump\t// in\n    tag_245:\n        /* \"#utility.yul\":12681:12737   */\n      not\n        /* \"#utility.yul\":12766:12770   */\n      dup1\n        /* \"#utility.yul\":12760:12764   */\n      dup4\n        /* \"#utility.yul\":12756:12771   */\n      and\n        /* \"#utility.yul\":12746:12771   */\n      swap2\n      pop\n        /* \"#utility.yul\":12659:12777   */\n      pop\n        /* \"#utility.yul\":12608:12777   */\n      swap3\n      swap2\n      pop\n      pop\n      jump\t// out\n        /* \"#utility.yul\":12782:13077   */\n    tag_110:\n        /* \"#utility.yul\":12858:12862   */\n      0x00\n        /* \"#utility.yul\":13004:13033   */\n      tag_247\n        /* \"#utility.yul\":13029:13032   */\n      dup4\n        /* \"#utility.yul\":13023:13027   */\n      dup4\n        /* \"#utility.yul\":13004:13033   */\n      tag_109\n      jump\t// in\n    tag_247:\n        /* \"#utility.yul\":12996:13033   */\n      swap2\n      pop\n        /* \"#utility.yul\":13066:13069   */\n      dup3\n        /* \"#utility.yul\":13063:13064   */\n      0x02\n        /* \"#utility.yul\":13059:13070   */\n      mul\n        /* \"#utility.yul\":13053:13057   */\n      dup3\n        /* \"#utility.yul\":13050:13071   */\n      or\n        /* \"#utility.yul\":13042:13071   */\n      swap1\n      pop\n        /* \"#utility.yul\":12782:13077   */\n      swap3\n      swap2\n      pop\n      pop\n      jump\t// out\n        /* \"#utility.yul\":13082:14477   */\n    tag_41:\n        /* \"#utility.yul\":13199:13236   */\n      tag_249\n        /* \"#utility.yul\":13232:13235   */\n      dup3\n        /* \"#utility.yul\":13199:13236   */\n      tag_68\n      jump\t// in\n    tag_249:\n        /* \"#utility.yul\":13301:13319   */\n      0xffffffffffffffff\n        /* \"#utility.yul\":13293:13299   */\n      dup2\n        /* \"#utility.yul\":13290:13320   */\n      gt\n        /* \"#utility.yul\":13287:13343   */\n      iszero\n      tag_250\n      jumpi\n        /* \"#utility.yul\":13323:13341   */\n      tag_251\n      tag_82\n      jump\t// in\n    tag_251:\n        /* \"#utility.yul\":13287:13343   */\n    tag_250:\n        /* \"#utility.yul\":13367:13405   */\n      tag_252\n        /* \"#utility.yul\":13399:13403   */\n      dup3\n        /* \"#utility.yul\":13393:13404   */\n      sload\n        /* \"#utility.yul\":13367:13405   */\n      tag_34\n      jump\t// in\n    tag_252:\n        /* \"#utility.yul\":13452:13519   */\n      tag_253\n        /* \"#utility.yul\":13512:13518   */\n      dup3\n        /* \"#utility.yul\":13504:13510   */\n      dup3\n        /* \"#utility.yul\":13498:13502   */\n      dup6\n        /* \"#utility.yul\":13452:13519   */\n      tag_107\n      jump\t// in\n    tag_253:\n        /* \"#utility.yul\":13546:13547   */\n      0x00\n        /* \"#utility.yul\":13570:13574   */\n      0x20\n        /* \"#utility.yul\":13557:13574   */\n      swap1\n      pop\n        /* \"#utility.yul\":13602:13604   */\n      0x1f\n        /* \"#utility.yul\":13594:13600   */\n      dup4\n        /* \"#utility.yul\":13591:13605   */\n      gt\n        /* \"#utility.yul\":13619:13620   */\n      0x01\n        /* \"#utility.yul\":13614:14232   */\n      dup2\n      eq\n      tag_255\n      jumpi\n        /* \"#utility.yul\":14276:14277   */\n      0x00\n        /* \"#utility.yul\":14293:14299   */\n      dup5\n        /* \"#utility.yul\":14290:14367   */\n      iszero\n      tag_256\n      jumpi\n        /* \"#utility.yul\":14342:14351   */\n      dup3\n        /* \"#utility.yul\":14337:14340   */\n      dup8\n        /* \"#utility.yul\":14333:14352   */\n      add\n        /* \"#utility.yul\":14327:14353   */\n      mload\n        /* \"#utility.yul\":14318:14353   */\n      swap1\n      pop\n        /* \"#utility.yul\":14290:14367   */\n    tag_256:\n        /* \"#utility.yul\":14393:14460   */\n      tag_257\n        /* \"#utility.yul\":14453:14459   */\n      dup6\n        /* \"#utility.yul\":14446:14451   */\n      dup3\n        /* \"#utility.yul\":14393:14460   */\n      tag_110\n      jump\t// in\n    tag_257:\n        /* \"#utility.yul\":14387:14391   */\n      dup7\n        /* \"#utility.yul\":14380:14461   */\n      sstore\n        /* \"#utility.yul\":14249:14471   */\n      pop\n        /* \"#utility.yul\":13584:14471   */\n      jump(tag_254)\n        /* \"#utility.yul\":13614:14232   */\n    tag_255:\n        /* \"#utility.yul\":13666:13670   */\n      0x1f\n        /* \"#utility.yul\":13662:13671   */\n      not\n        /* \"#utility.yul\":13654:13660   */\n      dup5\n        /* \"#utility.yul\":13650:13672   */\n      and\n        /* \"#utility.yul\":13700:13737   */\n      tag_258\n        /* \"#utility.yul\":13732:13736   */\n      dup7\n        /* \"#utility.yul\":13700:13737   */\n      tag_96\n      jump\t// in\n    tag_258:\n        /* \"#utility.yul\":13759:13760   */\n      0x00\n        /* \"#utility.yul\":13773:13981   */\n    tag_259:\n        /* \"#utility.yul\":13787:13794   */\n      dup3\n        /* \"#utility.yul\":13784:13785   */\n      dup2\n        /* \"#utility.yul\":13781:13795   */\n      lt\n        /* \"#utility.yul\":13773:13981   */\n      iszero\n      tag_261\n      jumpi\n        /* \"#utility.yul\":13866:13875   */\n      dup5\n        /* \"#utility.yul\":13861:13864   */\n      dup10\n        /* \"#utility.yul\":13857:13876   */\n      add\n        /* \"#utility.yul\":13851:13877   */\n      mload\n        /* \"#utility.yul\":13843:13849   */\n      dup3\n        /* \"#utility.yul\":13836:13878   */\n      sstore\n        /* \"#utility.yul\":13917:13918   */\n      0x01\n        /* \"#utility.yul\":13909:13915   */\n      dup3\n        /* \"#utility.yul\":13905:13919   */\n      add\n        /* \"#utility.yul\":13895:13919   */\n      swap2\n      pop\n        /* \"#utility.yul\":13964:13966   */\n      0x20\n        /* \"#utility.yul\":13953:13962   */\n      dup6\n        /* \"#utility.yul\":13949:13967   */\n      add\n        /* \"#utility.yul\":13936:13967   */\n      swap5\n      pop\n        /* \"#utility.yul\":13810:13814   */\n      0x20\n        /* \"#utility.yul\":13807:13808   */\n      dup2\n        /* \"#utility.yul\":13803:13815   */\n      add\n        /* \"#utility.yul\":13798:13815   */\n      swap1\n      pop\n        /* \"#utility.yul\":13773:13981   */\n      jump(tag_259)\n    tag_261:\n        /* \"#utility.yul\":14009:14015   */\n      dup7\n        /* \"#utility.yul\":14000:14007   */\n      dup4\n        /* \"#utility.yul\":13997:14016   */\n      lt\n        /* \"#utility.yul\":13994:14173   */\n      iszero\n      tag_262\n      jumpi\n        /* \"#utility.yul\":14067:14076   */\n      dup5\n        /* \"#utility.yul\":14062:14065   */\n      dup10\n        /* \"#utility.yul\":14058:14077   */\n      add\n        /* \"#utility.yul\":14052:14078   */\n      mload\n        /* \"#utility.yul\":14110:14158   */\n      tag_263\n        /* \"#utility.yul\":14152:14156   */\n      0x1f\n        /* \"#utility.yul\":14144:14150   */\n      dup10\n        /* \"#utility.yul\":14140:14157   */\n      and\n        /* \"#utility.yul\":14129:14138   */\n      dup3\n        /* \"#utility.yul\":14110:14158   */\n      tag_109\n      jump\t// in\n    tag_263:\n        /* \"#utility.yul\":14102:14108   */\n      dup4\n        /* \"#utility.yul\":14095:14159   */\n      sstore\n        /* \"#utility.yul\":14017:14173   */\n      pop\n        /* \"#utility.yul\":13994:14173   */\n    tag_262:\n        /* \"#utility.yul\":14219:14220   */\n      0x01\n        /* \"#utility.yul\":14215:14216   */\n      0x02\n        /* \"#utility.yul\":14207:14213   */\n      dup9\n        /* \"#utility.yul\":14203:14217   */\n      mul\n        /* \"#utility.yul\":14199:14221   */\n      add\n        /* \"#utility.yul\":14193:14197   */\n      dup9\n        /* \"#utility.yul\":14186:14222   */\n      sstore\n        /* \"#utility.yul\":13621:14232   */\n      pop\n      pop\n      pop\n        /* \"#utility.yul\":13584:14471   */\n    tag_254:\n      pop\n        /* \"#utility.yul\":13174:14477   */\n      pop\n      pop\n      pop\n        /* \"#utility.yul\":13082:14477   */\n      pop\n      pop\n      jump\t// out\n\n    auxdata: 0xa2646970667358221220ff78f1a4bda43422458e78f95cf2441e07d0f1a5166c4d13c107574faf45250764736f6c63430008120033\n}\n",
				"bytecode": {
					"linkReferences": {},
					"object": "60806040523480156200001157600080fd5b506040518060400160405280600c81526020017f48656c6c6f20576f726c6421000000000000000000000000000000000000000081525060009081620000589190620003c5565b50600160405180604001604052803373ffffffffffffffffffffffffffffffffffffffff1681526020016040518060400160405280600c81526020017f48656c6c6f20576f726c64210000000000000000000000000000000000000000815250815250908060018154018082558091505060019003906000526020600020906002020160009091909190915060008201518160000160006101000a81548173ffffffffffffffffffffffffffffffffffffffff021916908373ffffffffffffffffffffffffffffffffffffffff1602179055506020820151816001019081620001429190620003c5565b505050620004ac565b600081519050919050565b7f4e487b7100000000000000000000000000000000000000000000000000000000600052604160045260246000fd5b7f4e487b7100000000000000000000000000000000000000000000000000000000600052602260045260246000fd5b60006002820490506001821680620001cd57607f821691505b602082108103620001e357620001e262000185565b5b50919050565b60008190508160005260206000209050919050565b60006020601f8301049050919050565b600082821b905092915050565b6000600883026200024d7fffffffffffffffffffffffffffffffffffffffffffffffffffffffffffffffff826200020e565b6200025986836200020e565b95508019841693508086168417925050509392505050565b6000819050919050565b6000819050919050565b6000620002a6620002a06200029a8462000271565b6200027b565b62000271565b9050919050565b6000819050919050565b620002c28362000285565b620002da620002d182620002ad565b8484546200021b565b825550505050565b600090565b620002f1620002e2565b620002fe818484620002b7565b505050565b5b8181101562000326576200031a600082620002e7565b60018101905062000304565b5050565b601f82111562000375576200033f81620001e9565b6200034a84620001fe565b810160208510156200035a578190505b620003726200036985620001fe565b83018262000303565b50505b505050565b600082821c905092915050565b60006200039a600019846008026200037a565b1980831691505092915050565b6000620003b5838362000387565b9150826002028217905092915050565b620003d0826200014b565b67ffffffffffffffff811115620003ec57620003eb62000156565b5b620003f88254620001b4565b620004058282856200032a565b600060209050601f8311600181146200043d576000841562000428578287015190505b620004348582620003a7565b865550620004a4565b601f1984166200044d86620001e9565b60005b82811015620004775784890151825560018201915060208501945060208101905062000450565b8683101562000497578489015162000493601f89168262000387565b8355505b6001600288020188555050505b505050505050565b610cb480620004bc6000396000f3fe608060405234801561001057600080fd5b50600436106100575760003560e01c806309fbd9941461005c578063a41368621461007a578063cfae321714610096578063ef690cc0146100b4578063f87c9ea9146100d2575b600080fd5b610064610103565b60405161007191906106de565b60405180910390f35b610094600480360381019061008f9190610849565b61024a565b005b61009e610312565b6040516100ab91906108dc565b60405180910390f35b6100bc6103a4565b6040516100c991906108dc565b60405180910390f35b6100ec60048036038101906100e79190610934565b610432565b6040516100fa929190610970565b60405180910390f35b60606001805480602002602001604051908101604052809291908181526020016000905b8282101561024157838290600052602060002090600202016040518060400160405290816000820160009054906101000a900473ffffffffffffffffffffffffffffffffffffffff1673ffffffffffffffffffffffffffffffffffffffff1673ffffffffffffffffffffffffffffffffffffffff1681526020016001820180546101b0906109cf565b80601f01602080910402602001604051908101604052809291908181526020018280546101dc906109cf565b80156102295780601f106101fe57610100808354040283529160200191610229565b820191906000526020600020905b81548152906001019060200180831161020c57829003601f168201915b50505050508152505081526020019060010190610127565b50505050905090565b80600090816102599190610bac565b50600160405180604001604052803373ffffffffffffffffffffffffffffffffffffffff16815260200183815250908060018154018082558091505060019003906000526020600020906002020160009091909190915060008201518160000160006101000a81548173ffffffffffffffffffffffffffffffffffffffff021916908373ffffffffffffffffffffffffffffffffffffffff160217905550602082015181600101908161030c9190610bac565b50505050565b606060008054610321906109cf565b80601f016020809104026020016040519081016040528092919081815260200182805461034d906109cf565b801561039a5780601f1061036f5761010080835404028352916020019161039a565b820191906000526020600020905b81548152906001019060200180831161037d57829003601f168201915b5050505050905090565b600080546103b1906109cf565b80601f01602080910402602001604051908101604052809291908181526020018280546103dd906109cf565b801561042a5780601f106103ff5761010080835404028352916020019161042a565b820191906000526020600020905b81548152906001019060200180831161040d57829003601f168201915b505050505081565b6001818154811061044257600080fd5b90600052602060002090600202016000915090508060000160009054906101000a900473ffffffffffffffffffffffffffffffffffffffff169080600101805461048b906109cf565b80601f01602080910402602001604051908101604052809291908181526020018280546104b7906109cf565b80156105045780601f106104d957610100808354040283529160200191610504565b820191906000526020600020905b8154815290600101906020018083116104e757829003601f168201915b5050505050905082565b600081519050919050565b600082825260208201905092915050565b6000819050602082019050919050565b600073ffffffffffffffffffffffffffffffffffffffff82169050919050565b60006105658261053a565b9050919050565b6105758161055a565b82525050565b600081519050919050565b600082825260208201905092915050565b60005b838110156105b557808201518184015260208101905061059a565b60008484015250505050565b6000601f19601f8301169050919050565b60006105dd8261057b565b6105e78185610586565b93506105f7818560208601610597565b610600816105c1565b840191505092915050565b6000604083016000830151610623600086018261056c565b506020830151848203602086015261063b82826105d2565b9150508091505092915050565b6000610654838361060b565b905092915050565b6000602082019050919050565b60006106748261050e565b61067e8185610519565b9350836020820285016106908561052a565b8060005b858110156106cc57848403895281516106ad8582610648565b94506106b88361065c565b925060208a01995050600181019050610694565b50829750879550505050505092915050565b600060208201905081810360008301526106f88184610669565b905092915050565b6000604051905090565b600080fd5b600080fd5b600080fd5b600080fd5b7f4e487b7100000000000000000000000000000000000000000000000000000000600052604160045260246000fd5b610756826105c1565b810181811067ffffffffffffffff821117156107755761077461071e565b5b80604052505050565b6000610788610700565b9050610794828261074d565b919050565b600067ffffffffffffffff8211156107b4576107b361071e565b5b6107bd826105c1565b9050602081019050919050565b82818337600083830152505050565b60006107ec6107e784610799565b61077e565b90508281526020810184848401111561080857610807610719565b5b6108138482856107ca565b509392505050565b600082601f8301126108305761082f610714565b5b81356108408482602086016107d9565b91505092915050565b60006020828403121561085f5761085e61070a565b5b600082013567ffffffffffffffff81111561087d5761087c61070f565b5b6108898482850161081b565b91505092915050565b600082825260208201905092915050565b60006108ae8261057b565b6108b88185610892565b93506108c8818560208601610597565b6108d1816105c1565b840191505092915050565b600060208201905081810360008301526108f681846108a3565b905092915050565b6000819050919050565b610911816108fe565b811461091c57600080fd5b50565b60008135905061092e81610908565b92915050565b60006020828403121561094a5761094961070a565b5b60006109588482850161091f565b91505092915050565b61096a8161055a565b82525050565b60006040820190506109856000830185610961565b818103602083015261099781846108a3565b90509392505050565b7f4e487b7100000000000000000000000000000000000000000000000000000000600052602260045260246000fd5b600060028204905060018216806109e757607f821691505b6020821081036109fa576109f96109a0565b5b50919050565b60008190508160005260206000209050919050565b60006020601f8301049050919050565b600082821b905092915050565b600060088302610a627fffffffffffffffffffffffffffffffffffffffffffffffffffffffffffffffff82610a25565b610a6c8683610a25565b95508019841693508086168417925050509392505050565b6000819050919050565b6000610aa9610aa4610a9f846108fe565b610a84565b6108fe565b9050919050565b6000819050919050565b610ac383610a8e565b610ad7610acf82610ab0565b848454610a32565b825550505050565b600090565b610aec610adf565b610af7818484610aba565b505050565b5b81811015610b1b57610b10600082610ae4565b600181019050610afd565b5050565b601f821115610b6057610b3181610a00565b610b3a84610a15565b81016020851015610b49578190505b610b5d610b5585610a15565b830182610afc565b50505b505050565b600082821c905092915050565b6000610b8360001984600802610b65565b1980831691505092915050565b6000610b9c8383610b72565b9150826002028217905092915050565b610bb58261057b565b67ffffffffffffffff811115610bce57610bcd61071e565b5b610bd882546109cf565b610be3828285610b1f565b600060209050601f831160018114610c165760008415610c04578287015190505b610c0e8582610b90565b865550610c76565b601f198416610c2486610a00565b60005b82811015610c4c57848901518255600182019150602085019450602081019050610c27565b86831015610c695784890151610c65601f891682610b72565b8355505b6001600288020188555050505b50505050505056fea2646970667358221220ff78f1a4bda43422458e78f95cf2441e07d0f1a5166c4d13c107574faf45250764736f6c63430008120033",
					"opcodes": "PUSH1 0x80 PUSH1 0x40 MSTORE CALLVALUE DUP1 ISZERO PUSH3 0x11 JUMPI PUSH1 0x0 DUP1 REVERT JUMPDEST POP PUSH1 0x40 MLOAD DUP1 PUSH1 0x40 ADD PUSH1 0x40 MSTORE DUP1 PUSH1 0xC DUP2 MSTORE PUSH1 0x20 ADD PUSH32 0x48656C6C6F20576F726C64210000000000000000000000000000000000000000 DUP2 MSTORE POP PUSH1 0x0 SWAP1 DUP2 PUSH3 0x58 SWAP2 SWAP1 PUSH3 0x3C5 JUMP JUMPDEST POP PUSH1 0x1 PUSH1 0x40 MLOAD DUP1 PUSH1 0x40 ADD PUSH1 0x40 MSTORE DUP1 CALLER PUSH20 0xFFFFFFFFFFFFFFFFFFFFFFFFFFFFFFFFFFFFFFFF AND DUP2 MSTORE PUSH1 0x20 ADD PUSH1 0x40 MLOAD DUP1 PUSH1 0x40 ADD PUSH1 0x40 MSTORE DUP1 PUSH1 0xC DUP2 MSTORE PUSH1 0x20 ADD PUSH32 0x48656C6C6F20576F726C64210000000000000000000000000000000000000000 DUP2 MSTORE POP DUP2 MSTORE POP SWAP1 DUP1 PUSH1 0x1 DUP2 SLOAD ADD DUP1 DUP3 SSTORE DUP1 SWAP2 POP POP PUSH1 0x1 SWAP1 SUB SWAP1 PUSH1 0x0 MSTORE PUSH1 0x20 PUSH1 0x0 KECCAK256 SWAP1 PUSH1 0x2 MUL ADD PUSH1 0x0 SWAP1 SWAP2 SWAP1 SWAP2 SWAP1 SWAP2 POP PUSH1 0x0 DUP3 ADD MLOAD DUP2 PUSH1 0x0 ADD PUSH1 0x0 PUSH2 0x100 EXP DUP2 SLOAD DUP2 PUSH20 0xFFFFFFFFFFFFFFFFFFFFFFFFFFFFFFFFFFFFFFFF MUL NOT AND SWAP1 DUP4 PUSH20 0xFFFFFFFFFFFFFFFFFFFFFFFFFFFFFFFFFFFFFFFF AND MUL OR SWAP1 SSTORE POP PUSH1 0x20 DUP3 ADD MLOAD DUP2 PUSH1 0x1 ADD SWAP1 DUP2 PUSH3 0x142 SWAP2 SWAP1 PUSH3 0x3C5 JUMP JUMPDEST POP POP POP PUSH3 0x4AC JUMP JUMPDEST PUSH1 0x0 DUP2 MLOAD SWAP1 POP SWAP2 SWAP1 POP JUMP JUMPDEST PUSH32 0x4E487B7100000000000000000000000000000000000000000000000000000000 PUSH1 0x0 MSTORE PUSH1 0x41 PUSH1 0x4 MSTORE PUSH1 0x24 PUSH1 0x0 REVERT JUMPDEST PUSH32 0x4E487B7100000000000000000000000000000000000000000000000000000000 PUSH1 0x0 MSTORE PUSH1 0x22 PUSH1 0x4 MSTORE PUSH1 0x24 PUSH1 0x0 REVERT JUMPDEST PUSH1 0x0 PUSH1 0x2 DUP3 DIV SWAP1 POP PUSH1 0x1 DUP3 AND DUP1 PUSH3 0x1CD JUMPI PUSH1 0x7F DUP3 AND SWAP2 POP JUMPDEST PUSH1 0x20 DUP3 LT DUP2 SUB PUSH3 0x1E3 JUMPI PUSH3 0x1E2 PUSH3 0x185 JUMP JUMPDEST JUMPDEST POP SWAP2 SWAP1 POP JUMP JUMPDEST PUSH1 0x0 DUP2 SWAP1 POP DUP2 PUSH1 0x0 MSTORE PUSH1 0x20 PUSH1 0x0 KECCAK256 SWAP1 POP SWAP2 SWAP1 POP JUMP JUMPDEST PUSH1 0x0 PUSH1 0x20 PUSH1 0x1F DUP4 ADD DIV SWAP1 POP SWAP2 SWAP1 POP JUMP JUMPDEST PUSH1 0x0 DUP3 DUP3 SHL SWAP1 POP SWAP3 SWAP2 POP POP JUMP JUMPDEST PUSH1 0x0 PUSH1 0x8 DUP4 MUL PUSH3 0x24D PUSH32 0xFFFFFFFFFFFFFFFFFFFFFFFFFFFFFFFFFFFFFFFFFFFFFFFFFFFFFFFFFFFFFFFF DUP3 PUSH3 0x20E JUMP JUMPDEST PUSH3 0x259 DUP7 DUP4 PUSH3 0x20E JUMP JUMPDEST SWAP6 POP DUP1 NOT DUP5 AND SWAP4 POP DUP1 DUP7 AND DUP5 OR SWAP3 POP POP POP SWAP4 SWAP3 POP POP POP JUMP JUMPDEST PUSH1 0x0 DUP2 SWAP1 POP SWAP2 SWAP1 POP JUMP JUMPDEST PUSH1 0x0 DUP2 SWAP1 POP SWAP2 SWAP1 POP JUMP JUMPDEST PUSH1 0x0 PUSH3 0x2A6 PUSH3 0x2A0 PUSH3 0x29A DUP5 PUSH3 0x271 JUMP JUMPDEST PUSH3 0x27B JUMP JUMPDEST PUSH3 0x271 JUMP JUMPDEST SWAP1 POP SWAP2 SWAP1 POP JUMP JUMPDEST PUSH1 0x0 DUP2 SWAP1 POP SWAP2 SWAP1 POP JUMP JUMPDEST PUSH3 0x2C2 DUP4 PUSH3 0x285 JUMP JUMPDEST PUSH3 0x2DA PUSH3 0x2D1 DUP3 PUSH3 0x2AD JUMP JUMPDEST DUP5 DUP5 SLOAD PUSH3 0x21B JUMP JUMPDEST DUP3 SSTORE POP POP POP POP JUMP JUMPDEST PUSH1 0x0 SWAP1 JUMP JUMPDEST PUSH3 0x2F1 PUSH3 0x2E2 JUMP JUMPDEST PUSH3 0x2FE DUP2 DUP5 DUP5 PUSH3 0x2B7 JUMP JUMPDEST POP POP POP JUMP JUMPDEST JUMPDEST DUP2 DUP2 LT ISZERO PUSH3 0x326 JUMPI PUSH3 0x31A PUSH1 0x0 DUP3 PUSH3 0x2E7 JUMP JUMPDEST PUSH1 0x1 DUP2 ADD SWAP1 POP PUSH3 0x304 JUMP JUMPDEST POP POP JUMP JUMPDEST PUSH1 0x1F DUP3 GT ISZERO PUSH3 0x375 JUMPI PUSH3 0x33F DUP2 PUSH3 0x1E9 JUMP JUMPDEST PUSH3 0x34A DUP5 PUSH3 0x1FE JUMP JUMPDEST DUP2 ADD PUSH1 0x20 DUP6 LT ISZERO PUSH3 0x35A JUMPI DUP2 SWAP1 POP JUMPDEST PUSH3 0x372 PUSH3 0x369 DUP6 PUSH3 0x1FE JUMP JUMPDEST DUP4 ADD DUP3 PUSH3 0x303 JUMP JUMPDEST POP POP JUMPDEST POP POP POP JUMP JUMPDEST PUSH1 0x0 DUP3 DUP3 SHR SWAP1 POP SWAP3 SWAP2 POP POP JUMP JUMPDEST PUSH1 0x0 PUSH3 0x39A PUSH1 0x0 NOT DUP5 PUSH1 0x8 MUL PUSH3 0x37A JUMP JUMPDEST NOT DUP1 DUP4 AND SWAP2 POP POP SWAP3 SWAP2 POP POP JUMP JUMPDEST PUSH1 0x0 PUSH3 0x3B5 DUP4 DUP4 PUSH3 0x387 JUMP JUMPDEST SWAP2 POP DUP3 PUSH1 0x2 MUL DUP3 OR SWAP1 POP SWAP3 SWAP2 POP POP JUMP JUMPDEST PUSH3 0x3D0 DUP3 PUSH3 0x14B JUMP JUMPDEST PUSH8 0xFFFFFFFFFFFFFFFF DUP2 GT ISZERO PUSH3 0x3EC JUMPI PUSH3 0x3EB PUSH3 0x156 JUMP JUMPDEST JUMPDEST PUSH3 0x3F8 DUP3 SLOAD PUSH3 0x1B4 JUMP JUMPDEST PUSH3 0x405 DUP3 DUP3 DUP6 PUSH3 0x32A JUMP JUMPDEST PUSH1 0x0 PUSH1 0x20 SWAP1 POP PUSH1 0x1F DUP4 GT PUSH1 0x1 DUP2 EQ PUSH3 0x43D JUMPI PUSH1 0x0 DUP5 ISZERO PUSH3 0x428 JUMPI DUP3 DUP8 ADD MLOAD SWAP1 POP JUMPDEST PUSH3 0x434 DUP6 DUP3 PUSH3 0x3A7 JUMP JUMPDEST DUP7 SSTORE POP PUSH3 0x4A4 JUMP JUMPDEST PUSH1 0x1F NOT DUP5 AND PUSH3 0x44D DUP7 PUSH3 0x1E9 JUMP JUMPDEST PUSH1 0x0 JUMPDEST DUP3 DUP2 LT ISZERO PUSH3 0x477 JUMPI DUP5 DUP10 ADD MLOAD DUP3 SSTORE PUSH1 0x1 DUP3 ADD SWAP2 POP PUSH1 0x20 DUP6 ADD SWAP5 POP PUSH1 0x20 DUP2 ADD SWAP1 POP PUSH3 0x450 JUMP JUMPDEST DUP7 DUP4 LT ISZERO PUSH3 0x497 JUMPI DUP5 DUP10 ADD MLOAD PUSH3 0x493 PUSH1 0x1F DUP10 AND DUP3 PUSH3 0x387 JUMP JUMPDEST DUP4 SSTORE POP JUMPDEST PUSH1 0x1 PUSH1 0x2 DUP9 MUL ADD DUP9 SSTORE POP POP POP JUMPDEST POP POP POP POP POP POP JUMP JUMPDEST PUSH2 0xCB4 DUP1 PUSH3 0x4BC PUSH1 0x0 CODECOPY PUSH1 0x0 RETURN INVALID PUSH1 0x80 PUSH1 0x40 MSTORE CALLVALUE DUP1 ISZERO PUSH2 0x10 JUMPI PUSH1 0x0 DUP1 REVERT JUMPDEST POP PUSH1 0x4 CALLDATASIZE LT PUSH2 0x57 JUMPI PUSH1 0x0 CALLDATALOAD PUSH1 0xE0 SHR DUP1 PUSH4 0x9FBD994 EQ PUSH2 0x5C JUMPI DUP1 PUSH4 0xA4136862 EQ PUSH2 0x7A JUMPI DUP1 PUSH4 0xCFAE3217 EQ PUSH2 0x96 JUMPI DUP1 PUSH4 0xEF690CC0 EQ PUSH2 0xB4 JUMPI DUP1 PUSH4 0xF87C9EA9 EQ PUSH2 0xD2 JUMPI JUMPDEST PUSH1 0x0 DUP1 REVERT JUMPDEST PUSH2 0x64 PUSH2 0x103 JUMP JUMPDEST PUSH1 0x40 MLOAD PUSH2 0x71 SWAP2 SWAP1 PUSH2 0x6DE JUMP JUMPDEST PUSH1 0x40 MLOAD DUP1 SWAP2 SUB SWAP1 RETURN JUMPDEST PUSH2 0x94 PUSH1 0x4 DUP1 CALLDATASIZE SUB DUP2 ADD SWAP1 PUSH2 0x8F SWAP2 SWAP1 PUSH2 0x849 JUMP JUMPDEST PUSH2 0x24A JUMP JUMPDEST STOP JUMPDEST PUSH2 0x9E PUSH2 0x312 JUMP JUMPDEST PUSH1 0x40 MLOAD PUSH2 0xAB SWAP2 SWAP1 PUSH2 0x8DC JUMP JUMPDEST PUSH1 0x40 MLOAD DUP1 SWAP2 SUB SWAP1 RETURN JUMPDEST PUSH2 0xBC PUSH2 0x3A4 JUMP JUMPDEST PUSH1 0x40 MLOAD PUSH2 0xC9 SWAP2 SWAP1 PUSH2 0x8DC JUMP JUMPDEST PUSH1 0x40 MLOAD DUP1 SWAP2 SUB SWAP1 RETURN JUMPDEST PUSH2 0xEC PUSH1 0x4 DUP1 CALLDATASIZE SUB DUP2 ADD SWAP1 PUSH2 0xE7 SWAP2 SWAP1 PUSH2 0x934 JUMP JUMPDEST PUSH2 0x432 JUMP JUMPDEST PUSH1 0x40 MLOAD PUSH2 0xFA SWAP3 SWAP2 SWAP1 PUSH2 0x970 JUMP JUMPDEST PUSH1 0x40 MLOAD DUP1 SWAP2 SUB SWAP1 RETURN JUMPDEST PUSH1 0x60 PUSH1 0x1 DUP1 SLOAD DUP1 PUSH1 0x20 MUL PUSH1 0x20 ADD PUSH1 0x40 MLOAD SWAP1 DUP2 ADD PUSH1 0x40 MSTORE DUP1 SWAP3 SWAP2 SWAP1 DUP2 DUP2 MSTORE PUSH1 0x20 ADD PUSH1 0x0 SWAP1 JUMPDEST DUP3 DUP3 LT ISZERO PUSH2 0x241 JUMPI DUP4 DUP3 SWAP1 PUSH1 0x0 MSTORE PUSH1 0x20 PUSH1 0x0 KECCAK256 SWAP1 PUSH1 0x2 MUL ADD PUSH1 0x40 MLOAD DUP1 PUSH1 0x40 ADD PUSH1 0x40 MSTORE SWAP1 DUP2 PUSH1 0x0 DUP3 ADD PUSH1 0x0 SWAP1 SLOAD SWAP1 PUSH2 0x100 EXP SWAP1 DIV PUSH20 0xFFFFFFFFFFFFFFFFFFFFFFFFFFFFFFFFFFFFFFFF AND PUSH20 0xFFFFFFFFFFFFFFFFFFFFFFFFFFFFFFFFFFFFFFFF AND PUSH20 0xFFFFFFFFFFFFFFFFFFFFFFFFFFFFFFFFFFFFFFFF AND DUP2 MSTORE PUSH1 0x20 ADD PUSH1 0x1 DUP3 ADD DUP1 SLOAD PUSH2 0x1B0 SWAP1 PUSH2 0x9CF JUMP JUMPDEST DUP1 PUSH1 0x1F ADD PUSH1 0x20 DUP1 SWAP2 DIV MUL PUSH1 0x20 ADD PUSH1 0x40 MLOAD SWAP1 DUP2 ADD PUSH1 0x40 MSTORE DUP1 SWAP3 SWAP2 SWAP1 DUP2 DUP2 MSTORE PUSH1 0x20 ADD DUP3 DUP1 SLOAD PUSH2 0x1DC SWAP1 PUSH2 0x9CF JUMP JUMPDEST DUP1 ISZERO PUSH2 0x229 JUMPI DUP1 PUSH1 0x1F LT PUSH2 0x1FE JUMPI PUSH2 0x100 DUP1 DUP4 SLOAD DIV MUL DUP4 MSTORE SWAP2 PUSH1 0x20 ADD SWAP2 PUSH2 0x229 JUMP JUMPDEST DUP3 ADD SWAP2 SWAP1 PUSH1 0x0 MSTORE PUSH1 0x20 PUSH1 0x0 KECCAK256 SWAP1 JUMPDEST DUP2 SLOAD DUP2 MSTORE SWAP1 PUSH1 0x1 ADD SWAP1 PUSH1 0x20 ADD DUP1 DUP4 GT PUSH2 0x20C JUMPI DUP3 SWAP1 SUB PUSH1 0x1F AND DUP3 ADD SWAP2 JUMPDEST POP POP POP POP POP DUP2 MSTORE POP POP DUP2 MSTORE PUSH1 0x20 ADD SWAP1 PUSH1 0x1 ADD SWAP1 PUSH2 0x127 JUMP JUMPDEST POP POP POP POP SWAP1 POP SWAP1 JUMP JUMPDEST DUP1 PUSH1 0x0 SWAP1 DUP2 PUSH2 0x259 SWAP2 SWAP1 PUSH2 0xBAC JUMP JUMPDEST POP PUSH1 0x1 PUSH1 0x40 MLOAD DUP1 PUSH1 0x40 ADD PUSH1 0x40 MSTORE DUP1 CALLER PUSH20 0xFFFFFFFFFFFFFFFFFFFFFFFFFFFFFFFFFFFFFFFF AND DUP2 MSTORE PUSH1 0x20 ADD DUP4 DUP2 MSTORE POP SWAP1 DUP1 PUSH1 0x1 DUP2 SLOAD ADD DUP1 DUP3 SSTORE DUP1 SWAP2 POP POP PUSH1 0x1 SWAP1 SUB SWAP1 PUSH1 0x0 MSTORE PUSH1 0x20 PUSH1 0x0 KECCAK256 SWAP1 PUSH1 0x2 MUL ADD PUSH1 0x0 SWAP1 SWAP2 SWAP1 SWAP2 SWAP1 SWAP2 POP PUSH1 0x0 DUP3 ADD MLOAD DUP2 PUSH1 0x0 ADD PUSH1 0x0 PUSH2 0x100 EXP DUP2 SLOAD DUP2 PUSH20 0xFFFFFFFFFFFFFFFFFFFFFFFFFFFFFFFFFFFFFFFF MUL NOT AND SWAP1 DUP4 PUSH20 0xFFFFFFFFFFFFFFFFFFFFFFFFFFFFFFFFFFFFFFFF AND MUL OR SWAP1 SSTORE POP PUSH1 0x20 DUP3 ADD MLOAD DUP2 PUSH1 0x1 ADD SWAP1 DUP2 PUSH2 0x30C SWAP2 SWAP1 PUSH2 0xBAC JUMP JUMPDEST POP POP POP POP JUMP JUMPDEST PUSH1 0x60 PUSH1 0x0 DUP1 SLOAD PUSH2 0x321 SWAP1 PUSH2 0x9CF JUMP JUMPDEST DUP1 PUSH1 0x1F ADD PUSH1 0x20 DUP1 SWAP2 DIV MUL PUSH1 0x20 ADD PUSH1 0x40 MLOAD SWAP1 DUP2 ADD PUSH1 0x40 MSTORE DUP1 SWAP3 SWAP2 SWAP1 DUP2 DUP2 MSTORE PUSH1 0x20 ADD DUP3 DUP1 SLOAD PUSH2 0x34D SWAP1 PUSH2 0x9CF JUMP JUMPDEST DUP1 ISZERO PUSH2 0x39A JUMPI DUP1 PUSH1 0x1F LT PUSH2 0x36F JUMPI PUSH2 0x100 DUP1 DUP4 SLOAD DIV MUL DUP4 MSTORE SWAP2 PUSH1 0x20 ADD SWAP2 PUSH2 0x39A JUMP JUMPDEST DUP3 ADD SWAP2 SWAP1 PUSH1 0x0 MSTORE PUSH1 0x20 PUSH1 0x0 KECCAK256 SWAP1 JUMPDEST DUP2 SLOAD DUP2 MSTORE SWAP1 PUSH1 0x1 ADD SWAP1 PUSH1 0x20 ADD DUP1 DUP4 GT PUSH2 0x37D JUMPI DUP3 SWAP1 SUB PUSH1 0x1F AND DUP3 ADD SWAP2 JUMPDEST POP POP POP POP POP SWAP1 POP SWAP1 JUMP JUMPDEST PUSH1 0x0 DUP1 SLOAD PUSH2 0x3B1 SWAP1 PUSH2 0x9CF JUMP JUMPDEST DUP1 PUSH1 0x1F ADD PUSH1 0x20 DUP1 SWAP2 DIV MUL PUSH1 0x20 ADD PUSH1 0x40 MLOAD SWAP1 DUP2 ADD PUSH1 0x40 MSTORE DUP1 SWAP3 SWAP2 SWAP1 DUP2 DUP2 MSTORE PUSH1 0x20 ADD DUP3 DUP1 SLOAD PUSH2 0x3DD SWAP1 PUSH2 0x9CF JUMP JUMPDEST DUP1 ISZERO PUSH2 0x42A JUMPI DUP1 PUSH1 0x1F LT PUSH2 0x3FF JUMPI PUSH2 0x100 DUP1 DUP4 SLOAD DIV MUL DUP4 MSTORE SWAP2 PUSH1 0x20 ADD SWAP2 PUSH2 0x42A JUMP JUMPDEST DUP3 ADD SWAP2 SWAP1 PUSH1 0x0 MSTORE PUSH1 0x20 PUSH1 0x0 KECCAK256 SWAP1 JUMPDEST DUP2 SLOAD DUP2 MSTORE SWAP1 PUSH1 0x1 ADD SWAP1 PUSH1 0x20 ADD DUP1 DUP4 GT PUSH2 0x40D JUMPI DUP3 SWAP1 SUB PUSH1 0x1F AND DUP3 ADD SWAP2 JUMPDEST POP POP POP POP POP DUP2 JUMP JUMPDEST PUSH1 0x1 DUP2 DUP2 SLOAD DUP2 LT PUSH2 0x442 JUMPI PUSH1 0x0 DUP1 REVERT JUMPDEST SWAP1 PUSH1 0x0 MSTORE PUSH1 0x20 PUSH1 0x0 KECCAK256 SWAP1 PUSH1 0x2 MUL ADD PUSH1 0x0 SWAP2 POP SWAP1 POP DUP1 PUSH1 0x0 ADD PUSH1 0x0 SWAP1 SLOAD SWAP1 PUSH2 0x100 EXP SWAP1 DIV PUSH20 0xFFFFFFFFFFFFFFFFFFFFFFFFFFFFFFFFFFFFFFFF AND SWAP1 DUP1 PUSH1 0x1 ADD DUP1 SLOAD PUSH2 0x48B SWAP1 PUSH2 0x9CF JUMP JUMPDEST DUP1 PUSH1 0x1F ADD PUSH1 0x20 DUP1 SWAP2 DIV MUL PUSH1 0x20 ADD PUSH1 0x40 MLOAD SWAP1 DUP2 ADD PUSH1 0x40 MSTORE DUP1 SWAP3 SWAP2 SWAP1 DUP2 DUP2 MSTORE PUSH1 0x20 ADD DUP3 DUP1 SLOAD PUSH2 0x4B7 SWAP1 PUSH2 0x9CF JUMP JUMPDEST DUP1 ISZERO PUSH2 0x504 JUMPI DUP1 PUSH1 0x1F LT PUSH2 0x4D9 JUMPI PUSH2 0x100 DUP1 DUP4 SLOAD DIV MUL DUP4 MSTORE SWAP2 PUSH1 0x20 ADD SWAP2 PUSH2 0x504 JUMP JUMPDEST DUP3 ADD SWAP2 SWAP1 PUSH1 0x0 MSTORE PUSH1 0x20 PUSH1 0x0 KECCAK256 SWAP1 JUMPDEST DUP2 SLOAD DUP2 MSTORE SWAP1 PUSH1 0x1 ADD SWAP1 PUSH1 0x20 ADD DUP1 DUP4 GT PUSH2 0x4E7 JUMPI DUP3 SWAP1 SUB PUSH1 0x1F AND DUP3 ADD SWAP2 JUMPDEST POP POP POP POP POP SWAP1 POP DUP3 JUMP JUMPDEST PUSH1 0x0 DUP2 MLOAD SWAP1 POP SWAP2 SWAP1 POP JUMP JUMPDEST PUSH1 0x0 DUP3 DUP3 MSTORE PUSH1 0x20 DUP3 ADD SWAP1 POP SWAP3 SWAP2 POP POP JUMP JUMPDEST PUSH1 0x0 DUP2 SWAP1 POP PUSH1 0x20 DUP3 ADD SWAP1 POP SWAP2 SWAP1 POP JUMP JUMPDEST PUSH1 0x0 PUSH20 0xFFFFFFFFFFFFFFFFFFFFFFFFFFFFFFFFFFFFFFFF DUP3 AND SWAP1 POP SWAP2 SWAP1 POP JUMP JUMPDEST PUSH1 0x0 PUSH2 0x565 DUP3 PUSH2 0x53A JUMP JUMPDEST SWAP1 POP SWAP2 SWAP1 POP JUMP JUMPDEST PUSH2 0x575 DUP2 PUSH2 0x55A JUMP JUMPDEST DUP3 MSTORE POP POP JUMP JUMPDEST PUSH1 0x0 DUP2 MLOAD SWAP1 POP SWAP2 SWAP1 POP JUMP JUMPDEST PUSH1 0x0 DUP3 DUP3 MSTORE PUSH1 0x20 DUP3 ADD SWAP1 POP SWAP3 SWAP2 POP POP JUMP JUMPDEST PUSH1 0x0 JUMPDEST DUP4 DUP2 LT ISZERO PUSH2 0x5B5 JUMPI DUP1 DUP3 ADD MLOAD DUP2 DUP5 ADD MSTORE PUSH1 0x20 DUP2 ADD SWAP1 POP PUSH2 0x59A JUMP JUMPDEST PUSH1 0x0 DUP5 DUP5 ADD MSTORE POP POP POP POP JUMP JUMPDEST PUSH1 0x0 PUSH1 0x1F NOT PUSH1 0x1F DUP4 ADD AND SWAP1 POP SWAP2 SWAP1 POP JUMP JUMPDEST PUSH1 0x0 PUSH2 0x5DD DUP3 PUSH2 0x57B JUMP JUMPDEST PUSH2 0x5E7 DUP2 DUP6 PUSH2 0x586 JUMP JUMPDEST SWAP4 POP PUSH2 0x5F7 DUP2 DUP6 PUSH1 0x20 DUP7 ADD PUSH2 0x597 JUMP JUMPDEST PUSH2 0x600 DUP2 PUSH2 0x5C1 JUMP JUMPDEST DUP5 ADD SWAP2 POP POP SWAP3 SWAP2 POP POP JUMP JUMPDEST PUSH1 0x0 PUSH1 0x40 DUP4 ADD PUSH1 0x0 DUP4 ADD MLOAD PUSH2 0x623 PUSH1 0x0 DUP7 ADD DUP3 PUSH2 0x56C JUMP JUMPDEST POP PUSH1 0x20 DUP4 ADD MLOAD DUP5 DUP3 SUB PUSH1 0x20 DUP7 ADD MSTORE PUSH2 0x63B DUP3 DUP3 PUSH2 0x5D2 JUMP JUMPDEST SWAP2 POP POP DUP1 SWAP2 POP POP SWAP3 SWAP2 POP POP JUMP JUMPDEST PUSH1 0x0 PUSH2 0x654 DUP4 DUP4 PUSH2 0x60B JUMP JUMPDEST SWAP1 POP SWAP3 SWAP2 POP POP JUMP JUMPDEST PUSH1 0x0 PUSH1 0x20 DUP3 ADD SWAP1 POP SWAP2 SWAP1 POP JUMP JUMPDEST PUSH1 0x0 PUSH2 0x674 DUP3 PUSH2 0x50E JUMP JUMPDEST PUSH2 0x67E DUP2 DUP6 PUSH2 0x519 JUMP JUMPDEST SWAP4 POP DUP4 PUSH1 0x20 DUP3 MUL DUP6 ADD PUSH2 0x690 DUP6 PUSH2 0x52A JUMP JUMPDEST DUP1 PUSH1 0x0 JUMPDEST DUP6 DUP2 LT ISZERO PUSH2 0x6CC JUMPI DUP5 DUP5 SUB DUP10 MSTORE DUP2 MLOAD PUSH2 0x6AD DUP6 DUP3 PUSH2 0x648 JUMP JUMPDEST SWAP5 POP PUSH2 0x6B8 DUP4 PUSH2 0x65C JUMP JUMPDEST SWAP3 POP PUSH1 0x20 DUP11 ADD SWAP10 POP POP PUSH1 0x1 DUP2 ADD SWAP1 POP PUSH2 0x694 JUMP JUMPDEST POP DUP3 SWAP8 POP DUP8 SWAP6 POP POP POP POP POP POP SWAP3 SWAP2 POP POP JUMP JUMPDEST PUSH1 0x0 PUSH1 0x20 DUP3 ADD SWAP1 POP DUP2 DUP2 SUB PUSH1 0x0 DUP4 ADD MSTORE PUSH2 0x6F8 DUP2 DUP5 PUSH2 0x669 JUMP JUMPDEST SWAP1 POP SWAP3 SWAP2 POP POP JUMP JUMPDEST PUSH1 0x0 PUSH1 0x40 MLOAD SWAP1 POP SWAP1 JUMP JUMPDEST PUSH1 0x0 DUP1 REVERT JUMPDEST PUSH1 0x0 DUP1 REVERT JUMPDEST PUSH1 0x0 DUP1 REVERT JUMPDEST PUSH1 0x0 DUP1 REVERT JUMPDEST PUSH32 0x4E487B7100000000000000000000000000000000000000000000000000000000 PUSH1 0x0 MSTORE PUSH1 0x41 PUSH1 0x4 MSTORE PUSH1 0x24 PUSH1 0x0 REVERT JUMPDEST PUSH2 0x756 DUP3 PUSH2 0x5C1 JUMP JUMPDEST DUP2 ADD DUP2 DUP2 LT PUSH8 0xFFFFFFFFFFFFFFFF DUP3 GT OR ISZERO PUSH2 0x775 JUMPI PUSH2 0x774 PUSH2 0x71E JUMP JUMPDEST JUMPDEST DUP1 PUSH1 0x40 MSTORE POP POP POP JUMP JUMPDEST PUSH1 0x0 PUSH2 0x788 PUSH2 0x700 JUMP JUMPDEST SWAP1 POP PUSH2 0x794 DUP3 DUP3 PUSH2 0x74D JUMP JUMPDEST SWAP2 SWAP1 POP JUMP JUMPDEST PUSH1 0x0 PUSH8 0xFFFFFFFFFFFFFFFF DUP3 GT ISZERO PUSH2 0x7B4 JUMPI PUSH2 0x7B3 PUSH2 0x71E JUMP JUMPDEST JUMPDEST PUSH2 0x7BD DUP3 PUSH2 0x5C1 JUMP JUMPDEST SWAP1 POP PUSH1 0x20 DUP2 ADD SWAP1 POP SWAP2 SWAP1 POP JUMP JUMPDEST DUP3 DUP2 DUP4 CALLDATACOPY PUSH1 0x0 DUP4 DUP4 ADD MSTORE POP POP POP JUMP JUMPDEST PUSH1 0x0 PUSH2 0x7EC PUSH2 0x7E7 DUP5 PUSH2 0x799 JUMP JUMPDEST PUSH2 0x77E JUMP JUMPDEST SWAP1 POP DUP3 DUP2 MSTORE PUSH1 0x20 DUP2 ADD DUP5 DUP5 DUP5 ADD GT ISZERO PUSH2 0x808 JUMPI PUSH2 0x807 PUSH2 0x719 JUMP JUMPDEST JUMPDEST PUSH2 0x813 DUP5 DUP3 DUP6 PUSH2 0x7CA JUMP JUMPDEST POP SWAP4 SWAP3 POP POP POP JUMP JUMPDEST PUSH1 0x0 DUP3 PUSH1 0x1F DUP4 ADD SLT PUSH2 0x830 JUMPI PUSH2 0x82F PUSH2 0x714 JUMP JUMPDEST JUMPDEST DUP2 CALLDATALOAD PUSH2 0x840 DUP5 DUP3 PUSH1 0x20 DUP7 ADD PUSH2 0x7D9 JUMP JUMPDEST SWAP2 POP POP SWAP3 SWAP2 POP POP JUMP JUMPDEST PUSH1 0x0 PUSH1 0x20 DUP3 DUP5 SUB SLT ISZERO PUSH2 0x85F JUMPI PUSH2 0x85E PUSH2 0x70A JUMP JUMPDEST JUMPDEST PUSH1 0x0 DUP3 ADD CALLDATALOAD PUSH8 0xFFFFFFFFFFFFFFFF DUP2 GT ISZERO PUSH2 0x87D JUMPI PUSH2 0x87C PUSH2 0x70F JUMP JUMPDEST JUMPDEST PUSH2 0x889 DUP5 DUP3 DUP6 ADD PUSH2 0x81B JUMP JUMPDEST SWAP2 POP POP SWAP3 SWAP2 POP POP JUMP JUMPDEST PUSH1 0x0 DUP3 DUP3 MSTORE PUSH1 0x20 DUP3 ADD SWAP1 POP SWAP3 SWAP2 POP POP JUMP JUMPDEST PUSH1 0x0 PUSH2 0x8AE DUP3 PUSH2 0x57B JUMP JUMPDEST PUSH2 0x8B8 DUP2 DUP6 PUSH2 0x892 JUMP JUMPDEST SWAP4 POP PUSH2 0x8C8 DUP2 DUP6 PUSH1 0x20 DUP7 ADD PUSH2 0x597 JUMP JUMPDEST PUSH2 0x8D1 DUP2 PUSH2 0x5C1 JUMP JUMPDEST DUP5 ADD SWAP2 POP POP SWAP3 SWAP2 POP POP JUMP JUMPDEST PUSH1 0x0 PUSH1 0x20 DUP3 ADD SWAP1 POP DUP2 DUP2 SUB PUSH1 0x0 DUP4 ADD MSTORE PUSH2 0x8F6 DUP2 DUP5 PUSH2 0x8A3 JUMP JUMPDEST SWAP1 POP SWAP3 SWAP2 POP POP JUMP JUMPDEST PUSH1 0x0 DUP2 SWAP1 POP SWAP2 SWAP1 POP JUMP JUMPDEST PUSH2 0x911 DUP2 PUSH2 0x8FE JUMP JUMPDEST DUP2 EQ PUSH2 0x91C JUMPI PUSH1 0x0 DUP1 REVERT JUMPDEST POP JUMP JUMPDEST PUSH1 0x0 DUP2 CALLDATALOAD SWAP1 POP PUSH2 0x92E DUP2 PUSH2 0x908 JUMP JUMPDEST SWAP3 SWAP2 POP POP JUMP JUMPDEST PUSH1 0x0 PUSH1 0x20 DUP3 DUP5 SUB SLT ISZERO PUSH2 0x94A JUMPI PUSH2 0x949 PUSH2 0x70A JUMP JUMPDEST JUMPDEST PUSH1 0x0 PUSH2 0x958 DUP5 DUP3 DUP6 ADD PUSH2 0x91F JUMP JUMPDEST SWAP2 POP POP SWAP3 SWAP2 POP POP JUMP JUMPDEST PUSH2 0x96A DUP2 PUSH2 0x55A JUMP JUMPDEST DUP3 MSTORE POP POP JUMP JUMPDEST PUSH1 0x0 PUSH1 0x40 DUP3 ADD SWAP1 POP PUSH2 0x985 PUSH1 0x0 DUP4 ADD DUP6 PUSH2 0x961 JUMP JUMPDEST DUP2 DUP2 SUB PUSH1 0x20 DUP4 ADD MSTORE PUSH2 0x997 DUP2 DUP5 PUSH2 0x8A3 JUMP JUMPDEST SWAP1 POP SWAP4 SWAP3 POP POP POP JUMP JUMPDEST PUSH32 0x4E487B7100000000000000000000000000000000000000000000000000000000 PUSH1 0x0 MSTORE PUSH1 0x22 PUSH1 0x4 MSTORE PUSH1 0x24 PUSH1 0x0 REVERT JUMPDEST PUSH1 0x0 PUSH1 0x2 DUP3 DIV SWAP1 POP PUSH1 0x1 DUP3 AND DUP1 PUSH2 0x9E7 JUMPI PUSH1 0x7F DUP3 AND SWAP2 POP JUMPDEST PUSH1 0x20 DUP3 LT DUP2 SUB PUSH2 0x9FA JUMPI PUSH2 0x9F9 PUSH2 0x9A0 JUMP JUMPDEST JUMPDEST POP SWAP2 SWAP1 POP JUMP JUMPDEST PUSH1 0x0 DUP2 SWAP1 POP DUP2 PUSH1 0x0 MSTORE PUSH1 0x20 PUSH1 0x0 KECCAK256 SWAP1 POP SWAP2 SWAP1 POP JUMP JUMPDEST PUSH1 0x0 PUSH1 0x20 PUSH1 0x1F DUP4 ADD DIV SWAP1 POP SWAP2 SWAP1 POP JUMP JUMPDEST PUSH1 0x0 DUP3 DUP3 SHL SWAP1 POP SWAP3 SWAP2 POP POP JUMP JUMPDEST PUSH1 0x0 PUSH1 0x8 DUP4 MUL PUSH2 0xA62 PUSH32 0xFFFFFFFFFFFFFFFFFFFFFFFFFFFFFFFFFFFFFFFFFFFFFFFFFFFFFFFFFFFFFFFF DUP3 PUSH2 0xA25 JUMP JUMPDEST PUSH2 0xA6C DUP7 DUP4 PUSH2 0xA25 JUMP JUMPDEST SWAP6 POP DUP1 NOT DUP5 AND SWAP4 POP DUP1 DUP7 AND DUP5 OR SWAP3 POP POP POP SWAP4 SWAP3 POP POP POP JUMP JUMPDEST PUSH1 0x0 DUP2 SWAP1 POP SWAP2 SWAP1 POP JUMP JUMPDEST PUSH1 0x0 PUSH2 0xAA9 PUSH2 0xAA4 PUSH2 0xA9F DUP5 PUSH2 0x8FE JUMP JUMPDEST PUSH2 0xA84 JUMP JUMPDEST PUSH2 0x8FE JUMP JUMPDEST SWAP1 POP SWAP2 SWAP1 POP JUMP JUMPDEST PUSH1 0x0 DUP2 SWAP1 POP SWAP2 SWAP1 POP JUMP JUMPDEST PUSH2 0xAC3 DUP4 PUSH2 0xA8E JUMP JUMPDEST PUSH2 0xAD7 PUSH2 0xACF DUP3 PUSH2 0xAB0 JUMP JUMPDEST DUP5 DUP5 SLOAD PUSH2 0xA32 JUMP JUMPDEST DUP3 SSTORE POP POP POP POP JUMP JUMPDEST PUSH1 0x0 SWAP1 JUMP JUMPDEST PUSH2 0xAEC PUSH2 0xADF JUMP JUMPDEST PUSH2 0xAF7 DUP2 DUP5 DUP5 PUSH2 0xABA JUMP JUMPDEST POP POP POP JUMP JUMPDEST JUMPDEST DUP2 DUP2 LT ISZERO PUSH2 0xB1B JUMPI PUSH2 0xB10 PUSH1 0x0 DUP3 PUSH2 0xAE4 JUMP JUMPDEST PUSH1 0x1 DUP2 ADD SWAP1 POP PUSH2 0xAFD JUMP JUMPDEST POP POP JUMP JUMPDEST PUSH1 0x1F DUP3 GT ISZERO PUSH2 0xB60 JUMPI PUSH2 0xB31 DUP2 PUSH2 0xA00 JUMP JUMPDEST PUSH2 0xB3A DUP5 PUSH2 0xA15 JUMP JUMPDEST DUP2 ADD PUSH1 0x20 DUP6 LT ISZERO PUSH2 0xB49 JUMPI DUP2 SWAP1 POP JUMPDEST PUSH2 0xB5D PUSH2 0xB55 DUP6 PUSH2 0xA15 JUMP JUMPDEST DUP4 ADD DUP3 PUSH2 0xAFC JUMP JUMPDEST POP POP JUMPDEST POP POP POP JUMP JUMPDEST PUSH1 0x0 DUP3 DUP3 SHR SWAP1 POP SWAP3 SWAP2 POP POP JUMP JUMPDEST PUSH1 0x0 PUSH2 0xB83 PUSH1 0x0 NOT DUP5 PUSH1 0x8 MUL PUSH2 0xB65 JUMP JUMPDEST NOT DUP1 DUP4 AND SWAP2 POP POP SWAP3 SWAP2 POP POP JUMP JUMPDEST PUSH1 0x0 PUSH2 0xB9C DUP4 DUP4 PUSH2 0xB72 JUMP JUMPDEST SWAP2 POP DUP3 PUSH1 0x2 MUL DUP3 OR SWAP1 POP SWAP3 SWAP2 POP POP JUMP JUMPDEST PUSH2 0xBB5 DUP3 PUSH2 0x57B JUMP JUMPDEST PUSH8 0xFFFFFFFFFFFFFFFF DUP2 GT ISZERO PUSH2 0xBCE JUMPI PUSH2 0xBCD PUSH2 0x71E JUMP JUMPDEST JUMPDEST PUSH2 0xBD8 DUP3 SLOAD PUSH2 0x9CF JUMP JUMPDEST PUSH2 0xBE3 DUP3 DUP3 DUP6 PUSH2 0xB1F JUMP JUMPDEST PUSH1 0x0 PUSH1 0x20 SWAP1 POP PUSH1 0x1F DUP4 GT PUSH1 0x1 DUP2 EQ PUSH2 0xC16 JUMPI PUSH1 0x0 DUP5 ISZERO PUSH2 0xC04 JUMPI DUP3 DUP8 ADD MLOAD SWAP1 POP JUMPDEST PUSH2 0xC0E DUP6 DUP3 PUSH2 0xB90 JUMP JUMPDEST DUP7 SSTORE POP PUSH2 0xC76 JUMP JUMPDEST PUSH1 0x1F NOT DUP5 AND PUSH2 0xC24 DUP7 PUSH2 0xA00 JUMP JUMPDEST PUSH1 0x0 JUMPDEST DUP3 DUP2 LT ISZERO PUSH2 0xC4C JUMPI DUP5 DUP10 ADD MLOAD DUP3 SSTORE PUSH1 0x1 DUP3 ADD SWAP2 POP PUSH1 0x20 DUP6 ADD SWAP5 POP PUSH1 0x20 DUP2 ADD SWAP1 POP PUSH2 0xC27 JUMP JUMPDEST DUP7 DUP4 LT ISZERO PUSH2 0xC69 JUMPI DUP5 DUP10 ADD MLOAD PUSH2 0xC65 PUSH1 0x1F DUP10 AND DUP3 PUSH2 0xB72 JUMP JUMPDEST DUP4 SSTORE POP JUMPDEST PUSH1 0x1 PUSH1 0x2 DUP9 MUL ADD DUP9 SSTORE POP POP POP JUMPDEST POP POP POP POP POP POP JUMP INVALID LOG2 PUSH5 0x6970667358 0x22 SLT KECCAK256 SELFDESTRUCT PUSH25 0xF1A4BDA43422458E78F95CF2441E07D0F1A5166C4D13C10757 0x4F 0xAF GASLIMIT 0x25 SMOD PUSH5 0x736F6C6343 STOP ADDMOD SLT STOP CALLER "
				},
				"gasEstimates": {
					"creation": {
						"codeDepositCost": "650400",
						"executionCost": "infinite",
						"totalCost": "infinite"
					},
					"external": {
						"greet()": "infinite",
						"greeting()": "infinite",
						"greetingHistory()": "infinite",
						"greetings(uint256)": "infinite",
						"setGreeting(string)": "infinite"
					}
				},
				"methodIdentifiers": {
					"greet()": "cfae3217",
					"greeting()": "ef690cc0",
					"greetingHistory()": "09fbd994",
					"greetings(uint256)": "f87c9ea9",
					"setGreeting(string)": "a4136862"
				}
			},
			"storageLayout": {
				"storage": [
					{
						"astId": 3,
						"contract": "Practice_1/1_Greeter.sol:Greeter",
						"label": "greeting",
						"offset": 0,
						"slot": "0",
						"type": "t_string_storage"
					},
					{
						"astId": 12,
						"contract": "Practice_1/1_Greeter.sol:Greeter",
						"label": "greetings",
						"offset": 0,
						"slot": "1",
						"type": "t_array(t_struct(Greeting)8_storage)dyn_storage"
					}
				],
				"types": {
					"t_address": {
						"encoding": "inplace",
						"label": "address",
						"numberOfBytes": "20"
					},
					"t_array(t_struct(Greeting)8_storage)dyn_storage": {
						"base": "t_struct(Greeting)8_storage",
						"encoding": "dynamic_array",
						"label": "struct Greeter.Greeting[]",
						"numberOfBytes": "32"
					},
					"t_string_storage": {
						"encoding": "bytes",
						"label": "string",
						"numberOfBytes": "32"
					},
					"t_struct(Greeting)8_storage": {
						"encoding": "inplace",
						"label": "struct Greeter.Greeting",
						"members": [
							{
								"astId": 5,
								"contract": "Practice_1/1_Greeter.sol:Greeter",
								"label": "sender",
								"offset": 0,
								"slot": "0",
								"type": "t_address"
							},
							{
								"astId": 7,
								"contract": "Practice_1/1_Greeter.sol:Greeter",
								"label": "message",
								"offset": 0,
								"slot": "1",
								"type": "t_string_storage"
							}
						],
						"numberOfBytes": "64"
					}
				}
			},
			"userdoc": {
				"kind": "user",
				"methods": {},
				"version": 1
			}
		}
	}
}