{
	"Practice_1/3_RandomNumberGame.sol": {
		"RandomNumberGame": {
			"abi": [
				{
					"inputs": [],
					"stateMutability": "payable",
					"type": "constructor"
				},
				{
					"anonymous": false,
					"inputs": [
						{
							"indexed": false,
							"internalType": "string",
							"name": "_message",
							"type": "string"
						}
					],
					"name": "messageEvent",
					"type": "event"
				},
				{
					"inputs": [],
					"name": "getMessage",
					"outputs": [
						{
							"internalType": "string",
							"name": "",
							"type": "string"
						}
					],
					"stateMutability": "view",
					"type": "function"
				},
				{
					"inputs": [
						{
							"internalType": "uint256",
							"name": "_guessNumber",
							"type": "uint256"
						}
					],
					"name": "guess",
					"outputs": [],
					"stateMutability": "payable",
					"type": "function"
				},
				{
					"inputs": [],
					"name": "guessNumer",
					"outputs": [
						{
							"internalType": "uint256",
							"name": "",
							"type": "uint256"
						}
					],
					"stateMutability": "view",
					"type": "function"
				},
				{
					"inputs": [],
					"name": "message",
					"outputs": [
						{
							"internalType": "enum RandomNumberGame.Message",
							"name": "",
							"type": "uint8"
						}
					],
					"stateMutability": "view",
					"type": "function"
				},
				{
					"inputs": [],
					"name": "winner",
					"outputs": [
						{
							"internalType": "address payable",
							"name": "",
							"type": "address"
						}
					],
					"stateMutability": "view",
					"type": "function"
				}
			],
			"devdoc": {
				"kind": "dev",
				"methods": {},
				"version": 1
			},
			"evm": {
				"assembly": "    /* \"Practice_1/3_RandomNumberGame.sol\":60:2170  contract RandomNumberGame {... */\n  mstore(0x40, 0x80)\n    /* \"Practice_1/3_RandomNumberGame.sol\":676:698  generateRandomNumber() */\n  tag_3\n    /* \"Practice_1/3_RandomNumberGame.sol\":676:696  generateRandomNumber */\n  shl(0x20, tag_4)\n    /* \"Practice_1/3_RandomNumberGame.sol\":676:698  generateRandomNumber() */\n  0x20\n  shr\n  jump\t// in\ntag_3:\n    /* \"Practice_1/3_RandomNumberGame.sol\":661:673  randomNumber */\n  0x00\n    /* \"Practice_1/3_RandomNumberGame.sol\":661:698  randomNumber = generateRandomNumber() */\n  dup2\n  swap1\n  sstore\n  pop\n    /* \"Practice_1/3_RandomNumberGame.sol\":60:2170  contract RandomNumberGame {... */\n  jump(tag_5)\n    /* \"Practice_1/3_RandomNumberGame.sol\":1595:1780  function generateRandomNumber() private view returns (uint256) {... */\ntag_4:\n    /* \"Practice_1/3_RandomNumberGame.sol\":1649:1656  uint256 */\n  0x00\n    /* \"Practice_1/3_RandomNumberGame.sol\":1771:1772  1 */\n  0x01\n    /* \"Practice_1/3_RandomNumberGame.sol\":1765:1768  100 */\n  0x64\n    /* \"Practice_1/3_RandomNumberGame.sol\":1743:1759  block.prevrandao */\n  prevrandao\n    /* \"Practice_1/3_RandomNumberGame.sol\":1725:1740  block.timestamp */\n  timestamp\n    /* \"Practice_1/3_RandomNumberGame.sol\":1725:1759  block.timestamp + block.prevrandao */\n  tag_7\n  swap2\n  swap1\n  tag_8\n  jump\t// in\ntag_7:\n    /* \"Practice_1/3_RandomNumberGame.sol\":1694:1760  abi.encodePacked(... */\n  add(0x20, mload(0x40))\n  tag_9\n  swap2\n  swap1\n  tag_10\n  jump\t// in\ntag_9:\n  mload(0x40)\n  0x20\n  dup2\n  dup4\n  sub\n  sub\n  dup2\n  mstore\n  swap1\n  0x40\n  mstore\n    /* \"Practice_1/3_RandomNumberGame.sol\":1684:1761  keccak256(abi.encodePacked(... */\n  dup1\n  mload\n  swap1\n  0x20\n  add\n  keccak256\n    /* \"Practice_1/3_RandomNumberGame.sol\":1676:1762  uint256(keccak256(abi.encodePacked(... */\n  0x00\n  shr\n    /* \"Practice_1/3_RandomNumberGame.sol\":1676:1768  uint256(keccak256(abi.encodePacked(... */\n  tag_11\n  swap2\n  swap1\n  tag_12\n  jump\t// in\ntag_11:\n    /* \"Practice_1/3_RandomNumberGame.sol\":1676:1772  uint256(keccak256(abi.encodePacked(... */\n  tag_13\n  swap2\n  swap1\n  tag_8\n  jump\t// in\ntag_13:\n    /* \"Practice_1/3_RandomNumberGame.sol\":1669:1772  return uint256(keccak256(abi.encodePacked(... */\n  swap1\n  pop\n    /* \"Practice_1/3_RandomNumberGame.sol\":1595:1780  function generateRandomNumber() private view returns (uint256) {... */\n  swap1\n  jump\t// out\n    /* \"#utility.yul\":7:84   */\ntag_14:\n    /* \"#utility.yul\":44:51   */\n  0x00\n    /* \"#utility.yul\":73:78   */\n  dup2\n    /* \"#utility.yul\":62:78   */\n  swap1\n  pop\n    /* \"#utility.yul\":7:84   */\n  swap2\n  swap1\n  pop\n  jump\t// out\n    /* \"#utility.yul\":90:270   */\ntag_15:\n    /* \"#utility.yul\":138:215   */\n  0x4e487b7100000000000000000000000000000000000000000000000000000000\n    /* \"#utility.yul\":135:136   */\n  0x00\n    /* \"#utility.yul\":128:216   */\n  mstore\n    /* \"#utility.yul\":235:239   */\n  0x11\n    /* \"#utility.yul\":232:233   */\n  0x04\n    /* \"#utility.yul\":225:240   */\n  mstore\n    /* \"#utility.yul\":259:263   */\n  0x24\n    /* \"#utility.yul\":256:257   */\n  0x00\n    /* \"#utility.yul\":249:264   */\n  revert\n    /* \"#utility.yul\":276:467   */\ntag_8:\n    /* \"#utility.yul\":316:319   */\n  0x00\n    /* \"#utility.yul\":335:355   */\n  tag_23\n    /* \"#utility.yul\":353:354   */\n  dup3\n    /* \"#utility.yul\":335:355   */\n  tag_14\n  jump\t// in\ntag_23:\n    /* \"#utility.yul\":330:355   */\n  swap2\n  pop\n    /* \"#utility.yul\":369:389   */\n  tag_24\n    /* \"#utility.yul\":387:388   */\n  dup4\n    /* \"#utility.yul\":369:389   */\n  tag_14\n  jump\t// in\ntag_24:\n    /* \"#utility.yul\":364:389   */\n  swap3\n  pop\n    /* \"#utility.yul\":412:413   */\n  dup3\n    /* \"#utility.yul\":409:410   */\n  dup3\n    /* \"#utility.yul\":405:414   */\n  add\n    /* \"#utility.yul\":398:414   */\n  swap1\n  pop\n    /* \"#utility.yul\":433:436   */\n  dup1\n    /* \"#utility.yul\":430:431   */\n  dup3\n    /* \"#utility.yul\":427:437   */\n  gt\n    /* \"#utility.yul\":424:460   */\n  iszero\n  tag_25\n  jumpi\n    /* \"#utility.yul\":440:458   */\n  tag_26\n  tag_15\n  jump\t// in\ntag_26:\n    /* \"#utility.yul\":424:460   */\ntag_25:\n    /* \"#utility.yul\":276:467   */\n  swap3\n  swap2\n  pop\n  pop\n  jump\t// out\n    /* \"#utility.yul\":473:552   */\ntag_16:\n    /* \"#utility.yul\":512:519   */\n  0x00\n    /* \"#utility.yul\":541:546   */\n  dup2\n    /* \"#utility.yul\":530:546   */\n  swap1\n  pop\n    /* \"#utility.yul\":473:552   */\n  swap2\n  swap1\n  pop\n  jump\t// out\n    /* \"#utility.yul\":558:715   */\ntag_17:\n    /* \"#utility.yul\":663:708   */\n  tag_29\n    /* \"#utility.yul\":683:707   */\n  tag_30\n    /* \"#utility.yul\":701:706   */\n  dup3\n    /* \"#utility.yul\":683:707   */\n  tag_14\n  jump\t// in\ntag_30:\n    /* \"#utility.yul\":663:708   */\n  tag_16\n  jump\t// in\ntag_29:\n    /* \"#utility.yul\":658:661   */\n  dup3\n    /* \"#utility.yul\":651:709   */\n  mstore\n    /* \"#utility.yul\":558:715   */\n  pop\n  pop\n  jump\t// out\n    /* \"#utility.yul\":721:977   */\ntag_10:\n    /* \"#utility.yul\":833:836   */\n  0x00\n    /* \"#utility.yul\":848:923   */\n  tag_32\n    /* \"#utility.yul\":919:922   */\n  dup3\n    /* \"#utility.yul\":910:916   */\n  dup5\n    /* \"#utility.yul\":848:923   */\n  tag_17\n  jump\t// in\ntag_32:\n    /* \"#utility.yul\":948:950   */\n  0x20\n    /* \"#utility.yul\":943:946   */\n  dup3\n    /* \"#utility.yul\":939:951   */\n  add\n    /* \"#utility.yul\":932:951   */\n  swap2\n  pop\n    /* \"#utility.yul\":968:971   */\n  dup2\n    /* \"#utility.yul\":961:971   */\n  swap1\n  pop\n    /* \"#utility.yul\":721:977   */\n  swap3\n  swap2\n  pop\n  pop\n  jump\t// out\n    /* \"#utility.yul\":983:1163   */\ntag_18:\n    /* \"#utility.yul\":1031:1108   */\n  0x4e487b7100000000000000000000000000000000000000000000000000000000\n    /* \"#utility.yul\":1028:1029   */\n  0x00\n    /* \"#utility.yul\":1021:1109   */\n  mstore\n    /* \"#utility.yul\":1128:1132   */\n  0x12\n    /* \"#utility.yul\":1125:1126   */\n  0x04\n    /* \"#utility.yul\":1118:1133   */\n  mstore\n    /* \"#utility.yul\":1152:1156   */\n  0x24\n    /* \"#utility.yul\":1149:1150   */\n  0x00\n    /* \"#utility.yul\":1142:1157   */\n  revert\n    /* \"#utility.yul\":1169:1345   */\ntag_12:\n    /* \"#utility.yul\":1201:1202   */\n  0x00\n    /* \"#utility.yul\":1218:1238   */\n  tag_35\n    /* \"#utility.yul\":1236:1237   */\n  dup3\n    /* \"#utility.yul\":1218:1238   */\n  tag_14\n  jump\t// in\ntag_35:\n    /* \"#utility.yul\":1213:1238   */\n  swap2\n  pop\n    /* \"#utility.yul\":1252:1272   */\n  tag_36\n    /* \"#utility.yul\":1270:1271   */\n  dup4\n    /* \"#utility.yul\":1252:1272   */\n  tag_14\n  jump\t// in\ntag_36:\n    /* \"#utility.yul\":1247:1272   */\n  swap3\n  pop\n    /* \"#utility.yul\":1291:1292   */\n  dup3\n    /* \"#utility.yul\":1281:1316   */\n  tag_37\n  jumpi\n    /* \"#utility.yul\":1296:1314   */\n  tag_38\n  tag_18\n  jump\t// in\ntag_38:\n    /* \"#utility.yul\":1281:1316   */\ntag_37:\n    /* \"#utility.yul\":1337:1338   */\n  dup3\n    /* \"#utility.yul\":1334:1335   */\n  dup3\n    /* \"#utility.yul\":1330:1339   */\n  mod\n    /* \"#utility.yul\":1325:1339   */\n  swap1\n  pop\n    /* \"#utility.yul\":1169:1345   */\n  swap3\n  swap2\n  pop\n  pop\n  jump\t// out\n    /* \"Practice_1/3_RandomNumberGame.sol\":60:2170  contract RandomNumberGame {... */\ntag_5:\n  dataSize(sub_0)\n  dup1\n  dataOffset(sub_0)\n  0x00\n  codecopy\n  0x00\n  return\nstop\n\nsub_0: assembly {\n        /* \"Practice_1/3_RandomNumberGame.sol\":60:2170  contract RandomNumberGame {... */\n      mstore(0x40, 0x80)\n      jumpi(tag_1, lt(calldatasize, 0x04))\n      shr(0xe0, calldataload(0x00))\n      dup1\n      0x845766fd\n      eq\n      tag_2\n      jumpi\n      dup1\n      0x9189fec1\n      eq\n      tag_3\n      jumpi\n      dup1\n      0xce6d41de\n      eq\n      tag_4\n      jumpi\n      dup1\n      0xdfbf53ae\n      eq\n      tag_5\n      jumpi\n      dup1\n      0xe21f37ce\n      eq\n      tag_6\n      jumpi\n    tag_1:\n      0x00\n      dup1\n      revert\n        /* \"Practice_1/3_RandomNumberGame.sol\":233:258  uint256 public guessNumer */\n    tag_2:\n      callvalue\n      dup1\n      iszero\n      tag_7\n      jumpi\n      0x00\n      dup1\n      revert\n    tag_7:\n      pop\n      tag_8\n      tag_9\n      jump\t// in\n    tag_8:\n      mload(0x40)\n      tag_10\n      swap2\n      swap1\n      tag_11\n      jump\t// in\n    tag_10:\n      mload(0x40)\n      dup1\n      swap2\n      sub\n      swap1\n      return\n        /* \"Practice_1/3_RandomNumberGame.sol\":811:1520  function guess(uint256 _guessNumber) public payable {... */\n    tag_3:\n      tag_12\n      0x04\n      dup1\n      calldatasize\n      sub\n      dup2\n      add\n      swap1\n      tag_13\n      swap2\n      swap1\n      tag_14\n      jump\t// in\n    tag_13:\n      tag_15\n      jump\t// in\n    tag_12:\n      stop\n        /* \"Practice_1/3_RandomNumberGame.sol\":1874:2167  function getMessage() public view returns (string memory) {... */\n    tag_4:\n      callvalue\n      dup1\n      iszero\n      tag_16\n      jumpi\n      0x00\n      dup1\n      revert\n    tag_16:\n      pop\n      tag_17\n      tag_18\n      jump\t// in\n    tag_17:\n      mload(0x40)\n      tag_19\n      swap2\n      swap1\n      tag_20\n      jump\t// in\n    tag_19:\n      mload(0x40)\n      dup1\n      swap2\n      sub\n      swap1\n      return\n        /* \"Practice_1/3_RandomNumberGame.sol\":265:294  address payable public winner */\n    tag_5:\n      callvalue\n      dup1\n      iszero\n      tag_21\n      jumpi\n      0x00\n      dup1\n      revert\n    tag_21:\n      pop\n      tag_22\n      tag_23\n      jump\t// in\n    tag_22:\n      mload(0x40)\n      tag_24\n      swap2\n      swap1\n      tag_25\n      jump\t// in\n    tag_24:\n      mload(0x40)\n      dup1\n      swap2\n      sub\n      swap1\n      return\n        /* \"Practice_1/3_RandomNumberGame.sol\":405:427  Message public message */\n    tag_6:\n      callvalue\n      dup1\n      iszero\n      tag_26\n      jumpi\n      0x00\n      dup1\n      revert\n    tag_26:\n      pop\n      tag_27\n      tag_28\n      jump\t// in\n    tag_27:\n      mload(0x40)\n      tag_29\n      swap2\n      swap1\n      tag_30\n      jump\t// in\n    tag_29:\n      mload(0x40)\n      dup1\n      swap2\n      sub\n      swap1\n      return\n        /* \"Practice_1/3_RandomNumberGame.sol\":233:258  uint256 public guessNumer */\n    tag_9:\n      sload(0x01)\n      dup2\n      jump\t// out\n        /* \"Practice_1/3_RandomNumberGame.sol\":811:1520  function guess(uint256 _guessNumber) public payable {... */\n    tag_15:\n        /* \"Practice_1/3_RandomNumberGame.sol\":955:962  1 ether */\n      0x0de0b6b3a7640000\n        /* \"Practice_1/3_RandomNumberGame.sol\":942:951  msg.value */\n      callvalue\n        /* \"Practice_1/3_RandomNumberGame.sol\":942:962  msg.value == 1 ether */\n      eq\n        /* \"Practice_1/3_RandomNumberGame.sol\":934:991  require(msg.value == 1 ether, \"1 ETH is needed to guess\") */\n      tag_32\n      jumpi\n      mload(0x40)\n      0x08c379a000000000000000000000000000000000000000000000000000000000\n      dup2\n      mstore\n      0x04\n      add\n      tag_33\n      swap1\n      tag_34\n      jump\t// in\n    tag_33:\n      mload(0x40)\n      dup1\n      swap2\n      sub\n      swap1\n      revert\n    tag_32:\n        /* \"Practice_1/3_RandomNumberGame.sol\":1024:1036  randomNumber */\n      sload(0x00)\n        /* \"Practice_1/3_RandomNumberGame.sol\":1008:1020  _guessNumber */\n      dup2\n        /* \"Practice_1/3_RandomNumberGame.sol\":1008:1036  _guessNumber == randomNumber */\n      sub\n        /* \"Practice_1/3_RandomNumberGame.sol\":1004:1513  if (_guessNumber == randomNumber) {... */\n      tag_35\n      jumpi\n        /* \"Practice_1/3_RandomNumberGame.sol\":1070:1080  msg.sender */\n      caller\n        /* \"Practice_1/3_RandomNumberGame.sol\":1053:1059  winner */\n      0x02\n      0x00\n        /* \"Practice_1/3_RandomNumberGame.sol\":1053:1081  winner = payable(msg.sender) */\n      0x0100\n      exp\n      dup2\n      sload\n      dup2\n      0xffffffffffffffffffffffffffffffffffffffff\n      mul\n      not\n      and\n      swap1\n      dup4\n      0xffffffffffffffffffffffffffffffffffffffff\n      and\n      mul\n      or\n      swap1\n      sstore\n      pop\n        /* \"Practice_1/3_RandomNumberGame.sol\":1096:1102  winner */\n      0x02\n      0x00\n      swap1\n      sload\n      swap1\n      0x0100\n      exp\n      swap1\n      div\n      0xffffffffffffffffffffffffffffffffffffffff\n      and\n        /* \"Practice_1/3_RandomNumberGame.sol\":1096:1111  winner.transfer */\n      0xffffffffffffffffffffffffffffffffffffffff\n      and\n        /* \"Practice_1/3_RandomNumberGame.sol\":1096:1134  winner.transfer(address(this).balance) */\n      0x08fc\n        /* \"Practice_1/3_RandomNumberGame.sol\":1112:1133  address(this).balance */\n      selfbalance\n        /* \"Practice_1/3_RandomNumberGame.sol\":1096:1134  winner.transfer(address(this).balance) */\n      swap1\n      dup2\n      iszero\n      mul\n      swap1\n      mload(0x40)\n      0x00\n      mload(0x40)\n      dup1\n      dup4\n      sub\n      dup2\n      dup6\n      dup9\n      dup9\n      call\n      swap4\n      pop\n      pop\n      pop\n      pop\n      iszero\n      dup1\n      iszero\n      tag_37\n      jumpi\n      returndatasize\n      0x00\n      dup1\n      returndatacopy\n      revert(0x00, returndatasize)\n    tag_37:\n      pop\n        /* \"Practice_1/3_RandomNumberGame.sol\":1164:1186  generateRandomNumber() */\n      tag_38\n        /* \"Practice_1/3_RandomNumberGame.sol\":1164:1184  generateRandomNumber */\n      tag_39\n        /* \"Practice_1/3_RandomNumberGame.sol\":1164:1186  generateRandomNumber() */\n      jump\t// in\n    tag_38:\n        /* \"Practice_1/3_RandomNumberGame.sol\":1149:1161  randomNumber */\n      0x00\n        /* \"Practice_1/3_RandomNumberGame.sol\":1149:1186  randomNumber = generateRandomNumber() */\n      dup2\n      swap1\n      sstore\n      pop\n        /* \"Practice_1/3_RandomNumberGame.sol\":1211:1222  Message.Win */\n      0x00\n        /* \"Practice_1/3_RandomNumberGame.sol\":1201:1208  message */\n      0x02\n      0x14\n        /* \"Practice_1/3_RandomNumberGame.sol\":1201:1222  message = Message.Win */\n      0x0100\n      exp\n      dup2\n      sload\n      dup2\n      0xff\n      mul\n      not\n      and\n      swap1\n      dup4\n      0x02\n      dup2\n      gt\n      iszero\n      tag_40\n      jumpi\n      tag_41\n      tag_42\n      jump\t// in\n    tag_41:\n    tag_40:\n      mul\n      or\n      swap1\n      sstore\n      pop\n        /* \"Practice_1/3_RandomNumberGame.sol\":1242:1268  messageEvent(getMessage()) */\n      0x9fd40b777a67006201b62c0025adca7fed13f4f97a8c97e859b02a025adad78f\n        /* \"Practice_1/3_RandomNumberGame.sol\":1255:1267  getMessage() */\n      tag_43\n        /* \"Practice_1/3_RandomNumberGame.sol\":1255:1265  getMessage */\n      tag_18\n        /* \"Practice_1/3_RandomNumberGame.sol\":1255:1267  getMessage() */\n      jump\t// in\n    tag_43:\n        /* \"Practice_1/3_RandomNumberGame.sol\":1242:1268  messageEvent(getMessage()) */\n      mload(0x40)\n      tag_44\n      swap2\n      swap1\n      tag_20\n      jump\t// in\n    tag_44:\n      mload(0x40)\n      dup1\n      swap2\n      sub\n      swap1\n      log1\n        /* \"Practice_1/3_RandomNumberGame.sol\":1004:1513  if (_guessNumber == randomNumber) {... */\n      jump(tag_45)\n    tag_35:\n        /* \"Practice_1/3_RandomNumberGame.sol\":1305:1317  randomNumber */\n      sload(0x00)\n        /* \"Practice_1/3_RandomNumberGame.sol\":1290:1302  _guessNumber */\n      dup2\n        /* \"Practice_1/3_RandomNumberGame.sol\":1290:1317  _guessNumber < randomNumber */\n      lt\n        /* \"Practice_1/3_RandomNumberGame.sol\":1286:1513  if (_guessNumber < randomNumber) {... */\n      iszero\n      tag_46\n      jumpi\n        /* \"Practice_1/3_RandomNumberGame.sol\":1344:1354  Message.Up */\n      0x01\n        /* \"Practice_1/3_RandomNumberGame.sol\":1334:1341  message */\n      0x02\n      0x14\n        /* \"Practice_1/3_RandomNumberGame.sol\":1334:1354  message = Message.Up */\n      0x0100\n      exp\n      dup2\n      sload\n      dup2\n      0xff\n      mul\n      not\n      and\n      swap1\n      dup4\n      0x02\n      dup2\n      gt\n      iszero\n      tag_47\n      jumpi\n      tag_48\n      tag_42\n      jump\t// in\n    tag_48:\n    tag_47:\n      mul\n      or\n      swap1\n      sstore\n      pop\n        /* \"Practice_1/3_RandomNumberGame.sol\":1374:1400  messageEvent(getMessage()) */\n      0x9fd40b777a67006201b62c0025adca7fed13f4f97a8c97e859b02a025adad78f\n        /* \"Practice_1/3_RandomNumberGame.sol\":1387:1399  getMessage() */\n      tag_49\n        /* \"Practice_1/3_RandomNumberGame.sol\":1387:1397  getMessage */\n      tag_18\n        /* \"Practice_1/3_RandomNumberGame.sol\":1387:1399  getMessage() */\n      jump\t// in\n    tag_49:\n        /* \"Practice_1/3_RandomNumberGame.sol\":1374:1400  messageEvent(getMessage()) */\n      mload(0x40)\n      tag_50\n      swap2\n      swap1\n      tag_20\n      jump\t// in\n    tag_50:\n      mload(0x40)\n      dup1\n      swap2\n      sub\n      swap1\n      log1\n        /* \"Practice_1/3_RandomNumberGame.sol\":1286:1513  if (_guessNumber < randomNumber) {... */\n      jump(tag_51)\n    tag_46:\n        /* \"Practice_1/3_RandomNumberGame.sol\":1443:1455  Message.Down */\n      0x02\n        /* \"Practice_1/3_RandomNumberGame.sol\":1433:1440  message */\n      dup1\n      0x14\n        /* \"Practice_1/3_RandomNumberGame.sol\":1433:1455  message = Message.Down */\n      0x0100\n      exp\n      dup2\n      sload\n      dup2\n      0xff\n      mul\n      not\n      and\n      swap1\n      dup4\n      0x02\n      dup2\n      gt\n      iszero\n      tag_52\n      jumpi\n      tag_53\n      tag_42\n      jump\t// in\n    tag_53:\n    tag_52:\n      mul\n      or\n      swap1\n      sstore\n      pop\n        /* \"Practice_1/3_RandomNumberGame.sol\":1475:1501  messageEvent(getMessage()) */\n      0x9fd40b777a67006201b62c0025adca7fed13f4f97a8c97e859b02a025adad78f\n        /* \"Practice_1/3_RandomNumberGame.sol\":1488:1500  getMessage() */\n      tag_54\n        /* \"Practice_1/3_RandomNumberGame.sol\":1488:1498  getMessage */\n      tag_18\n        /* \"Practice_1/3_RandomNumberGame.sol\":1488:1500  getMessage() */\n      jump\t// in\n    tag_54:\n        /* \"Practice_1/3_RandomNumberGame.sol\":1475:1501  messageEvent(getMessage()) */\n      mload(0x40)\n      tag_55\n      swap2\n      swap1\n      tag_20\n      jump\t// in\n    tag_55:\n      mload(0x40)\n      dup1\n      swap2\n      sub\n      swap1\n      log1\n        /* \"Practice_1/3_RandomNumberGame.sol\":1286:1513  if (_guessNumber < randomNumber) {... */\n    tag_51:\n        /* \"Practice_1/3_RandomNumberGame.sol\":1004:1513  if (_guessNumber == randomNumber) {... */\n    tag_45:\n        /* \"Practice_1/3_RandomNumberGame.sol\":811:1520  function guess(uint256 _guessNumber) public payable {... */\n      pop\n      jump\t// out\n        /* \"Practice_1/3_RandomNumberGame.sol\":1874:2167  function getMessage() public view returns (string memory) {... */\n    tag_18:\n        /* \"Practice_1/3_RandomNumberGame.sol\":1917:1930  string memory */\n      0x60\n        /* \"Practice_1/3_RandomNumberGame.sol\":1958:1969  Message.Win */\n      0x00\n        /* \"Practice_1/3_RandomNumberGame.sol\":1947:1969  message == Message.Win */\n      0x02\n      dup2\n      gt\n      iszero\n      tag_57\n      jumpi\n      tag_58\n      tag_42\n      jump\t// in\n    tag_58:\n    tag_57:\n        /* \"Practice_1/3_RandomNumberGame.sol\":1947:1954  message */\n      0x02\n      0x14\n      swap1\n      sload\n      swap1\n      0x0100\n      exp\n      swap1\n      div\n      0xff\n      and\n        /* \"Practice_1/3_RandomNumberGame.sol\":1947:1969  message == Message.Win */\n      0x02\n      dup2\n      gt\n      iszero\n      tag_59\n      jumpi\n      tag_60\n      tag_42\n      jump\t// in\n    tag_60:\n    tag_59:\n      sub\n        /* \"Practice_1/3_RandomNumberGame.sol\":1943:2160  if (message == Message.Win) { return \"Win\"; }... */\n      tag_61\n      jumpi\n        /* \"Practice_1/3_RandomNumberGame.sol\":1973:1985  return \"Win\" */\n      mload(0x40)\n      dup1\n      0x40\n      add\n      0x40\n      mstore\n      dup1\n      0x03\n      dup2\n      mstore\n      0x20\n      add\n      0x57696e0000000000000000000000000000000000000000000000000000000000\n      dup2\n      mstore\n      pop\n      swap1\n      pop\n      jump(tag_56)\n        /* \"Practice_1/3_RandomNumberGame.sol\":1943:2160  if (message == Message.Win) { return \"Win\"; }... */\n    tag_61:\n        /* \"Practice_1/3_RandomNumberGame.sol\":2018:2028  Message.Up */\n      0x01\n        /* \"Practice_1/3_RandomNumberGame.sol\":2007:2028  message == Message.Up */\n      0x02\n      dup2\n      gt\n      iszero\n      tag_63\n      jumpi\n      tag_64\n      tag_42\n      jump\t// in\n    tag_64:\n    tag_63:\n        /* \"Practice_1/3_RandomNumberGame.sol\":2007:2014  message */\n      0x02\n      0x14\n      swap1\n      sload\n      swap1\n      0x0100\n      exp\n      swap1\n      div\n      0xff\n      and\n        /* \"Practice_1/3_RandomNumberGame.sol\":2007:2028  message == Message.Up */\n      0x02\n      dup2\n      gt\n      iszero\n      tag_65\n      jumpi\n      tag_66\n      tag_42\n      jump\t// in\n    tag_66:\n    tag_65:\n      sub\n        /* \"Practice_1/3_RandomNumberGame.sol\":2003:2160  if (message == Message.Up) { return \"Up\"; }... */\n      tag_67\n      jumpi\n        /* \"Practice_1/3_RandomNumberGame.sol\":2032:2043  return \"Up\" */\n      mload(0x40)\n      dup1\n      0x40\n      add\n      0x40\n      mstore\n      dup1\n      0x02\n      dup2\n      mstore\n      0x20\n      add\n      0x5570000000000000000000000000000000000000000000000000000000000000\n      dup2\n      mstore\n      pop\n      swap1\n      pop\n      jump(tag_56)\n        /* \"Practice_1/3_RandomNumberGame.sol\":2003:2160  if (message == Message.Up) { return \"Up\"; }... */\n    tag_67:\n        /* \"Practice_1/3_RandomNumberGame.sol\":2076:2088  Message.Down */\n      0x02\n        /* \"Practice_1/3_RandomNumberGame.sol\":2065:2088  message == Message.Down */\n      dup1\n      dup2\n      gt\n      iszero\n      tag_69\n      jumpi\n      tag_70\n      tag_42\n      jump\t// in\n    tag_70:\n    tag_69:\n        /* \"Practice_1/3_RandomNumberGame.sol\":2065:2072  message */\n      0x02\n      0x14\n      swap1\n      sload\n      swap1\n      0x0100\n      exp\n      swap1\n      div\n      0xff\n      and\n        /* \"Practice_1/3_RandomNumberGame.sol\":2065:2088  message == Message.Down */\n      0x02\n      dup2\n      gt\n      iszero\n      tag_71\n      jumpi\n      tag_72\n      tag_42\n      jump\t// in\n    tag_72:\n    tag_71:\n      sub\n        /* \"Practice_1/3_RandomNumberGame.sol\":2061:2160  if (message == Message.Down) { return \"Down\"; }... */\n      tag_73\n      jumpi\n        /* \"Practice_1/3_RandomNumberGame.sol\":2092:2105  return \"Down\" */\n      mload(0x40)\n      dup1\n      0x40\n      add\n      0x40\n      mstore\n      dup1\n      0x04\n      dup2\n      mstore\n      0x20\n      add\n      0x446f776e00000000000000000000000000000000000000000000000000000000\n      dup2\n      mstore\n      pop\n      swap1\n      pop\n      jump(tag_56)\n        /* \"Practice_1/3_RandomNumberGame.sol\":2061:2160  if (message == Message.Down) { return \"Down\"; }... */\n    tag_73:\n        /* \"Practice_1/3_RandomNumberGame.sol\":2125:2157  return \"You need to guess first\" */\n      mload(0x40)\n      dup1\n      0x40\n      add\n      0x40\n      mstore\n      dup1\n      0x17\n      dup2\n      mstore\n      0x20\n      add\n      0x596f75206e65656420746f206775657373206669727374000000000000000000\n      dup2\n      mstore\n      pop\n      swap1\n      pop\n        /* \"Practice_1/3_RandomNumberGame.sol\":1874:2167  function getMessage() public view returns (string memory) {... */\n    tag_56:\n      swap1\n      jump\t// out\n        /* \"Practice_1/3_RandomNumberGame.sol\":265:294  address payable public winner */\n    tag_23:\n      0x02\n      0x00\n      swap1\n      sload\n      swap1\n      0x0100\n      exp\n      swap1\n      div\n      0xffffffffffffffffffffffffffffffffffffffff\n      and\n      dup2\n      jump\t// out\n        /* \"Practice_1/3_RandomNumberGame.sol\":405:427  Message public message */\n    tag_28:\n      0x02\n      0x14\n      swap1\n      sload\n      swap1\n      0x0100\n      exp\n      swap1\n      div\n      0xff\n      and\n      dup2\n      jump\t// out\n        /* \"Practice_1/3_RandomNumberGame.sol\":1595:1780  function generateRandomNumber() private view returns (uint256) {... */\n    tag_39:\n        /* \"Practice_1/3_RandomNumberGame.sol\":1649:1656  uint256 */\n      0x00\n        /* \"Practice_1/3_RandomNumberGame.sol\":1771:1772  1 */\n      0x01\n        /* \"Practice_1/3_RandomNumberGame.sol\":1765:1768  100 */\n      0x64\n        /* \"Practice_1/3_RandomNumberGame.sol\":1743:1759  block.prevrandao */\n      prevrandao\n        /* \"Practice_1/3_RandomNumberGame.sol\":1725:1740  block.timestamp */\n      timestamp\n        /* \"Practice_1/3_RandomNumberGame.sol\":1725:1759  block.timestamp + block.prevrandao */\n      tag_76\n      swap2\n      swap1\n      tag_77\n      jump\t// in\n    tag_76:\n        /* \"Practice_1/3_RandomNumberGame.sol\":1694:1760  abi.encodePacked(... */\n      add(0x20, mload(0x40))\n      tag_78\n      swap2\n      swap1\n      tag_79\n      jump\t// in\n    tag_78:\n      mload(0x40)\n      0x20\n      dup2\n      dup4\n      sub\n      sub\n      dup2\n      mstore\n      swap1\n      0x40\n      mstore\n        /* \"Practice_1/3_RandomNumberGame.sol\":1684:1761  keccak256(abi.encodePacked(... */\n      dup1\n      mload\n      swap1\n      0x20\n      add\n      keccak256\n        /* \"Practice_1/3_RandomNumberGame.sol\":1676:1762  uint256(keccak256(abi.encodePacked(... */\n      0x00\n      shr\n        /* \"Practice_1/3_RandomNumberGame.sol\":1676:1768  uint256(keccak256(abi.encodePacked(... */\n      tag_80\n      swap2\n      swap1\n      tag_81\n      jump\t// in\n    tag_80:\n        /* \"Practice_1/3_RandomNumberGame.sol\":1676:1772  uint256(keccak256(abi.encodePacked(... */\n      tag_82\n      swap2\n      swap1\n      tag_77\n      jump\t// in\n    tag_82:\n        /* \"Practice_1/3_RandomNumberGame.sol\":1669:1772  return uint256(keccak256(abi.encodePacked(... */\n      swap1\n      pop\n        /* \"Practice_1/3_RandomNumberGame.sol\":1595:1780  function generateRandomNumber() private view returns (uint256) {... */\n      swap1\n      jump\t// out\n        /* \"#utility.yul\":7:84   */\n    tag_83:\n        /* \"#utility.yul\":44:51   */\n      0x00\n        /* \"#utility.yul\":73:78   */\n      dup2\n        /* \"#utility.yul\":62:78   */\n      swap1\n      pop\n        /* \"#utility.yul\":7:84   */\n      swap2\n      swap1\n      pop\n      jump\t// out\n        /* \"#utility.yul\":90:208   */\n    tag_84:\n        /* \"#utility.yul\":177:201   */\n      tag_111\n        /* \"#utility.yul\":195:200   */\n      dup2\n        /* \"#utility.yul\":177:201   */\n      tag_83\n      jump\t// in\n    tag_111:\n        /* \"#utility.yul\":172:175   */\n      dup3\n        /* \"#utility.yul\":165:202   */\n      mstore\n        /* \"#utility.yul\":90:208   */\n      pop\n      pop\n      jump\t// out\n        /* \"#utility.yul\":214:436   */\n    tag_11:\n        /* \"#utility.yul\":307:311   */\n      0x00\n        /* \"#utility.yul\":345:347   */\n      0x20\n        /* \"#utility.yul\":334:343   */\n      dup3\n        /* \"#utility.yul\":330:348   */\n      add\n        /* \"#utility.yul\":322:348   */\n      swap1\n      pop\n        /* \"#utility.yul\":358:429   */\n      tag_113\n        /* \"#utility.yul\":426:427   */\n      0x00\n        /* \"#utility.yul\":415:424   */\n      dup4\n        /* \"#utility.yul\":411:428   */\n      add\n        /* \"#utility.yul\":402:408   */\n      dup5\n        /* \"#utility.yul\":358:429   */\n      tag_84\n      jump\t// in\n    tag_113:\n        /* \"#utility.yul\":214:436   */\n      swap3\n      swap2\n      pop\n      pop\n      jump\t// out\n        /* \"#utility.yul\":523:640   */\n    tag_86:\n        /* \"#utility.yul\":632:633   */\n      0x00\n        /* \"#utility.yul\":629:630   */\n      dup1\n        /* \"#utility.yul\":622:634   */\n      revert\n        /* \"#utility.yul\":769:891   */\n    tag_88:\n        /* \"#utility.yul\":842:866   */\n      tag_118\n        /* \"#utility.yul\":860:865   */\n      dup2\n        /* \"#utility.yul\":842:866   */\n      tag_83\n      jump\t// in\n    tag_118:\n        /* \"#utility.yul\":835:840   */\n      dup2\n        /* \"#utility.yul\":832:867   */\n      eq\n        /* \"#utility.yul\":822:885   */\n      tag_119\n      jumpi\n        /* \"#utility.yul\":881:882   */\n      0x00\n        /* \"#utility.yul\":878:879   */\n      dup1\n        /* \"#utility.yul\":871:883   */\n      revert\n        /* \"#utility.yul\":822:885   */\n    tag_119:\n        /* \"#utility.yul\":769:891   */\n      pop\n      jump\t// out\n        /* \"#utility.yul\":897:1036   */\n    tag_89:\n        /* \"#utility.yul\":943:948   */\n      0x00\n        /* \"#utility.yul\":981:987   */\n      dup2\n        /* \"#utility.yul\":968:988   */\n      calldataload\n        /* \"#utility.yul\":959:988   */\n      swap1\n      pop\n        /* \"#utility.yul\":997:1030   */\n      tag_121\n        /* \"#utility.yul\":1024:1029   */\n      dup2\n        /* \"#utility.yul\":997:1030   */\n      tag_88\n      jump\t// in\n    tag_121:\n        /* \"#utility.yul\":897:1036   */\n      swap3\n      swap2\n      pop\n      pop\n      jump\t// out\n        /* \"#utility.yul\":1042:1371   */\n    tag_14:\n        /* \"#utility.yul\":1101:1107   */\n      0x00\n        /* \"#utility.yul\":1150:1152   */\n      0x20\n        /* \"#utility.yul\":1138:1147   */\n      dup3\n        /* \"#utility.yul\":1129:1136   */\n      dup5\n        /* \"#utility.yul\":1125:1148   */\n      sub\n        /* \"#utility.yul\":1121:1153   */\n      slt\n        /* \"#utility.yul\":1118:1237   */\n      iszero\n      tag_123\n      jumpi\n        /* \"#utility.yul\":1156:1235   */\n      tag_124\n      tag_86\n      jump\t// in\n    tag_124:\n        /* \"#utility.yul\":1118:1237   */\n    tag_123:\n        /* \"#utility.yul\":1276:1277   */\n      0x00\n        /* \"#utility.yul\":1301:1354   */\n      tag_125\n        /* \"#utility.yul\":1346:1353   */\n      dup5\n        /* \"#utility.yul\":1337:1343   */\n      dup3\n        /* \"#utility.yul\":1326:1335   */\n      dup6\n        /* \"#utility.yul\":1322:1344   */\n      add\n        /* \"#utility.yul\":1301:1354   */\n      tag_89\n      jump\t// in\n    tag_125:\n        /* \"#utility.yul\":1291:1354   */\n      swap2\n      pop\n        /* \"#utility.yul\":1247:1364   */\n      pop\n        /* \"#utility.yul\":1042:1371   */\n      swap3\n      swap2\n      pop\n      pop\n      jump\t// out\n        /* \"#utility.yul\":1377:1476   */\n    tag_90:\n        /* \"#utility.yul\":1429:1435   */\n      0x00\n        /* \"#utility.yul\":1463:1468   */\n      dup2\n        /* \"#utility.yul\":1457:1469   */\n      mload\n        /* \"#utility.yul\":1447:1469   */\n      swap1\n      pop\n        /* \"#utility.yul\":1377:1476   */\n      swap2\n      swap1\n      pop\n      jump\t// out\n        /* \"#utility.yul\":1482:1651   */\n    tag_91:\n        /* \"#utility.yul\":1566:1577   */\n      0x00\n        /* \"#utility.yul\":1600:1606   */\n      dup3\n        /* \"#utility.yul\":1595:1598   */\n      dup3\n        /* \"#utility.yul\":1588:1607   */\n      mstore\n        /* \"#utility.yul\":1640:1644   */\n      0x20\n        /* \"#utility.yul\":1635:1638   */\n      dup3\n        /* \"#utility.yul\":1631:1645   */\n      add\n        /* \"#utility.yul\":1616:1645   */\n      swap1\n      pop\n        /* \"#utility.yul\":1482:1651   */\n      swap3\n      swap2\n      pop\n      pop\n      jump\t// out\n        /* \"#utility.yul\":1657:1903   */\n    tag_92:\n        /* \"#utility.yul\":1738:1739   */\n      0x00\n        /* \"#utility.yul\":1748:1861   */\n    tag_129:\n        /* \"#utility.yul\":1762:1768   */\n      dup4\n        /* \"#utility.yul\":1759:1760   */\n      dup2\n        /* \"#utility.yul\":1756:1769   */\n      lt\n        /* \"#utility.yul\":1748:1861   */\n      iszero\n      tag_131\n      jumpi\n        /* \"#utility.yul\":1847:1848   */\n      dup1\n        /* \"#utility.yul\":1842:1845   */\n      dup3\n        /* \"#utility.yul\":1838:1849   */\n      add\n        /* \"#utility.yul\":1832:1850   */\n      mload\n        /* \"#utility.yul\":1828:1829   */\n      dup2\n        /* \"#utility.yul\":1823:1826   */\n      dup5\n        /* \"#utility.yul\":1819:1830   */\n      add\n        /* \"#utility.yul\":1812:1851   */\n      mstore\n        /* \"#utility.yul\":1784:1786   */\n      0x20\n        /* \"#utility.yul\":1781:1782   */\n      dup2\n        /* \"#utility.yul\":1777:1787   */\n      add\n        /* \"#utility.yul\":1772:1787   */\n      swap1\n      pop\n        /* \"#utility.yul\":1748:1861   */\n      jump(tag_129)\n    tag_131:\n        /* \"#utility.yul\":1895:1896   */\n      0x00\n        /* \"#utility.yul\":1886:1892   */\n      dup5\n        /* \"#utility.yul\":1881:1884   */\n      dup5\n        /* \"#utility.yul\":1877:1893   */\n      add\n        /* \"#utility.yul\":1870:1897   */\n      mstore\n        /* \"#utility.yul\":1719:1903   */\n      pop\n        /* \"#utility.yul\":1657:1903   */\n      pop\n      pop\n      pop\n      jump\t// out\n        /* \"#utility.yul\":1909:2011   */\n    tag_93:\n        /* \"#utility.yul\":1950:1956   */\n      0x00\n        /* \"#utility.yul\":2001:2003   */\n      0x1f\n        /* \"#utility.yul\":1997:2004   */\n      not\n        /* \"#utility.yul\":1992:1994   */\n      0x1f\n        /* \"#utility.yul\":1985:1990   */\n      dup4\n        /* \"#utility.yul\":1981:1995   */\n      add\n        /* \"#utility.yul\":1977:2005   */\n      and\n        /* \"#utility.yul\":1967:2005   */\n      swap1\n      pop\n        /* \"#utility.yul\":1909:2011   */\n      swap2\n      swap1\n      pop\n      jump\t// out\n        /* \"#utility.yul\":2017:2394   */\n    tag_94:\n        /* \"#utility.yul\":2105:2108   */\n      0x00\n        /* \"#utility.yul\":2133:2172   */\n      tag_134\n        /* \"#utility.yul\":2166:2171   */\n      dup3\n        /* \"#utility.yul\":2133:2172   */\n      tag_90\n      jump\t// in\n    tag_134:\n        /* \"#utility.yul\":2188:2259   */\n      tag_135\n        /* \"#utility.yul\":2252:2258   */\n      dup2\n        /* \"#utility.yul\":2247:2250   */\n      dup6\n        /* \"#utility.yul\":2188:2259   */\n      tag_91\n      jump\t// in\n    tag_135:\n        /* \"#utility.yul\":2181:2259   */\n      swap4\n      pop\n        /* \"#utility.yul\":2268:2333   */\n      tag_136\n        /* \"#utility.yul\":2326:2332   */\n      dup2\n        /* \"#utility.yul\":2321:2324   */\n      dup6\n        /* \"#utility.yul\":2314:2318   */\n      0x20\n        /* \"#utility.yul\":2307:2312   */\n      dup7\n        /* \"#utility.yul\":2303:2319   */\n      add\n        /* \"#utility.yul\":2268:2333   */\n      tag_92\n      jump\t// in\n    tag_136:\n        /* \"#utility.yul\":2358:2387   */\n      tag_137\n        /* \"#utility.yul\":2380:2386   */\n      dup2\n        /* \"#utility.yul\":2358:2387   */\n      tag_93\n      jump\t// in\n    tag_137:\n        /* \"#utility.yul\":2353:2356   */\n      dup5\n        /* \"#utility.yul\":2349:2388   */\n      add\n        /* \"#utility.yul\":2342:2388   */\n      swap2\n      pop\n        /* \"#utility.yul\":2109:2394   */\n      pop\n        /* \"#utility.yul\":2017:2394   */\n      swap3\n      swap2\n      pop\n      pop\n      jump\t// out\n        /* \"#utility.yul\":2400:2713   */\n    tag_20:\n        /* \"#utility.yul\":2513:2517   */\n      0x00\n        /* \"#utility.yul\":2551:2553   */\n      0x20\n        /* \"#utility.yul\":2540:2549   */\n      dup3\n        /* \"#utility.yul\":2536:2554   */\n      add\n        /* \"#utility.yul\":2528:2554   */\n      swap1\n      pop\n        /* \"#utility.yul\":2600:2609   */\n      dup2\n        /* \"#utility.yul\":2594:2598   */\n      dup2\n        /* \"#utility.yul\":2590:2610   */\n      sub\n        /* \"#utility.yul\":2586:2587   */\n      0x00\n        /* \"#utility.yul\":2575:2584   */\n      dup4\n        /* \"#utility.yul\":2571:2588   */\n      add\n        /* \"#utility.yul\":2564:2611   */\n      mstore\n        /* \"#utility.yul\":2628:2706   */\n      tag_139\n        /* \"#utility.yul\":2701:2705   */\n      dup2\n        /* \"#utility.yul\":2692:2698   */\n      dup5\n        /* \"#utility.yul\":2628:2706   */\n      tag_94\n      jump\t// in\n    tag_139:\n        /* \"#utility.yul\":2620:2706   */\n      swap1\n      pop\n        /* \"#utility.yul\":2400:2713   */\n      swap3\n      swap2\n      pop\n      pop\n      jump\t// out\n        /* \"#utility.yul\":2719:2845   */\n    tag_95:\n        /* \"#utility.yul\":2756:2763   */\n      0x00\n        /* \"#utility.yul\":2796:2838   */\n      0xffffffffffffffffffffffffffffffffffffffff\n        /* \"#utility.yul\":2789:2794   */\n      dup3\n        /* \"#utility.yul\":2785:2839   */\n      and\n        /* \"#utility.yul\":2774:2839   */\n      swap1\n      pop\n        /* \"#utility.yul\":2719:2845   */\n      swap2\n      swap1\n      pop\n      jump\t// out\n        /* \"#utility.yul\":2851:2955   */\n    tag_96:\n        /* \"#utility.yul\":2896:2903   */\n      0x00\n        /* \"#utility.yul\":2925:2949   */\n      tag_142\n        /* \"#utility.yul\":2943:2948   */\n      dup3\n        /* \"#utility.yul\":2925:2949   */\n      tag_95\n      jump\t// in\n    tag_142:\n        /* \"#utility.yul\":2914:2949   */\n      swap1\n      pop\n        /* \"#utility.yul\":2851:2955   */\n      swap2\n      swap1\n      pop\n      jump\t// out\n        /* \"#utility.yul\":2961:3103   */\n    tag_97:\n        /* \"#utility.yul\":3064:3096   */\n      tag_144\n        /* \"#utility.yul\":3090:3095   */\n      dup2\n        /* \"#utility.yul\":3064:3096   */\n      tag_96\n      jump\t// in\n    tag_144:\n        /* \"#utility.yul\":3059:3062   */\n      dup3\n        /* \"#utility.yul\":3052:3097   */\n      mstore\n        /* \"#utility.yul\":2961:3103   */\n      pop\n      pop\n      jump\t// out\n        /* \"#utility.yul\":3109:3363   */\n    tag_25:\n        /* \"#utility.yul\":3218:3222   */\n      0x00\n        /* \"#utility.yul\":3256:3258   */\n      0x20\n        /* \"#utility.yul\":3245:3254   */\n      dup3\n        /* \"#utility.yul\":3241:3259   */\n      add\n        /* \"#utility.yul\":3233:3259   */\n      swap1\n      pop\n        /* \"#utility.yul\":3269:3356   */\n      tag_146\n        /* \"#utility.yul\":3353:3354   */\n      0x00\n        /* \"#utility.yul\":3342:3351   */\n      dup4\n        /* \"#utility.yul\":3338:3355   */\n      add\n        /* \"#utility.yul\":3329:3335   */\n      dup5\n        /* \"#utility.yul\":3269:3356   */\n      tag_97\n      jump\t// in\n    tag_146:\n        /* \"#utility.yul\":3109:3363   */\n      swap3\n      swap2\n      pop\n      pop\n      jump\t// out\n        /* \"#utility.yul\":3369:3549   */\n    tag_42:\n        /* \"#utility.yul\":3417:3494   */\n      0x4e487b7100000000000000000000000000000000000000000000000000000000\n        /* \"#utility.yul\":3414:3415   */\n      0x00\n        /* \"#utility.yul\":3407:3495   */\n      mstore\n        /* \"#utility.yul\":3514:3518   */\n      0x21\n        /* \"#utility.yul\":3511:3512   */\n      0x04\n        /* \"#utility.yul\":3504:3519   */\n      mstore\n        /* \"#utility.yul\":3538:3542   */\n      0x24\n        /* \"#utility.yul\":3535:3536   */\n      0x00\n        /* \"#utility.yul\":3528:3543   */\n      revert\n        /* \"#utility.yul\":3555:3670   */\n    tag_98:\n        /* \"#utility.yul\":3638:3639   */\n      0x03\n        /* \"#utility.yul\":3631:3636   */\n      dup2\n        /* \"#utility.yul\":3628:3640   */\n      lt\n        /* \"#utility.yul\":3618:3664   */\n      tag_149\n      jumpi\n        /* \"#utility.yul\":3644:3662   */\n      tag_150\n      tag_42\n      jump\t// in\n    tag_150:\n        /* \"#utility.yul\":3618:3664   */\n    tag_149:\n        /* \"#utility.yul\":3555:3670   */\n      pop\n      jump\t// out\n        /* \"#utility.yul\":3676:3807   */\n    tag_99:\n        /* \"#utility.yul\":3723:3730   */\n      0x00\n        /* \"#utility.yul\":3752:3757   */\n      dup2\n        /* \"#utility.yul\":3741:3757   */\n      swap1\n      pop\n        /* \"#utility.yul\":3758:3801   */\n      tag_152\n        /* \"#utility.yul\":3795:3800   */\n      dup3\n        /* \"#utility.yul\":3758:3801   */\n      tag_98\n      jump\t// in\n    tag_152:\n        /* \"#utility.yul\":3676:3807   */\n      swap2\n      swap1\n      pop\n      jump\t// out\n        /* \"#utility.yul\":3813:3944   */\n    tag_100:\n        /* \"#utility.yul\":3871:3880   */\n      0x00\n        /* \"#utility.yul\":3904:3938   */\n      tag_154\n        /* \"#utility.yul\":3932:3937   */\n      dup3\n        /* \"#utility.yul\":3904:3938   */\n      tag_99\n      jump\t// in\n    tag_154:\n        /* \"#utility.yul\":3891:3938   */\n      swap1\n      pop\n        /* \"#utility.yul\":3813:3944   */\n      swap2\n      swap1\n      pop\n      jump\t// out\n        /* \"#utility.yul\":3950:4097   */\n    tag_101:\n        /* \"#utility.yul\":4045:4090   */\n      tag_156\n        /* \"#utility.yul\":4084:4089   */\n      dup2\n        /* \"#utility.yul\":4045:4090   */\n      tag_100\n      jump\t// in\n    tag_156:\n        /* \"#utility.yul\":4040:4043   */\n      dup3\n        /* \"#utility.yul\":4033:4091   */\n      mstore\n        /* \"#utility.yul\":3950:4097   */\n      pop\n      pop\n      jump\t// out\n        /* \"#utility.yul\":4103:4341   */\n    tag_30:\n        /* \"#utility.yul\":4204:4208   */\n      0x00\n        /* \"#utility.yul\":4242:4244   */\n      0x20\n        /* \"#utility.yul\":4231:4240   */\n      dup3\n        /* \"#utility.yul\":4227:4245   */\n      add\n        /* \"#utility.yul\":4219:4245   */\n      swap1\n      pop\n        /* \"#utility.yul\":4255:4334   */\n      tag_158\n        /* \"#utility.yul\":4331:4332   */\n      0x00\n        /* \"#utility.yul\":4320:4329   */\n      dup4\n        /* \"#utility.yul\":4316:4333   */\n      add\n        /* \"#utility.yul\":4307:4313   */\n      dup5\n        /* \"#utility.yul\":4255:4334   */\n      tag_101\n      jump\t// in\n    tag_158:\n        /* \"#utility.yul\":4103:4341   */\n      swap3\n      swap2\n      pop\n      pop\n      jump\t// out\n        /* \"#utility.yul\":4347:4521   */\n    tag_102:\n        /* \"#utility.yul\":4487:4513   */\n      0x3120455448206973206e656564656420746f2067756573730000000000000000\n        /* \"#utility.yul\":4483:4484   */\n      0x00\n        /* \"#utility.yul\":4475:4481   */\n      dup3\n        /* \"#utility.yul\":4471:4485   */\n      add\n        /* \"#utility.yul\":4464:4514   */\n      mstore\n        /* \"#utility.yul\":4347:4521   */\n      pop\n      jump\t// out\n        /* \"#utility.yul\":4527:4893   */\n    tag_103:\n        /* \"#utility.yul\":4669:4672   */\n      0x00\n        /* \"#utility.yul\":4690:4757   */\n      tag_161\n        /* \"#utility.yul\":4754:4756   */\n      0x18\n        /* \"#utility.yul\":4749:4752   */\n      dup4\n        /* \"#utility.yul\":4690:4757   */\n      tag_91\n      jump\t// in\n    tag_161:\n        /* \"#utility.yul\":4683:4757   */\n      swap2\n      pop\n        /* \"#utility.yul\":4766:4859   */\n      tag_162\n        /* \"#utility.yul\":4855:4858   */\n      dup3\n        /* \"#utility.yul\":4766:4859   */\n      tag_102\n      jump\t// in\n    tag_162:\n        /* \"#utility.yul\":4884:4886   */\n      0x20\n        /* \"#utility.yul\":4879:4882   */\n      dup3\n        /* \"#utility.yul\":4875:4887   */\n      add\n        /* \"#utility.yul\":4868:4887   */\n      swap1\n      pop\n        /* \"#utility.yul\":4527:4893   */\n      swap2\n      swap1\n      pop\n      jump\t// out\n        /* \"#utility.yul\":4899:5318   */\n    tag_34:\n        /* \"#utility.yul\":5065:5069   */\n      0x00\n        /* \"#utility.yul\":5103:5105   */\n      0x20\n        /* \"#utility.yul\":5092:5101   */\n      dup3\n        /* \"#utility.yul\":5088:5106   */\n      add\n        /* \"#utility.yul\":5080:5106   */\n      swap1\n      pop\n        /* \"#utility.yul\":5152:5161   */\n      dup2\n        /* \"#utility.yul\":5146:5150   */\n      dup2\n        /* \"#utility.yul\":5142:5162   */\n      sub\n        /* \"#utility.yul\":5138:5139   */\n      0x00\n        /* \"#utility.yul\":5127:5136   */\n      dup4\n        /* \"#utility.yul\":5123:5140   */\n      add\n        /* \"#utility.yul\":5116:5163   */\n      mstore\n        /* \"#utility.yul\":5180:5311   */\n      tag_164\n        /* \"#utility.yul\":5306:5310   */\n      dup2\n        /* \"#utility.yul\":5180:5311   */\n      tag_103\n      jump\t// in\n    tag_164:\n        /* \"#utility.yul\":5172:5311   */\n      swap1\n      pop\n        /* \"#utility.yul\":4899:5318   */\n      swap2\n      swap1\n      pop\n      jump\t// out\n        /* \"#utility.yul\":5324:5504   */\n    tag_104:\n        /* \"#utility.yul\":5372:5449   */\n      0x4e487b7100000000000000000000000000000000000000000000000000000000\n        /* \"#utility.yul\":5369:5370   */\n      0x00\n        /* \"#utility.yul\":5362:5450   */\n      mstore\n        /* \"#utility.yul\":5469:5473   */\n      0x11\n        /* \"#utility.yul\":5466:5467   */\n      0x04\n        /* \"#utility.yul\":5459:5474   */\n      mstore\n        /* \"#utility.yul\":5493:5497   */\n      0x24\n        /* \"#utility.yul\":5490:5491   */\n      0x00\n        /* \"#utility.yul\":5483:5498   */\n      revert\n        /* \"#utility.yul\":5510:5701   */\n    tag_77:\n        /* \"#utility.yul\":5550:5553   */\n      0x00\n        /* \"#utility.yul\":5569:5589   */\n      tag_167\n        /* \"#utility.yul\":5587:5588   */\n      dup3\n        /* \"#utility.yul\":5569:5589   */\n      tag_83\n      jump\t// in\n    tag_167:\n        /* \"#utility.yul\":5564:5589   */\n      swap2\n      pop\n        /* \"#utility.yul\":5603:5623   */\n      tag_168\n        /* \"#utility.yul\":5621:5622   */\n      dup4\n        /* \"#utility.yul\":5603:5623   */\n      tag_83\n      jump\t// in\n    tag_168:\n        /* \"#utility.yul\":5598:5623   */\n      swap3\n      pop\n        /* \"#utility.yul\":5646:5647   */\n      dup3\n        /* \"#utility.yul\":5643:5644   */\n      dup3\n        /* \"#utility.yul\":5639:5648   */\n      add\n        /* \"#utility.yul\":5632:5648   */\n      swap1\n      pop\n        /* \"#utility.yul\":5667:5670   */\n      dup1\n        /* \"#utility.yul\":5664:5665   */\n      dup3\n        /* \"#utility.yul\":5661:5671   */\n      gt\n        /* \"#utility.yul\":5658:5694   */\n      iszero\n      tag_169\n      jumpi\n        /* \"#utility.yul\":5674:5692   */\n      tag_170\n      tag_104\n      jump\t// in\n    tag_170:\n        /* \"#utility.yul\":5658:5694   */\n    tag_169:\n        /* \"#utility.yul\":5510:5701   */\n      swap3\n      swap2\n      pop\n      pop\n      jump\t// out\n        /* \"#utility.yul\":5707:5786   */\n    tag_105:\n        /* \"#utility.yul\":5746:5753   */\n      0x00\n        /* \"#utility.yul\":5775:5780   */\n      dup2\n        /* \"#utility.yul\":5764:5780   */\n      swap1\n      pop\n        /* \"#utility.yul\":5707:5786   */\n      swap2\n      swap1\n      pop\n      jump\t// out\n        /* \"#utility.yul\":5792:5949   */\n    tag_106:\n        /* \"#utility.yul\":5897:5942   */\n      tag_173\n        /* \"#utility.yul\":5917:5941   */\n      tag_174\n        /* \"#utility.yul\":5935:5940   */\n      dup3\n        /* \"#utility.yul\":5917:5941   */\n      tag_83\n      jump\t// in\n    tag_174:\n        /* \"#utility.yul\":5897:5942   */\n      tag_105\n      jump\t// in\n    tag_173:\n        /* \"#utility.yul\":5892:5895   */\n      dup3\n        /* \"#utility.yul\":5885:5943   */\n      mstore\n        /* \"#utility.yul\":5792:5949   */\n      pop\n      pop\n      jump\t// out\n        /* \"#utility.yul\":5955:6211   */\n    tag_79:\n        /* \"#utility.yul\":6067:6070   */\n      0x00\n        /* \"#utility.yul\":6082:6157   */\n      tag_176\n        /* \"#utility.yul\":6153:6156   */\n      dup3\n        /* \"#utility.yul\":6144:6150   */\n      dup5\n        /* \"#utility.yul\":6082:6157   */\n      tag_106\n      jump\t// in\n    tag_176:\n        /* \"#utility.yul\":6182:6184   */\n      0x20\n        /* \"#utility.yul\":6177:6180   */\n      dup3\n        /* \"#utility.yul\":6173:6185   */\n      add\n        /* \"#utility.yul\":6166:6185   */\n      swap2\n      pop\n        /* \"#utility.yul\":6202:6205   */\n      dup2\n        /* \"#utility.yul\":6195:6205   */\n      swap1\n      pop\n        /* \"#utility.yul\":5955:6211   */\n      swap3\n      swap2\n      pop\n      pop\n      jump\t// out\n        /* \"#utility.yul\":6217:6397   */\n    tag_107:\n        /* \"#utility.yul\":6265:6342   */\n      0x4e487b7100000000000000000000000000000000000000000000000000000000\n        /* \"#utility.yul\":6262:6263   */\n      0x00\n        /* \"#utility.yul\":6255:6343   */\n      mstore\n        /* \"#utility.yul\":6362:6366   */\n      0x12\n        /* \"#utility.yul\":6359:6360   */\n      0x04\n        /* \"#utility.yul\":6352:6367   */\n      mstore\n        /* \"#utility.yul\":6386:6390   */\n      0x24\n        /* \"#utility.yul\":6383:6384   */\n      0x00\n        /* \"#utility.yul\":6376:6391   */\n      revert\n        /* \"#utility.yul\":6403:6579   */\n    tag_81:\n        /* \"#utility.yul\":6435:6436   */\n      0x00\n        /* \"#utility.yul\":6452:6472   */\n      tag_179\n        /* \"#utility.yul\":6470:6471   */\n      dup3\n        /* \"#utility.yul\":6452:6472   */\n      tag_83\n      jump\t// in\n    tag_179:\n        /* \"#utility.yul\":6447:6472   */\n      swap2\n      pop\n        /* \"#utility.yul\":6486:6506   */\n      tag_180\n        /* \"#utility.yul\":6504:6505   */\n      dup4\n        /* \"#utility.yul\":6486:6506   */\n      tag_83\n      jump\t// in\n    tag_180:\n        /* \"#utility.yul\":6481:6506   */\n      swap3\n      pop\n        /* \"#utility.yul\":6525:6526   */\n      dup3\n        /* \"#utility.yul\":6515:6550   */\n      tag_181\n      jumpi\n        /* \"#utility.yul\":6530:6548   */\n      tag_182\n      tag_107\n      jump\t// in\n    tag_182:\n        /* \"#utility.yul\":6515:6550   */\n    tag_181:\n        /* \"#utility.yul\":6571:6572   */\n      dup3\n        /* \"#utility.yul\":6568:6569   */\n      dup3\n        /* \"#utility.yul\":6564:6573   */\n      mod\n        /* \"#utility.yul\":6559:6573   */\n      swap1\n      pop\n        /* \"#utility.yul\":6403:6579   */\n      swap3\n      swap2\n      pop\n      pop\n      jump\t// out\n\n    auxdata: 0xa2646970667358221220c2eb203c9428705825973d4c7faa4e95163f7f64ac2618539186dee28e0e013664736f6c63430008120033\n}\n",
				"bytecode": {
					"linkReferences": {},
					"object": "6080604052620000146200002060201b60201c565b60008190555062000199565b6000600160644442620000349190620000b5565b60405160200162000046919062000115565b6040516020818303038152906040528051906020012060001c6200006b919062000161565b620000779190620000b5565b905090565b6000819050919050565b7f4e487b7100000000000000000000000000000000000000000000000000000000600052601160045260246000fd5b6000620000c2826200007c565b9150620000cf836200007c565b9250828201905080821115620000ea57620000e962000086565b5b92915050565b6000819050919050565b6200010f62000109826200007c565b620000f0565b82525050565b6000620001238284620000fa565b60208201915081905092915050565b7f4e487b7100000000000000000000000000000000000000000000000000000000600052601260045260246000fd5b60006200016e826200007c565b91506200017b836200007c565b9250826200018e576200018d62000132565b5b828206905092915050565b61098080620001a96000396000f3fe60806040526004361061004a5760003560e01c8063845766fd1461004f5780639189fec11461007a578063ce6d41de14610096578063dfbf53ae146100c1578063e21f37ce146100ec575b600080fd5b34801561005b57600080fd5b50610064610117565b60405161007191906105c6565b60405180910390f35b610094600480360381019061008f9190610612565b61011d565b005b3480156100a257600080fd5b506100ab61037b565b6040516100b891906106cf565b60405180910390f35b3480156100cd57600080fd5b506100d6610520565b6040516100e39190610732565b60405180910390f35b3480156100f857600080fd5b50610101610546565b60405161010e91906107c4565b60405180910390f35b60015481565b670de0b6b3a76400003414610167576040517f08c379a000000000000000000000000000000000000000000000000000000000815260040161015e9061082b565b60405180910390fd5b60005481036102965733600260006101000a81548173ffffffffffffffffffffffffffffffffffffffff021916908373ffffffffffffffffffffffffffffffffffffffff160217905550600260009054906101000a900473ffffffffffffffffffffffffffffffffffffffff1673ffffffffffffffffffffffffffffffffffffffff166108fc479081150290604051600060405180830381858888f19350505050158015610219573d6000803e3d6000fd5b50610222610559565b6000819055506000600260146101000a81548160ff0219169083600281111561024e5761024d61074d565b5b02179055507f9fd40b777a67006201b62c0025adca7fed13f4f97a8c97e859b02a025adad78f61027c61037b565b60405161028991906106cf565b60405180910390a1610378565b60005481101561030e576001600260146101000a81548160ff021916908360028111156102c6576102c561074d565b5b02179055507f9fd40b777a67006201b62c0025adca7fed13f4f97a8c97e859b02a025adad78f6102f461037b565b60405161030191906106cf565b60405180910390a1610377565b60028060146101000a81548160ff021916908360028111156103335761033261074d565b5b02179055507f9fd40b777a67006201b62c0025adca7fed13f4f97a8c97e859b02a025adad78f61036161037b565b60405161036e91906106cf565b60405180910390a15b5b50565b6060600060028111156103915761039061074d565b5b600260149054906101000a900460ff1660028111156103b3576103b261074d565b5b036103f5576040518060400160405280600381526020017f57696e0000000000000000000000000000000000000000000000000000000000815250905061051d565b600160028111156104095761040861074d565b5b600260149054906101000a900460ff16600281111561042b5761042a61074d565b5b0361046d576040518060400160405280600281526020017f5570000000000000000000000000000000000000000000000000000000000000815250905061051d565b6002808111156104805761047f61074d565b5b600260149054906101000a900460ff1660028111156104a2576104a161074d565b5b036104e4576040518060400160405280600481526020017f446f776e00000000000000000000000000000000000000000000000000000000815250905061051d565b6040518060400160405280601781526020017f596f75206e65656420746f20677565737320666972737400000000000000000081525090505b90565b600260009054906101000a900473ffffffffffffffffffffffffffffffffffffffff1681565b600260149054906101000a900460ff1681565b600060016064444261056b919061087a565b60405160200161057b91906108cf565b6040516020818303038152906040528051906020012060001c61059e9190610919565b6105a8919061087a565b905090565b6000819050919050565b6105c0816105ad565b82525050565b60006020820190506105db60008301846105b7565b92915050565b600080fd5b6105ef816105ad565b81146105fa57600080fd5b50565b60008135905061060c816105e6565b92915050565b600060208284031215610628576106276105e1565b5b6000610636848285016105fd565b91505092915050565b600081519050919050565b600082825260208201905092915050565b60005b8381101561067957808201518184015260208101905061065e565b60008484015250505050565b6000601f19601f8301169050919050565b60006106a18261063f565b6106ab818561064a565b93506106bb81856020860161065b565b6106c481610685565b840191505092915050565b600060208201905081810360008301526106e98184610696565b905092915050565b600073ffffffffffffffffffffffffffffffffffffffff82169050919050565b600061071c826106f1565b9050919050565b61072c81610711565b82525050565b60006020820190506107476000830184610723565b92915050565b7f4e487b7100000000000000000000000000000000000000000000000000000000600052602160045260246000fd5b6003811061078d5761078c61074d565b5b50565b600081905061079e8261077c565b919050565b60006107ae82610790565b9050919050565b6107be816107a3565b82525050565b60006020820190506107d960008301846107b5565b92915050565b7f3120455448206973206e656564656420746f2067756573730000000000000000600082015250565b600061081560188361064a565b9150610820826107df565b602082019050919050565b6000602082019050818103600083015261084481610808565b9050919050565b7f4e487b7100000000000000000000000000000000000000000000000000000000600052601160045260246000fd5b6000610885826105ad565b9150610890836105ad565b92508282019050808211156108a8576108a761084b565b5b92915050565b6000819050919050565b6108c96108c4826105ad565b6108ae565b82525050565b60006108db82846108b8565b60208201915081905092915050565b7f4e487b7100000000000000000000000000000000000000000000000000000000600052601260045260246000fd5b6000610924826105ad565b915061092f836105ad565b92508261093f5761093e6108ea565b5b82820690509291505056fea2646970667358221220c2eb203c9428705825973d4c7faa4e95163f7f64ac2618539186dee28e0e013664736f6c63430008120033",
					"opcodes": "PUSH1 0x80 PUSH1 0x40 MSTORE PUSH3 0x14 PUSH3 0x20 PUSH1 0x20 SHL PUSH1 0x20 SHR JUMP JUMPDEST PUSH1 0x0 DUP2 SWAP1 SSTORE POP PUSH3 0x199 JUMP JUMPDEST PUSH1 0x0 PUSH1 0x1 PUSH1 0x64 PREVRANDAO TIMESTAMP PUSH3 0x34 SWAP2 SWAP1 PUSH3 0xB5 JUMP JUMPDEST PUSH1 0x40 MLOAD PUSH1 0x20 ADD PUSH3 0x46 SWAP2 SWAP1 PUSH3 0x115 JUMP JUMPDEST PUSH1 0x40 MLOAD PUSH1 0x20 DUP2 DUP4 SUB SUB DUP2 MSTORE SWAP1 PUSH1 0x40 MSTORE DUP1 MLOAD SWAP1 PUSH1 0x20 ADD KECCAK256 PUSH1 0x0 SHR PUSH3 0x6B SWAP2 SWAP1 PUSH3 0x161 JUMP JUMPDEST PUSH3 0x77 SWAP2 SWAP1 PUSH3 0xB5 JUMP JUMPDEST SWAP1 POP SWAP1 JUMP JUMPDEST PUSH1 0x0 DUP2 SWAP1 POP SWAP2 SWAP1 POP JUMP JUMPDEST PUSH32 0x4E487B7100000000000000000000000000000000000000000000000000000000 PUSH1 0x0 MSTORE PUSH1 0x11 PUSH1 0x4 MSTORE PUSH1 0x24 PUSH1 0x0 REVERT JUMPDEST PUSH1 0x0 PUSH3 0xC2 DUP3 PUSH3 0x7C JUMP JUMPDEST SWAP2 POP PUSH3 0xCF DUP4 PUSH3 0x7C JUMP JUMPDEST SWAP3 POP DUP3 DUP3 ADD SWAP1 POP DUP1 DUP3 GT ISZERO PUSH3 0xEA JUMPI PUSH3 0xE9 PUSH3 0x86 JUMP JUMPDEST JUMPDEST SWAP3 SWAP2 POP POP JUMP JUMPDEST PUSH1 0x0 DUP2 SWAP1 POP SWAP2 SWAP1 POP JUMP JUMPDEST PUSH3 0x10F PUSH3 0x109 DUP3 PUSH3 0x7C JUMP JUMPDEST PUSH3 0xF0 JUMP JUMPDEST DUP3 MSTORE POP POP JUMP JUMPDEST PUSH1 0x0 PUSH3 0x123 DUP3 DUP5 PUSH3 0xFA JUMP JUMPDEST PUSH1 0x20 DUP3 ADD SWAP2 POP DUP2 SWAP1 POP SWAP3 SWAP2 POP POP JUMP JUMPDEST PUSH32 0x4E487B7100000000000000000000000000000000000000000000000000000000 PUSH1 0x0 MSTORE PUSH1 0x12 PUSH1 0x4 MSTORE PUSH1 0x24 PUSH1 0x0 REVERT JUMPDEST PUSH1 0x0 PUSH3 0x16E DUP3 PUSH3 0x7C JUMP JUMPDEST SWAP2 POP PUSH3 0x17B DUP4 PUSH3 0x7C JUMP JUMPDEST SWAP3 POP DUP3 PUSH3 0x18E JUMPI PUSH3 0x18D PUSH3 0x132 JUMP JUMPDEST JUMPDEST DUP3 DUP3 MOD SWAP1 POP SWAP3 SWAP2 POP POP JUMP JUMPDEST PUSH2 0x980 DUP1 PUSH3 0x1A9 PUSH1 0x0 CODECOPY PUSH1 0x0 RETURN INVALID PUSH1 0x80 PUSH1 0x40 MSTORE PUSH1 0x4 CALLDATASIZE LT PUSH2 0x4A JUMPI PUSH1 0x0 CALLDATALOAD PUSH1 0xE0 SHR DUP1 PUSH4 0x845766FD EQ PUSH2 0x4F JUMPI DUP1 PUSH4 0x9189FEC1 EQ PUSH2 0x7A JUMPI DUP1 PUSH4 0xCE6D41DE EQ PUSH2 0x96 JUMPI DUP1 PUSH4 0xDFBF53AE EQ PUSH2 0xC1 JUMPI DUP1 PUSH4 0xE21F37CE EQ PUSH2 0xEC JUMPI JUMPDEST PUSH1 0x0 DUP1 REVERT JUMPDEST CALLVALUE DUP1 ISZERO PUSH2 0x5B JUMPI PUSH1 0x0 DUP1 REVERT JUMPDEST POP PUSH2 0x64 PUSH2 0x117 JUMP JUMPDEST PUSH1 0x40 MLOAD PUSH2 0x71 SWAP2 SWAP1 PUSH2 0x5C6 JUMP JUMPDEST PUSH1 0x40 MLOAD DUP1 SWAP2 SUB SWAP1 RETURN JUMPDEST PUSH2 0x94 PUSH1 0x4 DUP1 CALLDATASIZE SUB DUP2 ADD SWAP1 PUSH2 0x8F SWAP2 SWAP1 PUSH2 0x612 JUMP JUMPDEST PUSH2 0x11D JUMP JUMPDEST STOP JUMPDEST CALLVALUE DUP1 ISZERO PUSH2 0xA2 JUMPI PUSH1 0x0 DUP1 REVERT JUMPDEST POP PUSH2 0xAB PUSH2 0x37B JUMP JUMPDEST PUSH1 0x40 MLOAD PUSH2 0xB8 SWAP2 SWAP1 PUSH2 0x6CF JUMP JUMPDEST PUSH1 0x40 MLOAD DUP1 SWAP2 SUB SWAP1 RETURN JUMPDEST CALLVALUE DUP1 ISZERO PUSH2 0xCD JUMPI PUSH1 0x0 DUP1 REVERT JUMPDEST POP PUSH2 0xD6 PUSH2 0x520 JUMP JUMPDEST PUSH1 0x40 MLOAD PUSH2 0xE3 SWAP2 SWAP1 PUSH2 0x732 JUMP JUMPDEST PUSH1 0x40 MLOAD DUP1 SWAP2 SUB SWAP1 RETURN JUMPDEST CALLVALUE DUP1 ISZERO PUSH2 0xF8 JUMPI PUSH1 0x0 DUP1 REVERT JUMPDEST POP PUSH2 0x101 PUSH2 0x546 JUMP JUMPDEST PUSH1 0x40 MLOAD PUSH2 0x10E SWAP2 SWAP1 PUSH2 0x7C4 JUMP JUMPDEST PUSH1 0x40 MLOAD DUP1 SWAP2 SUB SWAP1 RETURN JUMPDEST PUSH1 0x1 SLOAD DUP2 JUMP JUMPDEST PUSH8 0xDE0B6B3A7640000 CALLVALUE EQ PUSH2 0x167 JUMPI PUSH1 0x40 MLOAD PUSH32 0x8C379A000000000000000000000000000000000000000000000000000000000 DUP2 MSTORE PUSH1 0x4 ADD PUSH2 0x15E SWAP1 PUSH2 0x82B JUMP JUMPDEST PUSH1 0x40 MLOAD DUP1 SWAP2 SUB SWAP1 REVERT JUMPDEST PUSH1 0x0 SLOAD DUP2 SUB PUSH2 0x296 JUMPI CALLER PUSH1 0x2 PUSH1 0x0 PUSH2 0x100 EXP DUP2 SLOAD DUP2 PUSH20 0xFFFFFFFFFFFFFFFFFFFFFFFFFFFFFFFFFFFFFFFF MUL NOT AND SWAP1 DUP4 PUSH20 0xFFFFFFFFFFFFFFFFFFFFFFFFFFFFFFFFFFFFFFFF AND MUL OR SWAP1 SSTORE POP PUSH1 0x2 PUSH1 0x0 SWAP1 SLOAD SWAP1 PUSH2 0x100 EXP SWAP1 DIV PUSH20 0xFFFFFFFFFFFFFFFFFFFFFFFFFFFFFFFFFFFFFFFF AND PUSH20 0xFFFFFFFFFFFFFFFFFFFFFFFFFFFFFFFFFFFFFFFF AND PUSH2 0x8FC SELFBALANCE SWAP1 DUP2 ISZERO MUL SWAP1 PUSH1 0x40 MLOAD PUSH1 0x0 PUSH1 0x40 MLOAD DUP1 DUP4 SUB DUP2 DUP6 DUP9 DUP9 CALL SWAP4 POP POP POP POP ISZERO DUP1 ISZERO PUSH2 0x219 JUMPI RETURNDATASIZE PUSH1 0x0 DUP1 RETURNDATACOPY RETURNDATASIZE PUSH1 0x0 REVERT JUMPDEST POP PUSH2 0x222 PUSH2 0x559 JUMP JUMPDEST PUSH1 0x0 DUP2 SWAP1 SSTORE POP PUSH1 0x0 PUSH1 0x2 PUSH1 0x14 PUSH2 0x100 EXP DUP2 SLOAD DUP2 PUSH1 0xFF MUL NOT AND SWAP1 DUP4 PUSH1 0x2 DUP2 GT ISZERO PUSH2 0x24E JUMPI PUSH2 0x24D PUSH2 0x74D JUMP JUMPDEST JUMPDEST MUL OR SWAP1 SSTORE POP PUSH32 0x9FD40B777A67006201B62C0025ADCA7FED13F4F97A8C97E859B02A025ADAD78F PUSH2 0x27C PUSH2 0x37B JUMP JUMPDEST PUSH1 0x40 MLOAD PUSH2 0x289 SWAP2 SWAP1 PUSH2 0x6CF JUMP JUMPDEST PUSH1 0x40 MLOAD DUP1 SWAP2 SUB SWAP1 LOG1 PUSH2 0x378 JUMP JUMPDEST PUSH1 0x0 SLOAD DUP2 LT ISZERO PUSH2 0x30E JUMPI PUSH1 0x1 PUSH1 0x2 PUSH1 0x14 PUSH2 0x100 EXP DUP2 SLOAD DUP2 PUSH1 0xFF MUL NOT AND SWAP1 DUP4 PUSH1 0x2 DUP2 GT ISZERO PUSH2 0x2C6 JUMPI PUSH2 0x2C5 PUSH2 0x74D JUMP JUMPDEST JUMPDEST MUL OR SWAP1 SSTORE POP PUSH32 0x9FD40B777A67006201B62C0025ADCA7FED13F4F97A8C97E859B02A025ADAD78F PUSH2 0x2F4 PUSH2 0x37B JUMP JUMPDEST PUSH1 0x40 MLOAD PUSH2 0x301 SWAP2 SWAP1 PUSH2 0x6CF JUMP JUMPDEST PUSH1 0x40 MLOAD DUP1 SWAP2 SUB SWAP1 LOG1 PUSH2 0x377 JUMP JUMPDEST PUSH1 0x2 DUP1 PUSH1 0x14 PUSH2 0x100 EXP DUP2 SLOAD DUP2 PUSH1 0xFF MUL NOT AND SWAP1 DUP4 PUSH1 0x2 DUP2 GT ISZERO PUSH2 0x333 JUMPI PUSH2 0x332 PUSH2 0x74D JUMP JUMPDEST JUMPDEST MUL OR SWAP1 SSTORE POP PUSH32 0x9FD40B777A67006201B62C0025ADCA7FED13F4F97A8C97E859B02A025ADAD78F PUSH2 0x361 PUSH2 0x37B JUMP JUMPDEST PUSH1 0x40 MLOAD PUSH2 0x36E SWAP2 SWAP1 PUSH2 0x6CF JUMP JUMPDEST PUSH1 0x40 MLOAD DUP1 SWAP2 SUB SWAP1 LOG1 JUMPDEST JUMPDEST POP JUMP JUMPDEST PUSH1 0x60 PUSH1 0x0 PUSH1 0x2 DUP2 GT ISZERO PUSH2 0x391 JUMPI PUSH2 0x390 PUSH2 0x74D JUMP JUMPDEST JUMPDEST PUSH1 0x2 PUSH1 0x14 SWAP1 SLOAD SWAP1 PUSH2 0x100 EXP SWAP1 DIV PUSH1 0xFF AND PUSH1 0x2 DUP2 GT ISZERO PUSH2 0x3B3 JUMPI PUSH2 0x3B2 PUSH2 0x74D JUMP JUMPDEST JUMPDEST SUB PUSH2 0x3F5 JUMPI PUSH1 0x40 MLOAD DUP1 PUSH1 0x40 ADD PUSH1 0x40 MSTORE DUP1 PUSH1 0x3 DUP2 MSTORE PUSH1 0x20 ADD PUSH32 0x57696E0000000000000000000000000000000000000000000000000000000000 DUP2 MSTORE POP SWAP1 POP PUSH2 0x51D JUMP JUMPDEST PUSH1 0x1 PUSH1 0x2 DUP2 GT ISZERO PUSH2 0x409 JUMPI PUSH2 0x408 PUSH2 0x74D JUMP JUMPDEST JUMPDEST PUSH1 0x2 PUSH1 0x14 SWAP1 SLOAD SWAP1 PUSH2 0x100 EXP SWAP1 DIV PUSH1 0xFF AND PUSH1 0x2 DUP2 GT ISZERO PUSH2 0x42B JUMPI PUSH2 0x42A PUSH2 0x74D JUMP JUMPDEST JUMPDEST SUB PUSH2 0x46D JUMPI PUSH1 0x40 MLOAD DUP1 PUSH1 0x40 ADD PUSH1 0x40 MSTORE DUP1 PUSH1 0x2 DUP2 MSTORE PUSH1 0x20 ADD PUSH32 0x5570000000000000000000000000000000000000000000000000000000000000 DUP2 MSTORE POP SWAP1 POP PUSH2 0x51D JUMP JUMPDEST PUSH1 0x2 DUP1 DUP2 GT ISZERO PUSH2 0x480 JUMPI PUSH2 0x47F PUSH2 0x74D JUMP JUMPDEST JUMPDEST PUSH1 0x2 PUSH1 0x14 SWAP1 SLOAD SWAP1 PUSH2 0x100 EXP SWAP1 DIV PUSH1 0xFF AND PUSH1 0x2 DUP2 GT ISZERO PUSH2 0x4A2 JUMPI PUSH2 0x4A1 PUSH2 0x74D JUMP JUMPDEST JUMPDEST SUB PUSH2 0x4E4 JUMPI PUSH1 0x40 MLOAD DUP1 PUSH1 0x40 ADD PUSH1 0x40 MSTORE DUP1 PUSH1 0x4 DUP2 MSTORE PUSH1 0x20 ADD PUSH32 0x446F776E00000000000000000000000000000000000000000000000000000000 DUP2 MSTORE POP SWAP1 POP PUSH2 0x51D JUMP JUMPDEST PUSH1 0x40 MLOAD DUP1 PUSH1 0x40 ADD PUSH1 0x40 MSTORE DUP1 PUSH1 0x17 DUP2 MSTORE PUSH1 0x20 ADD PUSH32 0x596F75206E65656420746F206775657373206669727374000000000000000000 DUP2 MSTORE POP SWAP1 POP JUMPDEST SWAP1 JUMP JUMPDEST PUSH1 0x2 PUSH1 0x0 SWAP1 SLOAD SWAP1 PUSH2 0x100 EXP SWAP1 DIV PUSH20 0xFFFFFFFFFFFFFFFFFFFFFFFFFFFFFFFFFFFFFFFF AND DUP2 JUMP JUMPDEST PUSH1 0x2 PUSH1 0x14 SWAP1 SLOAD SWAP1 PUSH2 0x100 EXP SWAP1 DIV PUSH1 0xFF AND DUP2 JUMP JUMPDEST PUSH1 0x0 PUSH1 0x1 PUSH1 0x64 PREVRANDAO TIMESTAMP PUSH2 0x56B SWAP2 SWAP1 PUSH2 0x87A JUMP JUMPDEST PUSH1 0x40 MLOAD PUSH1 0x20 ADD PUSH2 0x57B SWAP2 SWAP1 PUSH2 0x8CF JUMP JUMPDEST PUSH1 0x40 MLOAD PUSH1 0x20 DUP2 DUP4 SUB SUB DUP2 MSTORE SWAP1 PUSH1 0x40 MSTORE DUP1 MLOAD SWAP1 PUSH1 0x20 ADD KECCAK256 PUSH1 0x0 SHR PUSH2 0x59E SWAP2 SWAP1 PUSH2 0x919 JUMP JUMPDEST PUSH2 0x5A8 SWAP2 SWAP1 PUSH2 0x87A JUMP JUMPDEST SWAP1 POP SWAP1 JUMP JUMPDEST PUSH1 0x0 DUP2 SWAP1 POP SWAP2 SWAP1 POP JUMP JUMPDEST PUSH2 0x5C0 DUP2 PUSH2 0x5AD JUMP JUMPDEST DUP3 MSTORE POP POP JUMP JUMPDEST PUSH1 0x0 PUSH1 0x20 DUP3 ADD SWAP1 POP PUSH2 0x5DB PUSH1 0x0 DUP4 ADD DUP5 PUSH2 0x5B7 JUMP JUMPDEST SWAP3 SWAP2 POP POP JUMP JUMPDEST PUSH1 0x0 DUP1 REVERT JUMPDEST PUSH2 0x5EF DUP2 PUSH2 0x5AD JUMP JUMPDEST DUP2 EQ PUSH2 0x5FA JUMPI PUSH1 0x0 DUP1 REVERT JUMPDEST POP JUMP JUMPDEST PUSH1 0x0 DUP2 CALLDATALOAD SWAP1 POP PUSH2 0x60C DUP2 PUSH2 0x5E6 JUMP JUMPDEST SWAP3 SWAP2 POP POP JUMP JUMPDEST PUSH1 0x0 PUSH1 0x20 DUP3 DUP5 SUB SLT ISZERO PUSH2 0x628 JUMPI PUSH2 0x627 PUSH2 0x5E1 JUMP JUMPDEST JUMPDEST PUSH1 0x0 PUSH2 0x636 DUP5 DUP3 DUP6 ADD PUSH2 0x5FD JUMP JUMPDEST SWAP2 POP POP SWAP3 SWAP2 POP POP JUMP JUMPDEST PUSH1 0x0 DUP2 MLOAD SWAP1 POP SWAP2 SWAP1 POP JUMP JUMPDEST PUSH1 0x0 DUP3 DUP3 MSTORE PUSH1 0x20 DUP3 ADD SWAP1 POP SWAP3 SWAP2 POP POP JUMP JUMPDEST PUSH1 0x0 JUMPDEST DUP4 DUP2 LT ISZERO PUSH2 0x679 JUMPI DUP1 DUP3 ADD MLOAD DUP2 DUP5 ADD MSTORE PUSH1 0x20 DUP2 ADD SWAP1 POP PUSH2 0x65E JUMP JUMPDEST PUSH1 0x0 DUP5 DUP5 ADD MSTORE POP POP POP POP JUMP JUMPDEST PUSH1 0x0 PUSH1 0x1F NOT PUSH1 0x1F DUP4 ADD AND SWAP1 POP SWAP2 SWAP1 POP JUMP JUMPDEST PUSH1 0x0 PUSH2 0x6A1 DUP3 PUSH2 0x63F JUMP JUMPDEST PUSH2 0x6AB DUP2 DUP6 PUSH2 0x64A JUMP JUMPDEST SWAP4 POP PUSH2 0x6BB DUP2 DUP6 PUSH1 0x20 DUP7 ADD PUSH2 0x65B JUMP JUMPDEST PUSH2 0x6C4 DUP2 PUSH2 0x685 JUMP JUMPDEST DUP5 ADD SWAP2 POP POP SWAP3 SWAP2 POP POP JUMP JUMPDEST PUSH1 0x0 PUSH1 0x20 DUP3 ADD SWAP1 POP DUP2 DUP2 SUB PUSH1 0x0 DUP4 ADD MSTORE PUSH2 0x6E9 DUP2 DUP5 PUSH2 0x696 JUMP JUMPDEST SWAP1 POP SWAP3 SWAP2 POP POP JUMP JUMPDEST PUSH1 0x0 PUSH20 0xFFFFFFFFFFFFFFFFFFFFFFFFFFFFFFFFFFFFFFFF DUP3 AND SWAP1 POP SWAP2 SWAP1 POP JUMP JUMPDEST PUSH1 0x0 PUSH2 0x71C DUP3 PUSH2 0x6F1 JUMP JUMPDEST SWAP1 POP SWAP2 SWAP1 POP JUMP JUMPDEST PUSH2 0x72C DUP2 PUSH2 0x711 JUMP JUMPDEST DUP3 MSTORE POP POP JUMP JUMPDEST PUSH1 0x0 PUSH1 0x20 DUP3 ADD SWAP1 POP PUSH2 0x747 PUSH1 0x0 DUP4 ADD DUP5 PUSH2 0x723 JUMP JUMPDEST SWAP3 SWAP2 POP POP JUMP JUMPDEST PUSH32 0x4E487B7100000000000000000000000000000000000000000000000000000000 PUSH1 0x0 MSTORE PUSH1 0x21 PUSH1 0x4 MSTORE PUSH1 0x24 PUSH1 0x0 REVERT JUMPDEST PUSH1 0x3 DUP2 LT PUSH2 0x78D JUMPI PUSH2 0x78C PUSH2 0x74D JUMP JUMPDEST JUMPDEST POP JUMP JUMPDEST PUSH1 0x0 DUP2 SWAP1 POP PUSH2 0x79E DUP3 PUSH2 0x77C JUMP JUMPDEST SWAP2 SWAP1 POP JUMP JUMPDEST PUSH1 0x0 PUSH2 0x7AE DUP3 PUSH2 0x790 JUMP JUMPDEST SWAP1 POP SWAP2 SWAP1 POP JUMP JUMPDEST PUSH2 0x7BE DUP2 PUSH2 0x7A3 JUMP JUMPDEST DUP3 MSTORE POP POP JUMP JUMPDEST PUSH1 0x0 PUSH1 0x20 DUP3 ADD SWAP1 POP PUSH2 0x7D9 PUSH1 0x0 DUP4 ADD DUP5 PUSH2 0x7B5 JUMP JUMPDEST SWAP3 SWAP2 POP POP JUMP JUMPDEST PUSH32 0x3120455448206973206E656564656420746F2067756573730000000000000000 PUSH1 0x0 DUP3 ADD MSTORE POP JUMP JUMPDEST PUSH1 0x0 PUSH2 0x815 PUSH1 0x18 DUP4 PUSH2 0x64A JUMP JUMPDEST SWAP2 POP PUSH2 0x820 DUP3 PUSH2 0x7DF JUMP JUMPDEST PUSH1 0x20 DUP3 ADD SWAP1 POP SWAP2 SWAP1 POP JUMP JUMPDEST PUSH1 0x0 PUSH1 0x20 DUP3 ADD SWAP1 POP DUP2 DUP2 SUB PUSH1 0x0 DUP4 ADD MSTORE PUSH2 0x844 DUP2 PUSH2 0x808 JUMP JUMPDEST SWAP1 POP SWAP2 SWAP1 POP JUMP JUMPDEST PUSH32 0x4E487B7100000000000000000000000000000000000000000000000000000000 PUSH1 0x0 MSTORE PUSH1 0x11 PUSH1 0x4 MSTORE PUSH1 0x24 PUSH1 0x0 REVERT JUMPDEST PUSH1 0x0 PUSH2 0x885 DUP3 PUSH2 0x5AD JUMP JUMPDEST SWAP2 POP PUSH2 0x890 DUP4 PUSH2 0x5AD JUMP JUMPDEST SWAP3 POP DUP3 DUP3 ADD SWAP1 POP DUP1 DUP3 GT ISZERO PUSH2 0x8A8 JUMPI PUSH2 0x8A7 PUSH2 0x84B JUMP JUMPDEST JUMPDEST SWAP3 SWAP2 POP POP JUMP JUMPDEST PUSH1 0x0 DUP2 SWAP1 POP SWAP2 SWAP1 POP JUMP JUMPDEST PUSH2 0x8C9 PUSH2 0x8C4 DUP3 PUSH2 0x5AD JUMP JUMPDEST PUSH2 0x8AE JUMP JUMPDEST DUP3 MSTORE POP POP JUMP JUMPDEST PUSH1 0x0 PUSH2 0x8DB DUP3 DUP5 PUSH2 0x8B8 JUMP JUMPDEST PUSH1 0x20 DUP3 ADD SWAP2 POP DUP2 SWAP1 POP SWAP3 SWAP2 POP POP JUMP JUMPDEST PUSH32 0x4E487B7100000000000000000000000000000000000000000000000000000000 PUSH1 0x0 MSTORE PUSH1 0x12 PUSH1 0x4 MSTORE PUSH1 0x24 PUSH1 0x0 REVERT JUMPDEST PUSH1 0x0 PUSH2 0x924 DUP3 PUSH2 0x5AD JUMP JUMPDEST SWAP2 POP PUSH2 0x92F DUP4 PUSH2 0x5AD JUMP JUMPDEST SWAP3 POP DUP3 PUSH2 0x93F JUMPI PUSH2 0x93E PUSH2 0x8EA JUMP JUMPDEST JUMPDEST DUP3 DUP3 MOD SWAP1 POP SWAP3 SWAP2 POP POP JUMP INVALID LOG2 PUSH5 0x6970667358 0x22 SLT KECCAK256 0xC2 0xEB KECCAK256 EXTCODECOPY SWAP5 0x28 PUSH17 0x5825973D4C7FAA4E95163F7F64AC261853 SWAP2 DUP7 0xDE 0xE2 DUP15 0xE ADD CALLDATASIZE PUSH5 0x736F6C6343 STOP ADDMOD SLT STOP CALLER "
				},
				"gasEstimates": {
					"creation": {
						"codeDepositCost": "486400",
						"executionCost": "infinite",
						"totalCost": "infinite"
					},
					"external": {
						"getMessage()": "infinite",
						"guess(uint256)": "infinite",
						"guessNumer()": "2407",
						"message()": "2676",
						"winner()": "2558"
					},
					"internal": {
						"generateRandomNumber()": "infinite"
					}
				},
				"methodIdentifiers": {
					"getMessage()": "ce6d41de",
					"guess(uint256)": "9189fec1",
					"guessNumer()": "845766fd",
					"message()": "e21f37ce",
					"winner()": "dfbf53ae"
				}
			},
			"storageLayout": {
				"storage": [
					{
						"astId": 3,
						"contract": "Practice_1/3_RandomNumberGame.sol:RandomNumberGame",
						"label": "randomNumber",
						"offset": 0,
						"slot": "0",
						"type": "t_uint256"
					},
					{
						"astId": 5,
						"contract": "Practice_1/3_RandomNumberGame.sol:RandomNumberGame",
						"label": "guessNumer",
						"offset": 0,
						"slot": "1",
						"type": "t_uint256"
					},
					{
						"astId": 7,
						"contract": "Practice_1/3_RandomNumberGame.sol:RandomNumberGame",
						"label": "winner",
						"offset": 0,
						"slot": "2",
						"type": "t_address_payable"
					},
					{
						"astId": 14,
						"contract": "Practice_1/3_RandomNumberGame.sol:RandomNumberGame",
						"label": "message",
						"offset": 20,
						"slot": "2",
						"type": "t_enum(Message)11"
					}
				],
				"types": {
					"t_address_payable": {
						"encoding": "inplace",
						"label": "address payable",
						"numberOfBytes": "20"
					},
					"t_enum(Message)11": {
						"encoding": "inplace",
						"label": "enum RandomNumberGame.Message",
						"numberOfBytes": "1"
					},
					"t_uint256": {
						"encoding": "inplace",
						"label": "uint256",
						"numberOfBytes": "32"
					}
				}
			},
			"userdoc": {
				"kind": "user",
				"methods": {},
				"version": 1
			}
		}
	}
}