{
  "contractName": "myNFT",
  "abi": [
    {
      "inputs": [
        {
          "internalType": "string",
          "name": "_name",
          "type": "string"
        },
        {
          "internalType": "string",
          "name": "_symbol",
          "type": "string"
        }
      ],
      "stateMutability": "nonpayable",
      "type": "constructor"
    },
    {
      "anonymous": false,
      "inputs": [
        {
          "indexed": true,
          "internalType": "address",
          "name": "_owner",
          "type": "address"
        },
        {
          "indexed": true,
          "internalType": "address",
          "name": "_approved",
          "type": "address"
        },
        {
          "indexed": true,
          "internalType": "uint256",
          "name": "_tokenId",
          "type": "uint256"
        }
      ],
      "name": "Approval",
      "type": "event"
    },
    {
      "anonymous": false,
      "inputs": [
        {
          "indexed": true,
          "internalType": "address",
          "name": "_owner",
          "type": "address"
        },
        {
          "indexed": true,
          "internalType": "address",
          "name": "_operator",
          "type": "address"
        },
        {
          "indexed": false,
          "internalType": "bool",
          "name": "_approved",
          "type": "bool"
        }
      ],
      "name": "ApprovalForAll",
      "type": "event"
    },
    {
      "anonymous": false,
      "inputs": [
        {
          "indexed": true,
          "internalType": "address",
          "name": "_from",
          "type": "address"
        },
        {
          "indexed": true,
          "internalType": "address",
          "name": "_to",
          "type": "address"
        },
        {
          "indexed": true,
          "internalType": "uint256",
          "name": "_tokenId",
          "type": "uint256"
        }
      ],
      "name": "Transfer",
      "type": "event"
    },
    {
      "inputs": [
        {
          "internalType": "uint256",
          "name": "",
          "type": "uint256"
        }
      ],
      "name": "images",
      "outputs": [
        {
          "internalType": "string",
          "name": "name",
          "type": "string"
        },
        {
          "internalType": "string",
          "name": "url",
          "type": "string"
        },
        {
          "internalType": "string",
          "name": "myAttributes",
          "type": "string"
        }
      ],
      "stateMutability": "view",
      "type": "function"
    },
    {
      "inputs": [
        {
          "internalType": "uint256",
          "name": "",
          "type": "uint256"
        }
      ],
      "name": "isForSale",
      "outputs": [
        {
          "internalType": "bool",
          "name": "",
          "type": "bool"
        }
      ],
      "stateMutability": "view",
      "type": "function"
    },
    {
      "inputs": [
        {
          "internalType": "address",
          "name": "",
          "type": "address"
        }
      ],
      "name": "tokenBalance",
      "outputs": [
        {
          "internalType": "uint256",
          "name": "",
          "type": "uint256"
        }
      ],
      "stateMutability": "view",
      "type": "function"
    },
    {
      "inputs": [
        {
          "internalType": "uint256",
          "name": "",
          "type": "uint256"
        }
      ],
      "name": "tokenOwner",
      "outputs": [
        {
          "internalType": "address",
          "name": "",
          "type": "address"
        }
      ],
      "stateMutability": "view",
      "type": "function"
    },
    {
      "inputs": [
        {
          "internalType": "uint256",
          "name": "",
          "type": "uint256"
        },
        {
          "internalType": "uint256",
          "name": "",
          "type": "uint256"
        }
      ],
      "name": "tokenOwnerHistory",
      "outputs": [
        {
          "internalType": "address",
          "name": "",
          "type": "address"
        }
      ],
      "stateMutability": "view",
      "type": "function"
    },
    {
      "inputs": [
        {
          "internalType": "uint256",
          "name": "",
          "type": "uint256"
        }
      ],
      "name": "tokenPrice",
      "outputs": [
        {
          "internalType": "uint256",
          "name": "",
          "type": "uint256"
        }
      ],
      "stateMutability": "view",
      "type": "function"
    },
    {
      "inputs": [
        {
          "internalType": "address",
          "name": "_to",
          "type": "address"
        },
        {
          "internalType": "string",
          "name": "_name",
          "type": "string"
        },
        {
          "internalType": "string",
          "name": "_url",
          "type": "string"
        },
        {
          "internalType": "string",
          "name": "myAttributes",
          "type": "string"
        }
      ],
      "name": "mint",
      "outputs": [],
      "stateMutability": "nonpayable",
      "type": "function"
    },
    {
      "inputs": [
        {
          "internalType": "uint256",
          "name": "tokenId",
          "type": "uint256"
        }
      ],
      "name": "ownerHistoryOf",
      "outputs": [
        {
          "internalType": "address[]",
          "name": "",
          "type": "address[]"
        }
      ],
      "stateMutability": "view",
      "type": "function"
    },
    {
      "inputs": [
        {
          "internalType": "uint256",
          "name": "_tokenId",
          "type": "uint256"
        }
      ],
      "name": "ownerOf",
      "outputs": [
        {
          "internalType": "address",
          "name": "",
          "type": "address"
        }
      ],
      "stateMutability": "view",
      "type": "function"
    },
    {
      "inputs": [
        {
          "internalType": "uint256",
          "name": "_tokenId",
          "type": "uint256"
        }
      ],
      "name": "sellToken",
      "outputs": [],
      "stateMutability": "nonpayable",
      "type": "function"
    },
    {
      "inputs": [
        {
          "internalType": "uint256",
          "name": "_tokenId",
          "type": "uint256"
        },
        {
          "internalType": "bool",
          "name": "_forSale",
          "type": "bool"
        }
      ],
      "name": "onSale",
      "outputs": [],
      "stateMutability": "nonpayable",
      "type": "function"
    },
    {
      "inputs": [
        {
          "internalType": "uint256",
          "name": "_tokenId",
          "type": "uint256"
        }
      ],
      "name": "isOnSale",
      "outputs": [
        {
          "internalType": "bool",
          "name": "",
          "type": "bool"
        }
      ],
      "stateMutability": "view",
      "type": "function"
    },
    {
      "inputs": [
        {
          "internalType": "uint256",
          "name": "_tokenId",
          "type": "uint256"
        }
      ],
      "name": "buyToken",
      "outputs": [],
      "stateMutability": "payable",
      "type": "function"
    },
    {
      "inputs": [
        {
          "internalType": "address",
          "name": "_from",
          "type": "address"
        },
        {
          "internalType": "address",
          "name": "_to",
          "type": "address"
        },
        {
          "internalType": "uint256",
          "name": "_tokenId",
          "type": "uint256"
        }
      ],
      "name": "transferFrom",
      "outputs": [],
      "stateMutability": "nonpayable",
      "type": "function"
    },
    {
      "inputs": [
        {
          "internalType": "address",
          "name": "_owner",
          "type": "address"
        }
      ],
      "name": "balanceOf",
      "outputs": [
        {
          "internalType": "uint256",
          "name": "",
          "type": "uint256"
        }
      ],
      "stateMutability": "view",
      "type": "function"
    }
  ],
  "bytecode": "0x608060405234801562000010575f80fd5b5060405162002205380380620022058339818101604052810190620000369190620001c3565b505062000246565b5f604051905090565b5f80fd5b5f80fd5b5f80fd5b5f80fd5b5f601f19601f8301169050919050565b7f4e487b71000000000000000000000000000000000000000000000000000000005f52604160045260245ffd5b6200009f8262000057565b810181811067ffffffffffffffff82111715620000c157620000c062000067565b5b80604052505050565b5f620000d56200003e565b9050620000e3828262000094565b919050565b5f67ffffffffffffffff82111562000105576200010462000067565b5b620001108262000057565b9050602081019050919050565b5f5b838110156200013c5780820151818401526020810190506200011f565b5f8484015250505050565b5f6200015d6200015784620000e8565b620000ca565b9050828152602081018484840111156200017c576200017b62000053565b5b620001898482856200011d565b509392505050565b5f82601f830112620001a857620001a76200004f565b5b8151620001ba84826020860162000147565b91505092915050565b5f8060408385031215620001dc57620001db62000047565b5b5f83015167ffffffffffffffff811115620001fc57620001fb6200004b565b5b6200020a8582860162000191565b925050602083015167ffffffffffffffff8111156200022e576200022d6200004b565b5b6200023c8582860162000191565b9150509250929050565b611fb180620002545f395ff3fe6080604052600436106100e7575f3560e01c80636352211e11610089578063cbd894c711610058578063cbd894c714610311578063d4ddce8a1461034d578063eedc966a14610389578063f0f2805f146103c5576100e7565b80636352211e1461021f57806370a082311461025b57806384856482146102975780638546d002146102d5576100e7565b806323b872dd116100c557806323b872dd146101775780632d296bf11461019f5780633102be4c146101bb5780634a0706be146101f7576100e7565b8063166ab6be146100eb5780631caaa487146101135780632397e4d71461014f575b5f80fd5b3480156100f6575f80fd5b50610111600480360381019061010c91906111ea565b610401565b005b34801561011e575f80fd5b5061013960048036038101906101349190611228565b61042d565b6040516101469190611292565b60405180910390f35b34801561015a575f80fd5b5061017560048036038101906101709190611228565b61045d565b005b348015610182575f80fd5b5061019d600480360381019061019891906112d5565b610527565b005b6101b960048036038101906101b49190611228565b610822565b005b3480156101c6575f80fd5b506101e160048036038101906101dc9190611228565b610aa9565b6040516101ee91906113dc565b60405180910390f35b348015610202575f80fd5b5061021d60048036038101906102189190611538565b610b45565b005b34801561022a575f80fd5b5061024560048036038101906102409190611228565b610d0a565b6040516102529190611292565b60405180910390f35b348015610266575f80fd5b50610281600480360381019061027c91906115f0565b610d43565b60405161028e919061162a565b60405180910390f35b3480156102a2575f80fd5b506102bd60048036038101906102b89190611228565b610d88565b6040516102cc939291906116bd565b60405180910390f35b3480156102e0575f80fd5b506102fb60048036038101906102f69190611228565b610f4f565b6040516103089190611716565b60405180910390f35b34801561031c575f80fd5b506103376004803603810190610332919061172f565b610f6c565b6040516103449190611292565b60405180910390f35b348015610358575f80fd5b50610373600480360381019061036e9190611228565b610fb4565b604051610380919061162a565b60405180910390f35b348015610394575f80fd5b506103af60048036038101906103aa91906115f0565b610fc9565b6040516103bc919061162a565b60405180910390f35b3480156103d0575f80fd5b506103eb60048036038101906103e69190611228565b610fdd565b6040516103f89190611716565b60405180910390f35b8060035f8481526020019081526020015f205f6101000a81548160ff0219169083151502179055505050565b6001602052805f5260405f205f915054906101000a900473ffffffffffffffffffffffffffffffffffffffff1681565b60015f8281526020019081526020015f205f9054906101000a900473ffffffffffffffffffffffffffffffffffffffff1673ffffffffffffffffffffffffffffffffffffffff163373ffffffffffffffffffffffffffffffffffffffff16146104fb576040517f08c379a00000000000000000000000000000000000000000000000000000000081526004016104f2906117b7565b60405180910390fd5b610506816001610401565b674563918244f4000060025f8381526020019081526020015f208190555050565b5f61053182610d0a565b90505f73ffffffffffffffffffffffffffffffffffffffff168473ffffffffffffffffffffffffffffffffffffffff16036105a1576040517f08c379a000000000000000000000000000000000000000000000000000000000815260040161059890611845565b60405180910390fd5b8373ffffffffffffffffffffffffffffffffffffffff168173ffffffffffffffffffffffffffffffffffffffff161461060f576040517f08c379a0000000000000000000000000000000000000000000000000000000008152600401610606906118d3565b60405180910390fd5b5f73ffffffffffffffffffffffffffffffffffffffff168373ffffffffffffffffffffffffffffffffffffffff160361067d576040517f08c379a000000000000000000000000000000000000000000000000000000000815260040161067490611961565b60405180910390fd5b60015f808673ffffffffffffffffffffffffffffffffffffffff1673ffffffffffffffffffffffffffffffffffffffff1681526020019081526020015f205f8282546106c991906119ac565b925050819055505f60015f8481526020019081526020015f205f6101000a81548173ffffffffffffffffffffffffffffffffffffffff021916908373ffffffffffffffffffffffffffffffffffffffff16021790555060015f808573ffffffffffffffffffffffffffffffffffffffff1673ffffffffffffffffffffffffffffffffffffffff1681526020019081526020015f205f82825461076b91906119df565b925050819055508260015f8481526020019081526020015f205f6101000a81548173ffffffffffffffffffffffffffffffffffffffff021916908373ffffffffffffffffffffffffffffffffffffffff160217905550818373ffffffffffffffffffffffffffffffffffffffff168273ffffffffffffffffffffffffffffffffffffffff167fddf252ad1be2c89b69c2b068fc378daa952ba7f163c4a11628f55a4df523b3ef60405160405180910390a450505050565b61082b81610fdd565b61086a576040517f08c379a000000000000000000000000000000000000000000000000000000000815260040161086190611a82565b60405180910390fd5b60025f8281526020019081526020015f20543410156108be576040517f08c379a00000000000000000000000000000000000000000000000000000000081526004016108b590611b10565b60405180910390fd5b5f6108c882610d0a565b90508073ffffffffffffffffffffffffffffffffffffffff163373ffffffffffffffffffffffffffffffffffffffff1603610938576040517f08c379a000000000000000000000000000000000000000000000000000000000815260040161092f90611b9e565b60405180910390fd5b8073ffffffffffffffffffffffffffffffffffffffff166108fc60025f8581526020019081526020015f205490811502906040515f60405180830381858888f1935050505015801561098c573d5f803e3d5ffd5b50610998813384610527565b60045f8381526020019081526020015f2033908060018154018082558091505060019003905f5260205f20015f9091909190916101000a81548173ffffffffffffffffffffffffffffffffffffffff021916908373ffffffffffffffffffffffffffffffffffffffff1602179055503373ffffffffffffffffffffffffffffffffffffffff166108fc60025f8581526020019081526020015f205434610a3e91906119ac565b90811502906040515f60405180830381858888f19350505050158015610a66573d5f803e3d5ffd5b505f60035f8481526020019081526020015f205f6101000a81548160ff0219169083151502179055505f60025f8481526020019081526020015f20819055505050565b606060045f8381526020019081526020015f20805480602002602001604051908101604052809291908181526020018280548015610b3957602002820191905f5260205f20905b815f9054906101000a900473ffffffffffffffffffffffffffffffffffffffff1673ffffffffffffffffffffffffffffffffffffffff1681526020019060010190808311610af0575b50505050509050919050565b5f73ffffffffffffffffffffffffffffffffffffffff168473ffffffffffffffffffffffffffffffffffffffff1603610bb3576040517f08c379a0000000000000000000000000000000000000000000000000000000008152600401610baa90611c06565b60405180910390fd5b5f6005805490509050610bc581611003565b15610c05576040517f08c379a0000000000000000000000000000000000000000000000000000000008152600401610bfc90611c94565b60405180910390fd5b6005604051806060016040528086815260200185815260200184815250908060018154018082558091505060019003905f5260205f2090600302015f909190919091505f820151815f019081610c5b9190611eac565b506020820151816001019081610c719190611eac565b506040820151816002019081610c879190611eac565b50505060045f8281526020019081526020015f2085908060018154018082558091505060019003905f5260205f20015f9091909190916101000a81548173ffffffffffffffffffffffffffffffffffffffff021916908373ffffffffffffffffffffffffffffffffffffffff160217905550610d038582611070565b5050505050565b5f60015f8381526020019081526020015f205f9054906101000a900473ffffffffffffffffffffffffffffffffffffffff169050919050565b5f805f8373ffffffffffffffffffffffffffffffffffffffff1673ffffffffffffffffffffffffffffffffffffffff1681526020019081526020015f20549050919050565b60058181548110610d97575f80fd5b905f5260205f2090600302015f91509050805f018054610db690611cdf565b80601f0160208091040260200160405190810160405280929190818152602001828054610de290611cdf565b8015610e2d5780601f10610e0457610100808354040283529160200191610e2d565b820191905f5260205f20905b815481529060010190602001808311610e1057829003601f168201915b505050505090806001018054610e4290611cdf565b80601f0160208091040260200160405190810160405280929190818152602001828054610e6e90611cdf565b8015610eb95780601f10610e9057610100808354040283529160200191610eb9565b820191905f5260205f20905b815481529060010190602001808311610e9c57829003601f168201915b505050505090806002018054610ece90611cdf565b80601f0160208091040260200160405190810160405280929190818152602001828054610efa90611cdf565b8015610f455780601f10610f1c57610100808354040283529160200191610f45565b820191905f5260205f20905b815481529060010190602001808311610f2857829003601f168201915b5050505050905083565b6003602052805f5260405f205f915054906101000a900460ff1681565b6004602052815f5260405f208181548110610f85575f80fd5b905f5260205f20015f915091509054906101000a900473ffffffffffffffffffffffffffffffffffffffff1681565b6002602052805f5260405f205f915090505481565b5f602052805f5260405f205f915090505481565b5f60035f8381526020019081526020015f205f9054906101000a900460ff169050919050565b5f8060015f8481526020019081526020015f205f9054906101000a900473ffffffffffffffffffffffffffffffffffffffff1690505f73ffffffffffffffffffffffffffffffffffffffff168173ffffffffffffffffffffffffffffffffffffffff161415915050919050565b8160015f8381526020019081526020015f205f6101000a81548173ffffffffffffffffffffffffffffffffffffffff021916908373ffffffffffffffffffffffffffffffffffffffff16021790555060015f808473ffffffffffffffffffffffffffffffffffffffff1673ffffffffffffffffffffffffffffffffffffffff1681526020019081526020015f205f82825461110b91906119df565b92505081905550808273ffffffffffffffffffffffffffffffffffffffff165f73ffffffffffffffffffffffffffffffffffffffff167fddf252ad1be2c89b69c2b068fc378daa952ba7f163c4a11628f55a4df523b3ef60405160405180910390a45050565b5f604051905090565b5f80fd5b5f80fd5b5f819050919050565b61119481611182565b811461119e575f80fd5b50565b5f813590506111af8161118b565b92915050565b5f8115159050919050565b6111c9816111b5565b81146111d3575f80fd5b50565b5f813590506111e4816111c0565b92915050565b5f8060408385031215611200576111ff61117a565b5b5f61120d858286016111a1565b925050602061121e858286016111d6565b9150509250929050565b5f6020828403121561123d5761123c61117a565b5b5f61124a848285016111a1565b91505092915050565b5f73ffffffffffffffffffffffffffffffffffffffff82169050919050565b5f61127c82611253565b9050919050565b61128c81611272565b82525050565b5f6020820190506112a55f830184611283565b92915050565b6112b481611272565b81146112be575f80fd5b50565b5f813590506112cf816112ab565b92915050565b5f805f606084860312156112ec576112eb61117a565b5b5f6112f9868287016112c1565b935050602061130a868287016112c1565b925050604061131b868287016111a1565b9150509250925092565b5f81519050919050565b5f82825260208201905092915050565b5f819050602082019050919050565b61135781611272565b82525050565b5f611368838361134e565b60208301905092915050565b5f602082019050919050565b5f61138a82611325565b611394818561132f565b935061139f8361133f565b805f5b838110156113cf5781516113b6888261135d565b97506113c183611374565b9250506001810190506113a2565b5085935050505092915050565b5f6020820190508181035f8301526113f48184611380565b905092915050565b5f80fd5b5f80fd5b5f601f19601f8301169050919050565b7f4e487b71000000000000000000000000000000000000000000000000000000005f52604160045260245ffd5b61144a82611404565b810181811067ffffffffffffffff8211171561146957611468611414565b5b80604052505050565b5f61147b611171565b90506114878282611441565b919050565b5f67ffffffffffffffff8211156114a6576114a5611414565b5b6114af82611404565b9050602081019050919050565b828183375f83830152505050565b5f6114dc6114d78461148c565b611472565b9050828152602081018484840111156114f8576114f7611400565b5b6115038482856114bc565b509392505050565b5f82601f83011261151f5761151e6113fc565b5b813561152f8482602086016114ca565b91505092915050565b5f805f80608085870312156115505761154f61117a565b5b5f61155d878288016112c1565b945050602085013567ffffffffffffffff81111561157e5761157d61117e565b5b61158a8782880161150b565b935050604085013567ffffffffffffffff8111156115ab576115aa61117e565b5b6115b78782880161150b565b925050606085013567ffffffffffffffff8111156115d8576115d761117e565b5b6115e48782880161150b565b91505092959194509250565b5f602082840312156116055761160461117a565b5b5f611612848285016112c1565b91505092915050565b61162481611182565b82525050565b5f60208201905061163d5f83018461161b565b92915050565b5f81519050919050565b5f82825260208201905092915050565b5f5b8381101561167a57808201518184015260208101905061165f565b5f8484015250505050565b5f61168f82611643565b611699818561164d565b93506116a981856020860161165d565b6116b281611404565b840191505092915050565b5f6060820190508181035f8301526116d58186611685565b905081810360208301526116e98185611685565b905081810360408301526116fd8184611685565b9050949350505050565b611710816111b5565b82525050565b5f6020820190506117295f830184611707565b92915050565b5f80604083850312156117455761174461117a565b5b5f611752858286016111a1565b9250506020611763858286016111a1565b9150509250929050565b7f4f6e6c79206f776e65722063616e2073656c6c20746f6b656e000000000000005f82015250565b5f6117a160198361164d565b91506117ac8261176d565b602082019050919050565b5f6020820190508181035f8301526117ce81611795565b9050919050565b7f56616c69646174696f6e204661696c65643a2053656c6c6572206d757374206e5f8201527f6f7420626520656d707479206164647265737300000000000000000000000000602082015250565b5f61182f60338361164d565b915061183a826117d5565b604082019050919050565b5f6020820190508181035f83015261185c81611823565b9050919050565b7f56616c69646174696f6e204661696c65643a2053656c6c6572206d75737420625f8201527f65206f776e657200000000000000000000000000000000000000000000000000602082015250565b5f6118bd60278361164d565b91506118c882611863565b604082019050919050565b5f6020820190508181035f8301526118ea816118b1565b9050919050565b7f56616c69646174696f6e204661696c65643a204275796572206d757374206e6f5f8201527f7420626520656d70747920616464726573730000000000000000000000000000602082015250565b5f61194b60328361164d565b9150611956826118f1565b604082019050919050565b5f6020820190508181035f8301526119788161193f565b9050919050565b7f4e487b71000000000000000000000000000000000000000000000000000000005f52601160045260245ffd5b5f6119b682611182565b91506119c183611182565b92508282039050818111156119d9576119d861197f565b5b92915050565b5f6119e982611182565b91506119f483611182565b9250828201905080821115611a0c57611a0b61197f565b5b92915050565b7f56616c69646174696f6e206661696c65643a20546f6b656e206973206e6f74205f8201527f6f6e2073616c6500000000000000000000000000000000000000000000000000602082015250565b5f611a6c60278361164d565b9150611a7782611a12565b604082019050919050565b5f6020820190508181035f830152611a9981611a60565b9050919050565b7f56616c69646174696f6e206661696c65643a204e6f7420656e6f7567682045545f8201527f4800000000000000000000000000000000000000000000000000000000000000602082015250565b5f611afa60218361164d565b9150611b0582611aa0565b604082019050919050565b5f6020820190508181035f830152611b2781611aee565b9050919050565b7f56616c69646174696f6e206661696c65643a20596f752063616e6e6f742062755f8201527f7920796f7572206f776e20746f6b656e00000000000000000000000000000000602082015250565b5f611b8860308361164d565b9150611b9382611b2e565b604082019050919050565b5f6020820190508181035f830152611bb581611b7c565b9050919050565b7f456d70747920616464726573732063616e6e6f74206d696e74204e46540000005f82015250565b5f611bf0601d8361164d565b9150611bfb82611bbc565b602082019050919050565b5f6020820190508181035f830152611c1d81611be4565b9050919050565b7f3120746f6b656e49642063616e206f6e6c792062652061737369676e656420745f8201527f6f2031204e465400000000000000000000000000000000000000000000000000602082015250565b5f611c7e60278361164d565b9150611c8982611c24565b604082019050919050565b5f6020820190508181035f830152611cab81611c72565b9050919050565b7f4e487b71000000000000000000000000000000000000000000000000000000005f52602260045260245ffd5b5f6002820490506001821680611cf657607f821691505b602082108103611d0957611d08611cb2565b5b50919050565b5f819050815f5260205f209050919050565b5f6020601f8301049050919050565b5f82821b905092915050565b5f60088302611d6b7fffffffffffffffffffffffffffffffffffffffffffffffffffffffffffffffff82611d30565b611d758683611d30565b95508019841693508086168417925050509392505050565b5f819050919050565b5f611db0611dab611da684611182565b611d8d565b611182565b9050919050565b5f819050919050565b611dc983611d96565b611ddd611dd582611db7565b848454611d3c565b825550505050565b5f90565b611df1611de5565b611dfc818484611dc0565b505050565b5b81811015611e1f57611e145f82611de9565b600181019050611e02565b5050565b601f821115611e6457611e3581611d0f565b611e3e84611d21565b81016020851015611e4d578190505b611e61611e5985611d21565b830182611e01565b50505b505050565b5f82821c905092915050565b5f611e845f1984600802611e69565b1980831691505092915050565b5f611e9c8383611e75565b9150826002028217905092915050565b611eb582611643565b67ffffffffffffffff811115611ece57611ecd611414565b5b611ed88254611cdf565b611ee3828285611e23565b5f60209050601f831160018114611f14575f8415611f02578287015190505b611f0c8582611e91565b865550611f73565b601f198416611f2286611d0f565b5f5b82811015611f4957848901518255600182019150602085019450602081019050611f24565b86831015611f665784890151611f62601f891682611e75565b8355505b6001600288020188555050505b50505050505056fea26469706673582212207e207668972b759c1ebe2fba92516c47f9ec2bd7e88050bbb251d1edb8668a3c64736f6c63430008140033",
  "immutableReferences": {},
  "source": "// SPDX-License-Identifier: UNLICENSED\r\npragma solidity ^0.8.10;\r\n\r\nimport \"./myERC721.sol\";\r\n\r\ncontract myNFT is ERC721 {\r\n    // ERC721  \r\n\r\n    /*    mapping */\r\n    /*   NFT   */\r\n    mapping(address => uint256) public tokenBalance;\r\n    /* Id    */\r\n    mapping(uint256 => address) public tokenOwner;\r\n    /* Id   (  5 ETH,  0) */\r\n    mapping(uint256 => uint256) public tokenPrice;\r\n    /* Id    */\r\n    mapping(uint256 => bool) public isForSale;\r\n    /* Id     */\r\n    mapping(uint256 => address[]) public tokenOwnerHistory;\r\n\r\n    // NFT \r\n    struct Image {\r\n        string name;\r\n        string url;\r\n        string myAttributes;\r\n        /*       . */\r\n    }\r\n    Image[] public images;\r\n\r\n    constructor(\r\n        string memory _name,\r\n        string memory _symbol\r\n    ) ERC721() {}\r\n    // } ERC721(_name, _symbol) {}\r\n\r\n    function mint(\r\n        address _to,   // NFT   \r\n        string memory _name,   // NFT \r\n        string memory _url,   // NFT path\r\n        string memory myAttributes   // NFT \r\n    ) public {\r\n        /* NFT   address(0)   */\r\n        require(_to != address(0), \"Empty address cannot mint NFT\");\r\n        uint _tokenId = images.length;/* ID   0   */\r\n        require(!_exists(_tokenId), \"1 tokenId can only be assigned to 1 NFT\");\r\n        /*  Id    NFT    */\r\n        images.push(  /* images   NFT  */\r\n            Image(_name, _url, myAttributes)\r\n        );\r\n        tokenOwnerHistory[_tokenId].push(_to);\r\n        /*  NFT      */\r\n        _mint(_to, _tokenId);\r\n    }\r\n\r\n    // nft  \r\n    function _mint(address to, uint256 tokenId) internal {\r\n        tokenOwner[tokenId] = to;\r\n        tokenBalance[to] += 1;\r\n        emit Transfer(address(0), to, tokenId);\r\n    }\r\n\r\n    // tokenId   \r\n    function ownerHistoryOf(uint256 tokenId) public\r\n        view returns (address[] memory) {\r\n        return tokenOwnerHistory[tokenId];\r\n    }\r\n\r\n    // NFT id   \r\n    function _exists(uint256 tokenId) internal\r\n        view returns (bool) {\r\n        /* tokenId  . */\r\n        address owner = tokenOwner[tokenId];\r\n        return owner != address(0);\r\n    }   \r\n\r\n    //    \r\n    function ownerOf(uint256 _tokenId) public\r\n        view returns (address) {\r\n        return tokenOwner[_tokenId];\r\n    }\r\n\r\n    function sellToken(uint256 _tokenId) public {\r\n        /*     Id  . */\r\n        require(msg.sender == tokenOwner[_tokenId], \"Only owner can sell token\");\r\n        /* onSale    Id   true . */\r\n        onSale(_tokenId, true);\r\n        /*   5 ETH . */\r\n        tokenPrice[_tokenId] = 5 ether;\r\n    }\r\n\r\n    //    \r\n    function onSale(uint256 _tokenId, bool _forSale) public {\r\n        isForSale[_tokenId] = _forSale;\r\n    }\r\n\r\n    //    \r\n    function isOnSale(uint256 _tokenId) public\r\n        view returns (bool) {\r\n        return isForSale[_tokenId];\r\n    }\r\n\r\n    //   \r\n    function buyToken(uint256 _tokenId) public payable {\r\n        /*\r\n           :\r\n          1  \r\n          2       \r\n          3     \r\n        */\r\n        require(isOnSale(_tokenId), \"Validation failed: Token is not on sale\");\r\n        require(msg.value >= tokenPrice[_tokenId], \"Validation failed: Not enough ETH\");\r\n        address owner = ownerOf(_tokenId);\r\n        require(msg.sender != owner, \"Validation failed: You cannot buy your own token\");\r\n\r\n        /*   ETH   */\r\n        payable(owner).transfer(tokenPrice[_tokenId]);\r\n        /*     */\r\n        transferFrom(owner, msg.sender, _tokenId);\r\n        /*       */\r\n        tokenOwnerHistory[_tokenId].push(msg.sender);\r\n        /*        */\r\n        payable(msg.sender).transfer(msg.value - tokenPrice[_tokenId]);\r\n        \r\n        /*     */\r\n        isForSale[_tokenId] = false;\r\n        tokenPrice[_tokenId] = 0;\r\n    }\r\n\r\n    //   \r\n    function transferFrom(\r\n        address _from,\r\n        address _to,\r\n        uint256 _tokenId\r\n    ) public {\r\n        /*\r\n            Id     :\r\n          1      Id  \r\n          2     \r\n        */\r\n        address owner = ownerOf(_tokenId);\r\n        require(_from != address(0), \"Validation Failed: Seller must not be empty address\");\r\n        require(owner == _from, \"Validation Failed: Seller must be owner\");\r\n        require(_to != address(0), \"Validation Failed: Buyer must not be empty address\");\r\n        /*\r\n              \r\n          Id    \r\n        */\r\n        tokenBalance[_from] -= 1;\r\n        tokenOwner[_tokenId] = address(0); /*      */\r\n        tokenBalance[_to] += 1;\r\n        tokenOwner[_tokenId] = _to;\r\n        /*     */\r\n        emit Transfer(owner, _to, _tokenId);\r\n    }\r\n\r\n    //     \r\n    function balanceOf(address _owner) public\r\n        view override returns (uint256) {\r\n        return tokenBalance[_owner];\r\n    }\r\n}",
  "sourcePath": "C:\\Users\\HwangTaeyeon\\Desktop\\hwangz\\workspace\\practice\\cs\\blockchain\\ethurium_solidity#2\\Practice_2 (1)\\contracts\\myNFT.sol",
  "compiler": {
    "name": "solc",
    "version": "0.8.20+commit.a1b79de6.Emscripten.clang"
  },
  "schemaVersion": "3.4.14",
  "updatedAt": "2023-06-12T08:02:43.727Z",
  "devdoc": {
    "kind": "dev",
    "methods": {},
    "version": 1
  },
  "userdoc": {
    "kind": "user",
    "methods": {},
    "version": 1
  }
}